{
  "contractName": "Farmer",
  "abi": [
    {
      "inputs": [
        {
          "internalType": "address",
          "name": "_add",
          "type": "address"
        }
      ],
      "name": "addFarmer",
      "outputs": [],
      "stateMutability": "nonpayable",
      "type": "function"
    },
    {
      "inputs": [
        {
          "internalType": "address",
          "name": "_add",
          "type": "address"
        }
      ],
      "name": "removeFarmer",
      "outputs": [],
      "stateMutability": "nonpayable",
      "type": "function"
    },
    {
      "inputs": [
        {
          "internalType": "address",
          "name": "_add",
          "type": "address"
        }
      ],
      "name": "isFarmer",
      "outputs": [
        {
          "internalType": "bool",
          "name": "",
          "type": "bool"
        }
      ],
      "stateMutability": "view",
      "type": "function"
    }
  ],
  "bytecode": "0x608060405234801561001057600080fd5b5061068f806100206000396000f3fe608060405234801561001057600080fd5b50600436106100415760003560e01c806380c3f96d14610046578063b942906914610062578063e6bf3fdc14610092575b600080fd5b610060600480360381019061005b9190610435565b6100ae565b005b61007c60048036038101906100779190610435565b6100bc565b604051610089919061047d565b60405180910390f35b6100ac60048036038101906100a79190610435565b6100d0565b005b6100b96000826100de565b50565b60006100c96000836101f5565b9050919050565b6100db6000826102bc565b50565b600073ffffffffffffffffffffffffffffffffffffffff168173ffffffffffffffffffffffffffffffffffffffff160361014d576040517f08c379a0000000000000000000000000000000000000000000000000000000008152600401610144906104f5565b60405180910390fd5b61015782826101f5565b15610197576040517f08c379a000000000000000000000000000000000000000000000000000000000815260040161018e90610561565b60405180910390fd5b60018260000160008373ffffffffffffffffffffffffffffffffffffffff1673ffffffffffffffffffffffffffffffffffffffff16815260200190815260200160002060006101000a81548160ff0219169083151502179055505050565b60008073ffffffffffffffffffffffffffffffffffffffff168273ffffffffffffffffffffffffffffffffffffffff1603610265576040517f08c379a000000000000000000000000000000000000000000000000000000000815260040161025c906105cd565b60405180910390fd5b8260000160008373ffffffffffffffffffffffffffffffffffffffff1673ffffffffffffffffffffffffffffffffffffffff16815260200190815260200160002060009054906101000a900460ff16905092915050565b600073ffffffffffffffffffffffffffffffffffffffff168173ffffffffffffffffffffffffffffffffffffffff160361032b576040517f08c379a0000000000000000000000000000000000000000000000000000000008152600401610322906104f5565b60405180910390fd5b61033582826101f5565b610374576040517f08c379a000000000000000000000000000000000000000000000000000000000815260040161036b90610639565b60405180910390fd5b60008260000160008373ffffffffffffffffffffffffffffffffffffffff1673ffffffffffffffffffffffffffffffffffffffff16815260200190815260200160002060006101000a81548160ff0219169083151502179055505050565b600080fd5b600073ffffffffffffffffffffffffffffffffffffffff82169050919050565b6000610402826103d7565b9050919050565b610412816103f7565b811461041d57600080fd5b50565b60008135905061042f81610409565b92915050565b60006020828403121561044b5761044a6103d2565b5b600061045984828501610420565b91505092915050565b60008115159050919050565b61047781610462565b82525050565b6000602082019050610492600083018461046e565b92915050565b600082825260208201905092915050565b7f416464726573732063616e6e6f74206265207a65726f00000000000000000000600082015250565b60006104df601683610498565b91506104ea826104a9565b602082019050919050565b6000602082019050818103600083015261050e816104d2565b9050919050565b7f416c726561647920526567697374657265640000000000000000000000000000600082015250565b600061054b601283610498565b915061055682610515565b602082019050919050565b6000602082019050818103600083015261057a8161053e565b9050919050565b7f416464726573732063616e6e6f74206265207a65726f20616464726573730000600082015250565b60006105b7601e83610498565b91506105c282610581565b602082019050919050565b600060208201905081810360008301526105e6816105aa565b9050919050565b7f4d656d62657220646f6573206e6f742065786973740000000000000000000000600082015250565b6000610623601583610498565b915061062e826105ed565b602082019050919050565b6000602082019050818103600083015261065281610616565b905091905056fea2646970667358221220b557a0333a4d2355db989f6b318edbdb93d625a08bd6293c39b0a3ccff5c2cab64736f6c634300080e0033",
  "immutableReferences": {},
  "source": "// SPDX-License-Identifier: GPL-3.0\r\npragma solidity >=0.7.0 <0.9.0;\r\n\r\nimport \"./Roles.sol\";\r\n\r\ncontract Farmer{\r\n    using Roles for Roles.Record;\r\n\r\n    Roles.Record private farmers;\r\n\r\n\r\n    function addFarmer(address _add) public {\r\n        Roles.add_member(farmers, _add);\r\n    }\r\n\r\n    function removeFarmer(address _add) public {\r\n        Roles.remove_member(farmers, _add);\r\n    }\r\n\r\n    function isFarmer(address _add) public view returns (bool) {\r\n        return Roles.is_member(farmers, _add);\r\n    }\r\n}",
  "sourcePath": "C:\\Users\\Mhaseeb\\Desktop\\SS_Project\\contracts\\Roles\\Farmer.sol",
  "compiler": {
    "name": "solc",
    "version": "0.8.14+commit.80d49f37.Emscripten.clang"
  },
  "schemaVersion": "3.4.7",
  "updatedAt": "2022-05-25T16:51:23.915Z",
  "devdoc": {
    "kind": "dev",
    "methods": {},
    "version": 1
  },
  "userdoc": {
    "kind": "user",
    "methods": {},
    "version": 1
  }
}