{
  "contractName": "MetaCoin",
  "abi": [
    {
      "inputs": [],
      "stateMutability": "nonpayable",
      "type": "constructor"
    },
    {
      "anonymous": false,
      "inputs": [
        {
          "indexed": true,
          "internalType": "address",
          "name": "_from",
          "type": "address"
        },
        {
          "indexed": true,
          "internalType": "address",
          "name": "_to",
          "type": "address"
        },
        {
          "indexed": false,
          "internalType": "uint256",
          "name": "_value",
          "type": "uint256"
        }
      ],
      "name": "Transfer",
      "type": "event"
    },
    {
      "inputs": [
        {
          "internalType": "address",
          "name": "_add",
          "type": "address"
        }
      ],
      "name": "addFarmer",
      "outputs": [
        {
          "internalType": "bool",
          "name": "",
          "type": "bool"
        }
      ],
      "stateMutability": "nonpayable",
      "type": "function"
    },
    {
      "inputs": [
        {
          "internalType": "address",
          "name": "_add",
          "type": "address"
        }
      ],
      "name": "isFarmer",
      "outputs": [
        {
          "internalType": "bool",
          "name": "",
          "type": "bool"
        }
      ],
      "stateMutability": "nonpayable",
      "type": "function"
    },
    {
      "inputs": [
        {
          "internalType": "address",
          "name": "receiver",
          "type": "address"
        },
        {
          "internalType": "uint256",
          "name": "amount",
          "type": "uint256"
        }
      ],
      "name": "sendCoin",
      "outputs": [
        {
          "internalType": "bool",
          "name": "sufficient",
          "type": "bool"
        }
      ],
      "stateMutability": "nonpayable",
      "type": "function"
    },
    {
      "inputs": [
        {
          "internalType": "address",
          "name": "addr",
          "type": "address"
        }
      ],
      "name": "getBalanceInEth",
      "outputs": [
        {
          "internalType": "uint256",
          "name": "",
          "type": "uint256"
        }
      ],
      "stateMutability": "view",
      "type": "function",
      "constant": true
    },
    {
      "inputs": [
        {
          "internalType": "address",
          "name": "addr",
          "type": "address"
        }
      ],
      "name": "getBalance",
      "outputs": [
        {
          "internalType": "uint256",
          "name": "",
          "type": "uint256"
        }
      ],
      "stateMutability": "view",
      "type": "function",
      "constant": true
    }
  ],
  "bytecode": "0x608060405234801561001057600080fd5b50612710600160003273ffffffffffffffffffffffffffffffffffffffff1673ffffffffffffffffffffffffffffffffffffffff1681526020019081526020016000208190555061087b806100666000396000f3fe608060405234801561001057600080fd5b50600436106100575760003560e01c80637bd703e81461005c57806380c3f96d1461008c57806390b98a11146100bc578063b9429069146100ec578063f8b2cb4f1461011c575b600080fd5b6100766004803603810190610071919061054d565b61014c565b6040516100839190610593565b60405180910390f35b6100a660048036038101906100a1919061054d565b6101d8565b6040516100b391906105c9565b60405180910390f35b6100d660048036038101906100d19190610610565b610296565b6040516100e391906105c9565b60405180910390f35b6101066004803603810190610101919061054d565b610404565b60405161011391906105c9565b60405180910390f35b6101366004803603810190610131919061054d565b6104a1565b6040516101439190610593565b60405180910390f35b600073__ConvertLib____________________________6396e4ee3d610171846104a1565b60026040518363ffffffff1660e01b81526004016101909291906106a4565b602060405180830381865af41580156101ad573d6000803e3d6000fd5b505050506040513d601f19601f820116820180604052508101906101d191906106e2565b9050919050565b6000600115156000808473ffffffffffffffffffffffffffffffffffffffff1673ffffffffffffffffffffffffffffffffffffffff16815260200190815260200160002060009054906101000a900460ff1615150361023657600080fd5b60016000808473ffffffffffffffffffffffffffffffffffffffff1673ffffffffffffffffffffffffffffffffffffffff16815260200190815260200160002060006101000a81548160ff02191690831515021790555060019050919050565b600081600160003373ffffffffffffffffffffffffffffffffffffffff1673ffffffffffffffffffffffffffffffffffffffff1681526020019081526020016000205410156102e857600090506103fe565b81600160003373ffffffffffffffffffffffffffffffffffffffff1673ffffffffffffffffffffffffffffffffffffffff1681526020019081526020016000206000828254610337919061073e565b9250508190555081600160008573ffffffffffffffffffffffffffffffffffffffff1673ffffffffffffffffffffffffffffffffffffffff168152602001908152602001600020600082825461038d9190610772565b925050819055508273ffffffffffffffffffffffffffffffffffffffff163373ffffffffffffffffffffffffffffffffffffffff167fddf252ad1be2c89b69c2b068fc378daa952ba7f163c4a11628f55a4df523b3ef846040516103f19190610593565b60405180910390a3600190505b92915050565b6000600115156000808473ffffffffffffffffffffffffffffffffffffffff1673ffffffffffffffffffffffffffffffffffffffff16815260200190815260200160002060009054906101000a900460ff16151514610498576040517f08c379a000000000000000000000000000000000000000000000000000000000815260040161048f90610825565b60405180910390fd5b60019050919050565b6000600160008373ffffffffffffffffffffffffffffffffffffffff1673ffffffffffffffffffffffffffffffffffffffff168152602001908152602001600020549050919050565b600080fd5b600073ffffffffffffffffffffffffffffffffffffffff82169050919050565b600061051a826104ef565b9050919050565b61052a8161050f565b811461053557600080fd5b50565b60008135905061054781610521565b92915050565b600060208284031215610563576105626104ea565b5b600061057184828501610538565b91505092915050565b6000819050919050565b61058d8161057a565b82525050565b60006020820190506105a86000830184610584565b92915050565b60008115159050919050565b6105c3816105ae565b82525050565b60006020820190506105de60008301846105ba565b92915050565b6105ed8161057a565b81146105f857600080fd5b50565b60008135905061060a816105e4565b92915050565b60008060408385031215610627576106266104ea565b5b600061063585828601610538565b9250506020610646858286016105fb565b9150509250929050565b6106598161057a565b82525050565b6000819050919050565b6000819050919050565b600061068e6106896106848461065f565b610669565b61057a565b9050919050565b61069e81610673565b82525050565b60006040820190506106b96000830185610650565b6106c66020830184610695565b9392505050565b6000815190506106dc816105e4565b92915050565b6000602082840312156106f8576106f76104ea565b5b6000610706848285016106cd565b91505092915050565b7f4e487b7100000000000000000000000000000000000000000000000000000000600052601160045260246000fd5b60006107498261057a565b91506107548361057a565b9250828210156107675761076661070f565b5b828203905092915050565b600061077d8261057a565b91506107888361057a565b9250827fffffffffffffffffffffffffffffffffffffffffffffffffffffffffffffffff038211156107bd576107bc61070f565b5b828201905092915050565b600082825260208201905092915050565b7f4e6f742072656769737465726564000000000000000000000000000000000000600082015250565b600061080f600e836107c8565b915061081a826107d9565b602082019050919050565b6000602082019050818103600083015261083e81610802565b905091905056fea2646970667358221220963cad8c8bebc399696e8a0e42dcc245fa0d275400fb5e63de39f224a60f6a5664736f6c634300080e0033",
  "immutableReferences": {},
  "source": "pragma solidity >=0.7.0 <0.9.0;\n\nimport \"./ConvertLib.sol\";\n\n// This is just a simple example of a coin-like contract.\n// It is not standards compatible and cannot be expected to talk to other\n// coin/token contracts. If you want to create a standards-compliant\n// token, see: https://github.com/ConsenSys/Tokens. Cheers!\n\ncontract MetaCoin {\n\tmapping (address => bool) record;\n\tfunction addFarmer(address _add) public returns(bool){\n        require(record[_add] != true);\n\t\trecord[_add]= true;\n\t\treturn true;\n    }\n\n\tfunction isFarmer(address _add) public returns(bool){\n\t\trequire(record[_add] == true, 'Not registered');\n\t\treturn true;\n\t}\n\n\n\tmapping (address => uint) balances;\n\n\tevent Transfer(address indexed _from, address indexed _to, uint256 _value);\n\n\tconstructor() public {\n\t\tbalances[tx.origin] = 10000;\n\t}\n\n\tfunction sendCoin(address receiver, uint amount) public returns(bool sufficient) {\n\t\tif (balances[msg.sender] < amount) return false;\n\t\tbalances[msg.sender] -= amount;\n\t\tbalances[receiver] += amount;\n\t\temit Transfer(msg.sender, receiver, amount);\n\t\treturn true;\n\t}\n\n\tfunction getBalanceInEth(address addr) public view returns(uint){\n\t\treturn ConvertLib.convert(getBalance(addr),2);\n\t}\n\n\tfunction getBalance(address addr) public view returns(uint) {\n\t\treturn balances[addr];\n\t}\n}\n",
  "sourcePath": "F:/project/SS_Project (2)/SS_Project/contracts/MetaCoin.sol",
  "compiler": {
    "name": "solc",
    "version": "0.8.14+commit.80d49f37.Emscripten.clang"
  },
  "schemaVersion": "3.3.4",
  "updatedAt": "2022-06-09T18:18:53.268Z",
  "networkType": "ethereum",
  "devdoc": {
    "kind": "dev",
    "methods": {},
    "version": 1
  },
  "userdoc": {
    "kind": "user",
    "methods": {},
    "version": 1
  }
}