{
  "contractName": "SupplyChain",
  "abi": [
    {
      "inputs": [
        {
          "internalType": "address",
          "name": "_add",
          "type": "address"
        }
      ],
      "name": "addConsumer",
      "outputs": [],
      "stateMutability": "nonpayable",
      "type": "function"
    },
    {
      "inputs": [
        {
          "internalType": "address",
          "name": "_add",
          "type": "address"
        }
      ],
      "name": "addDistributor",
      "outputs": [],
      "stateMutability": "nonpayable",
      "type": "function"
    },
    {
      "inputs": [
        {
          "internalType": "address",
          "name": "_add",
          "type": "address"
        }
      ],
      "name": "addFarmer",
      "outputs": [],
      "stateMutability": "nonpayable",
      "type": "function"
    },
    {
      "inputs": [
        {
          "internalType": "address",
          "name": "_add",
          "type": "address"
        }
      ],
      "name": "addRetailer",
      "outputs": [],
      "stateMutability": "nonpayable",
      "type": "function"
    },
    {
      "inputs": [],
      "name": "approve",
      "outputs": [],
      "stateMutability": "nonpayable",
      "type": "function"
    },
    {
      "inputs": [],
      "name": "choose_final_verdict",
      "outputs": [
        {
          "internalType": "bool",
          "name": "",
          "type": "bool"
        }
      ],
      "stateMutability": "view",
      "type": "function",
      "constant": true
    },
    {
      "inputs": [],
      "name": "clear_pred_arr",
      "outputs": [],
      "stateMutability": "nonpayable",
      "type": "function"
    },
    {
      "inputs": [],
      "name": "fill_pred_arr",
      "outputs": [
        {
          "internalType": "uint256",
          "name": "",
          "type": "uint256"
        }
      ],
      "stateMutability": "nonpayable",
      "type": "function"
    },
    {
      "inputs": [
        {
          "internalType": "uint256",
          "name": "num_max",
          "type": "uint256"
        },
        {
          "internalType": "uint256",
          "name": "num_min",
          "type": "uint256"
        }
      ],
      "name": "generate_random",
      "outputs": [
        {
          "internalType": "uint256",
          "name": "",
          "type": "uint256"
        }
      ],
      "stateMutability": "nonpayable",
      "type": "function"
    },
    {
      "inputs": [
        {
          "internalType": "address",
          "name": "_add",
          "type": "address"
        }
      ],
      "name": "isConsumer",
      "outputs": [
        {
          "internalType": "bool",
          "name": "",
          "type": "bool"
        }
      ],
      "stateMutability": "view",
      "type": "function",
      "constant": true
    },
    {
      "inputs": [
        {
          "internalType": "address",
          "name": "_add",
          "type": "address"
        }
      ],
      "name": "isDistributor",
      "outputs": [
        {
          "internalType": "bool",
          "name": "",
          "type": "bool"
        }
      ],
      "stateMutability": "view",
      "type": "function",
      "constant": true
    },
    {
      "inputs": [
        {
          "internalType": "address",
          "name": "_add",
          "type": "address"
        }
      ],
      "name": "isFarmer",
      "outputs": [
        {
          "internalType": "bool",
          "name": "",
          "type": "bool"
        }
      ],
      "stateMutability": "view",
      "type": "function",
      "constant": true
    },
    {
      "inputs": [
        {
          "internalType": "address",
          "name": "_add",
          "type": "address"
        }
      ],
      "name": "isRetailer",
      "outputs": [
        {
          "internalType": "bool",
          "name": "",
          "type": "bool"
        }
      ],
      "stateMutability": "view",
      "type": "function",
      "constant": true
    },
    {
      "inputs": [
        {
          "internalType": "uint256",
          "name": "",
          "type": "uint256"
        }
      ],
      "name": "product_list",
      "outputs": [
        {
          "internalType": "uint256",
          "name": "id",
          "type": "uint256"
        },
        {
          "internalType": "uint256",
          "name": "safranal_content",
          "type": "uint256"
        },
        {
          "internalType": "uint256",
          "name": "price",
          "type": "uint256"
        },
        {
          "internalType": "address payable",
          "name": "farmer",
          "type": "address"
        },
        {
          "internalType": "address payable",
          "name": "distributor",
          "type": "address"
        },
        {
          "internalType": "address payable",
          "name": "retailer",
          "type": "address"
        },
        {
          "internalType": "address payable",
          "name": "consumer",
          "type": "address"
        },
        {
          "internalType": "address payable",
          "name": "Current_owner",
          "type": "address"
        },
        {
          "internalType": "enum SupplyChain.State",
          "name": "state",
          "type": "uint8"
        },
        {
          "internalType": "string",
          "name": "grade",
          "type": "string"
        }
      ],
      "stateMutability": "view",
      "type": "function",
      "constant": true
    },
    {
      "inputs": [],
      "name": "random_num",
      "outputs": [
        {
          "internalType": "uint256",
          "name": "",
          "type": "uint256"
        }
      ],
      "stateMutability": "view",
      "type": "function",
      "constant": true
    },
    {
      "inputs": [
        {
          "internalType": "uint256",
          "name": "",
          "type": "uint256"
        }
      ],
      "name": "registered",
      "outputs": [
        {
          "internalType": "uint256",
          "name": "id",
          "type": "uint256"
        },
        {
          "internalType": "uint256",
          "name": "rep_score",
          "type": "uint256"
        },
        {
          "internalType": "bool",
          "name": "verdict",
          "type": "bool"
        }
      ],
      "stateMutability": "view",
      "type": "function",
      "constant": true
    },
    {
      "inputs": [],
      "name": "reject",
      "outputs": [],
      "stateMutability": "nonpayable",
      "type": "function"
    },
    {
      "inputs": [
        {
          "internalType": "address",
          "name": "_add",
          "type": "address"
        }
      ],
      "name": "removeConsumer",
      "outputs": [],
      "stateMutability": "nonpayable",
      "type": "function"
    },
    {
      "inputs": [
        {
          "internalType": "address",
          "name": "_add",
          "type": "address"
        }
      ],
      "name": "removeDistributor",
      "outputs": [],
      "stateMutability": "nonpayable",
      "type": "function"
    },
    {
      "inputs": [
        {
          "internalType": "address",
          "name": "_add",
          "type": "address"
        }
      ],
      "name": "removeFarmer",
      "outputs": [],
      "stateMutability": "nonpayable",
      "type": "function"
    },
    {
      "inputs": [
        {
          "internalType": "address",
          "name": "_add",
          "type": "address"
        }
      ],
      "name": "removeRetailer",
      "outputs": [],
      "stateMutability": "nonpayable",
      "type": "function"
    },
    {
      "inputs": [],
      "name": "reset",
      "outputs": [],
      "stateMutability": "nonpayable",
      "type": "function"
    },
    {
      "inputs": [],
      "name": "select_5_people",
      "outputs": [],
      "stateMutability": "nonpayable",
      "type": "function"
    },
    {
      "inputs": [],
      "name": "update_score",
      "outputs": [
        {
          "internalType": "bool",
          "name": "",
          "type": "bool"
        }
      ],
      "stateMutability": "nonpayable",
      "type": "function"
    },
    {
      "inputs": [],
      "name": "ver_register",
      "outputs": [],
      "stateMutability": "nonpayable",
      "type": "function"
    },
    {
      "inputs": [],
      "name": "verify",
      "outputs": [
        {
          "internalType": "bool",
          "name": "",
          "type": "bool"
        }
      ],
      "stateMutability": "nonpayable",
      "type": "function"
    },
    {
      "inputs": [
        {
          "internalType": "uint256",
          "name": "_id",
          "type": "uint256"
        },
        {
          "internalType": "uint256",
          "name": "saf_content",
          "type": "uint256"
        },
        {
          "internalType": "string",
          "name": "_grade",
          "type": "string"
        },
        {
          "internalType": "uint256",
          "name": "_price",
          "type": "uint256"
        }
      ],
      "name": "add_product",
      "outputs": [],
      "stateMutability": "nonpayable",
      "type": "function"
    },
    {
      "inputs": [
        {
          "internalType": "uint256",
          "name": "_id",
          "type": "uint256"
        },
        {
          "internalType": "uint256",
          "name": "saf_content",
          "type": "uint256"
        }
      ],
      "name": "harvest_product",
      "outputs": [],
      "stateMutability": "nonpayable",
      "type": "function"
    },
    {
      "inputs": [
        {
          "internalType": "uint256",
          "name": "_id",
          "type": "uint256"
        }
      ],
      "name": "dry_product",
      "outputs": [],
      "stateMutability": "nonpayable",
      "type": "function"
    },
    {
      "inputs": [
        {
          "internalType": "uint256",
          "name": "_id",
          "type": "uint256"
        },
        {
          "internalType": "string",
          "name": "_grade",
          "type": "string"
        }
      ],
      "name": "grading",
      "outputs": [],
      "stateMutability": "nonpayable",
      "type": "function"
    },
    {
      "inputs": [
        {
          "internalType": "uint256",
          "name": "_id",
          "type": "uint256"
        }
      ],
      "name": "packing",
      "outputs": [],
      "stateMutability": "nonpayable",
      "type": "function"
    },
    {
      "inputs": [
        {
          "internalType": "uint256",
          "name": "_id",
          "type": "uint256"
        },
        {
          "internalType": "uint256",
          "name": "_price",
          "type": "uint256"
        }
      ],
      "name": "for_sale",
      "outputs": [],
      "stateMutability": "nonpayable",
      "type": "function"
    },
    {
      "inputs": [
        {
          "internalType": "uint256",
          "name": "_id",
          "type": "uint256"
        },
        {
          "internalType": "uint256",
          "name": "safranal_content",
          "type": "uint256"
        }
      ],
      "name": "get_response_from_verifiers",
      "outputs": [
        {
          "internalType": "bool",
          "name": "",
          "type": "bool"
        }
      ],
      "stateMutability": "nonpayable",
      "type": "function"
    },
    {
      "inputs": [
        {
          "internalType": "uint256",
          "name": "_id",
          "type": "uint256"
        },
        {
          "internalType": "uint256",
          "name": "new_price",
          "type": "uint256"
        }
      ],
      "name": "sell_to_distributor",
      "outputs": [],
      "stateMutability": "payable",
      "type": "function",
      "payable": true
    },
    {
      "inputs": [
        {
          "internalType": "uint256",
          "name": "_id",
          "type": "uint256"
        },
        {
          "internalType": "uint256",
          "name": "new_price",
          "type": "uint256"
        }
      ],
      "name": "sell_to_retailer",
      "outputs": [],
      "stateMutability": "payable",
      "type": "function",
      "payable": true
    },
    {
      "inputs": [
        {
          "internalType": "uint256",
          "name": "_id",
          "type": "uint256"
        }
      ],
      "name": "sell_to_consumer",
      "outputs": [],
      "stateMutability": "payable",
      "type": "function",
      "payable": true
    },
    {
      "inputs": [
        {
          "internalType": "string",
          "name": "a",
          "type": "string"
        },
        {
          "internalType": "string",
          "name": "b",
          "type": "string"
        }
      ],
      "name": "compareStrings",
      "outputs": [
        {
          "internalType": "bool",
          "name": "",
          "type": "bool"
        }
      ],
      "stateMutability": "view",
      "type": "function",
      "constant": true
    },
    {
      "inputs": [
        {
          "internalType": "uint256",
          "name": "_id",
          "type": "uint256"
        },
        {
          "internalType": "uint256",
          "name": "safranal_content",
          "type": "uint256"
        }
      ],
      "name": "verify_auto",
      "outputs": [
        {
          "internalType": "bool",
          "name": "",
          "type": "bool"
        }
      ],
      "stateMutability": "nonpayable",
      "type": "function"
    },
    {
      "inputs": [
        {
          "internalType": "address",
          "name": "_add",
          "type": "address"
        }
      ],
      "name": "get_rep_score",
      "outputs": [
        {
          "internalType": "uint256",
          "name": "",
          "type": "uint256"
        }
      ],
      "stateMutability": "view",
      "type": "function",
      "constant": true
    },
    {
      "inputs": [
        {
          "internalType": "address",
          "name": "_add",
          "type": "address"
        }
      ],
      "name": "decrement_rep_score",
      "outputs": [],
      "stateMutability": "nonpayable",
      "type": "function"
    },
    {
      "inputs": [
        {
          "internalType": "address",
          "name": "_add",
          "type": "address"
        }
      ],
      "name": "increment_rep_score",
      "outputs": [],
      "stateMutability": "nonpayable",
      "type": "function"
    }
  ],
  "bytecode": "0x608060405260006004556000600a5534801561001a57600080fd5b50614be38061002a6000396000f3fe6080604052600436106102465760003560e01c8063834ff73911610139578063cf9168fc116100b6578063e6cf13461161007a578063e6cf134614610827578063eb5ba90f14610866578063edde8349146108ac578063efb605d0146108d7578063fc735e99146108f3578063ff0d50bb1461091e57610246565b8063cf9168fc1461076c578063d74b40fd14610795578063d7f57250146107be578063d826f88f146107e7578063e6bf3fdc146107fe57610246565b8063ac5da0b3116100fd578063ac5da0b314610689578063b9429069146106b2578063bed34bba146106ef578063c18658931461072c578063caca77461461074357610246565b8063834ff7391461058057806387088355146105bd5780638ec4f505146105fa5780638f0c86fa146106235780639a5c1ef11461066057610246565b80635ef5dd5a116101c75780637250e2241161018b5780637250e224146104c357806377f2d472146104ec578063793a8866146105175780637d0703f41461052e57806380c3f96d1461055757610246565b80635ef5dd5a146103b8578063687084db146103f55780636ba1be561461043257806370099ec81461045d57806370953fdf1461048657610246565b80631fed106f1161020e5780631fed106f146102f95780634dc415de1461032457806356cebd061461033b57806357c1f9e2146103525780635da09b881461037b57610246565b80630652bebf1461024b5780630e27e3df1461026757806310c43a1714610290578063112940f9146102b957806312424e3f146102e2575b600080fd5b61026560048036038101906102609190613c2a565b61093a565b005b34801561027357600080fd5b5061028e60048036038101906102899190613cb5565b610bb1565b005b34801561029c57600080fd5b506102b760048036038101906102b29190613e28565b610bbf565b005b3480156102c557600080fd5b506102e060048036038101906102db9190613cb5565b610bf5565b005b3480156102ee57600080fd5b506102f7610c03565b005b34801561030557600080fd5b5061030e610c60565b60405161031b9190613ec6565b60405180910390f35b34801561033057600080fd5b50610339610d16565b005b34801561034757600080fd5b50610350610d73565b005b34801561035e57600080fd5b5061037960048036038101906103749190613cb5565b610dc4565b005b34801561038757600080fd5b506103a2600480360381019061039d9190613cb5565b610dd2565b6040516103af9190613ec6565b60405180910390f35b3480156103c457600080fd5b506103df60048036038101906103da9190613cb5565b610de6565b6040516103ec9190613ef0565b60405180910390f35b34801561040157600080fd5b5061041c60048036038101906104179190613f0b565b610e2f565b6040516104299190613ec6565b60405180910390f35b34801561043e57600080fd5b50610447611972565b6040516104549190613ec6565b60405180910390f35b34801561046957600080fd5b50610484600480360381019061047f9190613cb5565b611a90565b005b34801561049257600080fd5b506104ad60048036038101906104a89190613f0b565b611a9e565b6040516104ba9190613ec6565b60405180910390f35b3480156104cf57600080fd5b506104ea60048036038101906104e59190613cb5565b611bdf565b005b3480156104f857600080fd5b50610501611bed565b60405161050e9190613ef0565b60405180910390f35b34801561052357600080fd5b5061052c611d95565b005b34801561053a57600080fd5b5061055560048036038101906105509190613c2a565b611fd8565b005b34801561056357600080fd5b5061057e60048036038101906105799190613cb5565b6121b5565b005b34801561058c57600080fd5b506105a760048036038101906105a29190613cb5565b6121c3565b6040516105b49190613ec6565b60405180910390f35b3480156105c957600080fd5b506105e460048036038101906105df9190613f0b565b6121d7565b6040516105f19190613ef0565b60405180910390f35b34801561060657600080fd5b50610621600480360381019061061c9190613cb5565b612283565b005b34801561062f57600080fd5b5061064a60048036038101906106459190613cb5565b612291565b6040516106579190613ec6565b60405180910390f35b34801561066c57600080fd5b5061068760048036038101906106829190613c2a565b6122a5565b005b34801561069557600080fd5b506106b060048036038101906106ab9190613f0b565b612482565b005b3480156106be57600080fd5b506106d960048036038101906106d49190613cb5565b612855565b6040516106e69190613ec6565b60405180910390f35b3480156106fb57600080fd5b5061071660048036038101906107119190613f4b565b612869565b6040516107239190613ec6565b60405180910390f35b34801561073857600080fd5b506107416128c2565b005b34801561074f57600080fd5b5061076a60048036038101906107659190613fc3565b612932565b005b34801561077857600080fd5b50610793600480360381019061078e9190613f0b565b612b3b565b005b3480156107a157600080fd5b506107bc60048036038101906107b79190613cb5565b612d34565b005b3480156107ca57600080fd5b506107e560048036038101906107e09190613cb5565b612d8c565b005b3480156107f357600080fd5b506107fc612de4565b005b34801561080a57600080fd5b5061082560048036038101906108209190613cb5565b612ef6565b005b34801561083357600080fd5b5061084e60048036038101906108499190613c2a565b612f04565b60405161085d9392919061401f565b60405180910390f35b34801561087257600080fd5b5061088d60048036038101906108889190613c2a565b612f3b565b6040516108a39a99989796959493929190614176565b60405180910390f35b3480156108b857600080fd5b506108c16130c4565b6040516108ce9190613ef0565b60405180910390f35b6108f160048036038101906108ec9190613f0b565b6130ca565b005b3480156108ff57600080fd5b506109086133ff565b6040516109159190613ec6565b60405180910390f35b61093860048036038101906109339190613f0b565b61341e565b005b80600115156010600083815260200190815260200160002060009054906101000a900460ff161515146109a2576040517f08c379a000000000000000000000000000000000000000000000000000000000815260040161099990614265565b60405180910390fd5b600f600083815260200190815260200160002060020154803410156109fc576040517f08c379a00000000000000000000000000000000000000000000000000000000081526004016109f3906142f7565b60405180910390fd5b33610a06816121c3565b610a45576040517f08c379a0000000000000000000000000000000000000000000000000000000008152600401610a3c90614363565b60405180910390fd5b600f600085815260200190815260200160002060070160009054906101000a900473ffffffffffffffffffffffffffffffffffffffff1673ffffffffffffffffffffffffffffffffffffffff166108fc349081150290604051600060405180830381858888f19350505050158015610ac1573d6000803e3d6000fd5b5033600f600086815260200190815260200160002060070160006101000a81548173ffffffffffffffffffffffffffffffffffffffff021916908373ffffffffffffffffffffffffffffffffffffffff16021790555033600f600086815260200190815260200160002060060160006101000a81548173ffffffffffffffffffffffffffffffffffffffff021916908373ffffffffffffffffffffffffffffffffffffffff1602179055506007600f600086815260200190815260200160002060070160146101000a81548160ff02191690836007811115610ba657610ba5614077565b5b021790555050505050565b610bbc600382613753565b50565b610bc98484612482565b610bd284611fd8565b610bdc8483612932565b610be5846122a5565b610bef8482612b3b565b50505050565b610c00600382613869565b50565b6001600d60003373ffffffffffffffffffffffffffffffffffffffff1673ffffffffffffffffffffffffffffffffffffffff16815260200190815260200160002060020160006101000a81548160ff021916908315150217905550565b600060056008805490501015610c7557600080fd5b60008060005b600880549050811015610d0a5760011515600c600060088481548110610ca457610ca3614383565b5b9060005260206000200154815260200190815260200160002060020160009054906101000a900460ff16151503610ce8578280610ce0906143e1565b935050610cf7565b8180610cf3906143e1565b9250505b8080610d02906143e1565b915050610c7b565b50808210159250505090565b6000600d60003373ffffffffffffffffffffffffffffffffffffffff1673ffffffffffffffffffffffffffffffffffffffff16815260200190815260200160002060020160006101000a81548160ff021916908315150217905550565b600060078054905090505b60008114610dc1576007805480610d9857610d97614429565b5b600190038181906000526020600020016000905590558080610db990614458565b915050610d7e565b50565b610dcf600182613753565b50565b6000610ddf600283613980565b9050919050565b6000600e60008373ffffffffffffffffffffffffffffffffffffffff1673ffffffffffffffffffffffffffffffffffffffff168152602001908152602001600020549050919050565b6000610e39612de4565b610e416128c2565b60005b600880549050811015611961576000610e5f606460016121d7565b9050601481106113df5760558410158015610f5a575060011515610f56600f60008881526020019081526020016000206008018054610e9d906144b0565b80601f0160208091040260200160405190810160405280929190818152602001828054610ec9906144b0565b8015610f165780601f10610eeb57610100808354040283529160200191610f16565b820191906000526020600020905b815481529060010190602001808311610ef957829003601f168201915b50505050506040518060400160405280600181526020017f4100000000000000000000000000000000000000000000000000000000000000815250612869565b1515145b15610fb1576001600c600060088581548110610f7957610f78614383565b5b9060005260206000200154815260200190815260200160002060020160006101000a81548160ff0219169083151502179055506113da565b604684101580156110a257506001151561109e600f60008881526020019081526020016000206008018054610fe5906144b0565b80601f0160208091040260200160405190810160405280929190818152602001828054611011906144b0565b801561105e5780601f106110335761010080835404028352916020019161105e565b820191906000526020600020905b81548152906001019060200180831161104157829003601f168201915b50505050506040518060400160405280600181526020017f4200000000000000000000000000000000000000000000000000000000000000815250612869565b1515145b156110f9576001600c6000600885815481106110c1576110c0614383565b5b9060005260206000200154815260200190815260200160002060020160006101000a81548160ff0219169083151502179055506113d9565b603c84101580156111ea5750600115156111e6600f6000888152602001908152602001600020600801805461112d906144b0565b80601f0160208091040260200160405190810160405280929190818152602001828054611159906144b0565b80156111a65780601f1061117b576101008083540402835291602001916111a6565b820191906000526020600020905b81548152906001019060200180831161118957829003601f168201915b50505050506040518060400160405280600181526020017f4300000000000000000000000000000000000000000000000000000000000000815250612869565b1515145b15611241576001600c60006008858154811061120957611208614383565b5b9060005260206000200154815260200190815260200160002060020160006101000a81548160ff0219169083151502179055506113d8565b6032841015801561133257506001151561132e600f60008881526020019081526020016000206008018054611275906144b0565b80601f01602080910402602001604051908101604052809291908181526020018280546112a1906144b0565b80156112ee5780601f106112c3576101008083540402835291602001916112ee565b820191906000526020600020905b8154815290600101906020018083116112d157829003601f168201915b50505050506040518060400160405280600181526020017f4400000000000000000000000000000000000000000000000000000000000000815250612869565b1515145b15611389576001600c60006008858154811061135157611350614383565b5b9060005260206000200154815260200190815260200160002060020160006101000a81548160ff0219169083151502179055506113d7565b6000600c6000600885815481106113a3576113a2614383565b5b9060005260206000200154815260200190815260200160002060020160006101000a81548160ff0219169083151502179055505b5b5b5b61194d565b6055841080156114cf5750600115156114cb600f60008881526020019081526020016000206008018054611412906144b0565b80601f016020809104026020016040519081016040528092919081815260200182805461143e906144b0565b801561148b5780601f106114605761010080835404028352916020019161148b565b820191906000526020600020905b81548152906001019060200180831161146e57829003601f168201915b50505050506040518060400160405280600181526020017f4100000000000000000000000000000000000000000000000000000000000000815250612869565b1515145b15611526576001600c6000600885815481106114ee576114ed614383565b5b9060005260206000200154815260200190815260200160002060020160006101000a81548160ff02191690831515021790555061194c565b604684108015611616575060011515611612600f60008881526020019081526020016000206008018054611559906144b0565b80601f0160208091040260200160405190810160405280929190818152602001828054611585906144b0565b80156115d25780601f106115a7576101008083540402835291602001916115d2565b820191906000526020600020905b8154815290600101906020018083116115b557829003601f168201915b50505050506040518060400160405280600181526020017f4200000000000000000000000000000000000000000000000000000000000000815250612869565b1515145b1561166d576001600c60006008858154811061163557611634614383565b5b9060005260206000200154815260200190815260200160002060020160006101000a81548160ff02191690831515021790555061194b565b603c8410801561175d575060011515611759600f600088815260200190815260200160002060080180546116a0906144b0565b80601f01602080910402602001604051908101604052809291908181526020018280546116cc906144b0565b80156117195780601f106116ee57610100808354040283529160200191611719565b820191906000526020600020905b8154815290600101906020018083116116fc57829003601f168201915b50505050506040518060400160405280600181526020017f4300000000000000000000000000000000000000000000000000000000000000815250612869565b1515145b156117b4576001600c60006008858154811061177c5761177b614383565b5b9060005260206000200154815260200190815260200160002060020160006101000a81548160ff02191690831515021790555061194a565b6032841080156118a45750600115156118a0600f600088815260200190815260200160002060080180546117e7906144b0565b80601f0160208091040260200160405190810160405280929190818152602001828054611813906144b0565b80156118605780601f1061183557610100808354040283529160200191611860565b820191906000526020600020905b81548152906001019060200180831161184357829003601f168201915b50505050506040518060400160405280600181526020017f4400000000000000000000000000000000000000000000000000000000000000815250612869565b1515145b156118fb576001600c6000600885815481106118c3576118c2614383565b5b9060005260206000200154815260200190815260200160002060020160006101000a81548160ff021916908315150217905550611949565b6000600c60006008858154811061191557611914614383565b5b9060005260206000200154815260200190815260200160002060020160006101000a81548160ff0219169083151502179055505b5b5b5b5b508080611959906143e1565b915050610e44565b5061196a611972565b905092915050565b60008061197d610c60565b905060005b600880549050811015611a8857600c6000600883815481106119a7576119a6614383565b5b9060005260206000200154815260200190815260200160002060020160009054906101000a900460ff16151582151503611a2a57600c6000600883815481106119f3576119f2614383565b5b906000526020600020015481526020019081526020016000206001016000815480929190611a20906143e1565b9190505550611a75565b600c600060088381548110611a4257611a41614383565b5b906000526020600020015481526020019081526020016000206001016000815480929190611a6f90614458565b91905055505b8080611a80906143e1565b915050611982565b508091505090565b611a9b600282613753565b50565b600080611aab8484610e2f565b90506000151581151503611b4957600e6000600f600087815260200190815260200160002060070160009054906101000a900473ffffffffffffffffffffffffffffffffffffffff1673ffffffffffffffffffffffffffffffffffffffff1673ffffffffffffffffffffffffffffffffffffffff1681526020019081526020016000206000815480929190611b3f90614458565b9190505550611bd5565b600e6000600f600087815260200190815260200160002060070160009054906101000a900473ffffffffffffffffffffffffffffffffffffffff1673ffffffffffffffffffffffffffffffffffffffff1673ffffffffffffffffffffffffffffffffffffffff1681526020019081526020016000206000815480929190611bcf906143e1565b91905055505b8091505092915050565b611bea600182613869565b50565b60008060005b600680549050811015611d0457600115156009600060068481548110611c1c57611c1b614383565b5b906000526020600020906003020160000154815260200190815260200160002060009054906101000a900460ff16151503611ceb5760068181548110611c6557611c64614383565b5b906000526020600020906003020160010154915060005b82811015611ce557600760068381548110611c9a57611c99614383565b5b90600052602060002090600302016000015490806001815401808255809150506001900390600052602060002001600090919091909150558080611cdd906143e1565b915050611c7c565b50611cf0565b611cf1565b5b8080611cfc906143e1565b915050611bf3565b506000611d236001600780549050611d1c91906144e1565b60006121d7565b905060006009600060078481548110611d3f57611d3e614383565b5b9060005260206000200154815260200190815260200160002060006101000a81548160ff02191690831515021790555060078181548110611d8357611d82614383565b5b90600052602060002001549250505090565b60001515600b60003373ffffffffffffffffffffffffffffffffffffffff1673ffffffffffffffffffffffffffffffffffffffff16815260200190815260200160002060009054906101000a900460ff16151514611df257600080fd5b6001600b60003373ffffffffffffffffffffffffffffffffffffffff1673ffffffffffffffffffffffffffffffffffffffff16815260200190815260200160002060006101000a81548160ff021916908315150217905550611e52613a47565b600a6000815480929190611e65906143e1565b91905055816000018181525050600181602001818152505080600c600083600001518152602001908152602001600020600082015181600001556020820151816001015560408201518160020160006101000a81548160ff0219169083151502179055509050506001600960008360000151815260200190815260200160002060006101000a81548160ff0219169083151502179055506006819080600181540180825580915050600190039060005260206000209060030201600090919091909150600082015181600001556020820151816001015560408201518160020160006101000a81548160ff021916908315150217905550505080600d60003373ffffffffffffffffffffffffffffffffffffffff1673ffffffffffffffffffffffffffffffffffffffff168152602001908152602001600020600082015181600001556020820151816001015560408201518160020160006101000a81548160ff02191690831515021790555090505050565b80600115156010600083815260200190815260200160002060009054906101000a900460ff16151514612040576040517f08c379a000000000000000000000000000000000000000000000000000000000815260040161203790614265565b60405180910390fd5b816000600781111561205557612054614077565b5b600f600083815260200190815260200160002060070160149054906101000a900460ff16600781111561208b5761208a614077565b5b146120cb576040517f08c379a00000000000000000000000000000000000000000000000000000000081526004016120c290614561565b60405180910390fd5b823373ffffffffffffffffffffffffffffffffffffffff16600f600083815260200190815260200160002060030160009054906101000a900473ffffffffffffffffffffffffffffffffffffffff1673ffffffffffffffffffffffffffffffffffffffff1614612170576040517f08c379a000000000000000000000000000000000000000000000000000000000815260040161216790614363565b60405180910390fd5b6001600f600086815260200190815260200160002060070160146101000a81548160ff021916908360078111156121aa576121a9614077565b5b021790555050505050565b6121c0600082613869565b50565b60006121d0600383613980565b9050919050565b6000600460008154809291906121ec906143e1565b91905055506064423360045460405160200161220a939291906145ea565b6040516020818303038152906040528051906020012060001c61222d9190614656565b6005819055506000606490506000838561224791906144e1565b9050838282600060055461225b91906144e1565b6122659190614687565b61226f91906146e1565b6122799190614712565b9250505092915050565b61228e600282613869565b50565b600061229e600183613980565b9050919050565b80600115156010600083815260200190815260200160002060009054906101000a900460ff1615151461230d576040517f08c379a000000000000000000000000000000000000000000000000000000000815260040161230490614265565b60405180910390fd5b816002600781111561232257612321614077565b5b600f600083815260200190815260200160002060070160149054906101000a900460ff16600781111561235857612357614077565b5b14612398576040517f08c379a000000000000000000000000000000000000000000000000000000000815260040161238f906147b4565b60405180910390fd5b823373ffffffffffffffffffffffffffffffffffffffff16600f600083815260200190815260200160002060030160009054906101000a900473ffffffffffffffffffffffffffffffffffffffff1673ffffffffffffffffffffffffffffffffffffffff161461243d576040517f08c379a000000000000000000000000000000000000000000000000000000000815260040161243490614363565b60405180910390fd5b6003600f600086815260200190815260200160002060070160146101000a81548160ff0219169083600781111561247757612476614077565b5b021790555050505050565b61248b33612855565b6124ca576040517f08c379a00000000000000000000000000000000000000000000000000000000081526004016124c190614846565b60405180910390fd5b6124d2613a6a565b828160000181815250508181602001818152505033816060019073ffffffffffffffffffffffffffffffffffffffff16908173ffffffffffffffffffffffffffffffffffffffff168152505080606001518160e0019073ffffffffffffffffffffffffffffffffffffffff16908173ffffffffffffffffffffffffffffffffffffffff16815250506000816080019073ffffffffffffffffffffffffffffffffffffffff16908173ffffffffffffffffffffffffffffffffffffffff168152505080608001518160a0019073ffffffffffffffffffffffffffffffffffffffff16908173ffffffffffffffffffffffffffffffffffffffff168152505080608001518160c0019073ffffffffffffffffffffffffffffffffffffffff16908173ffffffffffffffffffffffffffffffffffffffff16815250506000816101000190600781111561262557612624614077565b5b9081600781111561263957612638614077565b5b8152505080600f600085815260200190815260200160002060008201518160000155602082015181600101556040820151816002015560608201518160030160006101000a81548173ffffffffffffffffffffffffffffffffffffffff021916908373ffffffffffffffffffffffffffffffffffffffff16021790555060808201518160040160006101000a81548173ffffffffffffffffffffffffffffffffffffffff021916908373ffffffffffffffffffffffffffffffffffffffff16021790555060a08201518160050160006101000a81548173ffffffffffffffffffffffffffffffffffffffff021916908373ffffffffffffffffffffffffffffffffffffffff16021790555060c08201518160060160006101000a81548173ffffffffffffffffffffffffffffffffffffffff021916908373ffffffffffffffffffffffffffffffffffffffff16021790555060e08201518160070160006101000a81548173ffffffffffffffffffffffffffffffffffffffff021916908373ffffffffffffffffffffffffffffffffffffffff1602179055506101008201518160070160146101000a81548160ff021916908360078111156127fe576127fd614077565b5b0217905550610120820151816008019080519060200190612820929190613b3d565b5090505060016010600085815260200190815260200160002060006101000a81548160ff021916908315150217905550505050565b6000612862600083613980565b9050919050565b60008160405160200161287c91906148a2565b60405160208183030381529060405280519060200120836040516020016128a391906148a2565b6040516020818303038152906040528051906020012014905092915050565b600560068054905010156128d557600080fd5b6000600590505b6000811461292f5760086128ee611bed565b9080600181540180825580915050600190039060005260206000200160009091909190915055808061291f90614458565b91505061292a610d73565b6128dc565b50565b81600115156010600083815260200190815260200160002060009054906101000a900460ff1615151461299a576040517f08c379a000000000000000000000000000000000000000000000000000000000815260040161299190614265565b60405180910390fd5b82600160078111156129af576129ae614077565b5b600f600083815260200190815260200160002060070160149054906101000a900460ff1660078111156129e5576129e4614077565b5b14612a25576040517f08c379a0000000000000000000000000000000000000000000000000000000008152600401612a1c90614905565b60405180910390fd5b833373ffffffffffffffffffffffffffffffffffffffff16600f600083815260200190815260200160002060030160009054906101000a900473ffffffffffffffffffffffffffffffffffffffff1673ffffffffffffffffffffffffffffffffffffffff1614612aca576040517f08c379a0000000000000000000000000000000000000000000000000000000008152600401612ac190614363565b60405180910390fd5b83600f60008781526020019081526020016000206008019080519060200190612af4929190613b3d565b506002600f600087815260200190815260200160002060070160146101000a81548160ff02191690836007811115612b2f57612b2e614077565b5b02179055505050505050565b81600115156010600083815260200190815260200160002060009054906101000a900460ff16151514612ba3576040517f08c379a0000000000000000000000000000000000000000000000000000000008152600401612b9a90614265565b60405180910390fd5b8260036007811115612bb857612bb7614077565b5b600f600083815260200190815260200160002060070160149054906101000a900460ff166007811115612bee57612bed614077565b5b14612c2e576040517f08c379a0000000000000000000000000000000000000000000000000000000008152600401612c2590614971565b60405180910390fd5b833373ffffffffffffffffffffffffffffffffffffffff16600f600083815260200190815260200160002060030160009054906101000a900473ffffffffffffffffffffffffffffffffffffffff1673ffffffffffffffffffffffffffffffffffffffff1614612cd3576040517f08c379a0000000000000000000000000000000000000000000000000000000008152600401612cca90614363565b60405180910390fd5b6004600f600087815260200190815260200160002060070160146101000a81548160ff02191690836007811115612d0d57612d0c614077565b5b021790555083600f6000878152602001908152602001600020600201819055505050505050565b600e60008273ffffffffffffffffffffffffffffffffffffffff1673ffffffffffffffffffffffffffffffffffffffff1681526020019081526020016000206000815480929190612d8490614458565b919050555050565b600e60008273ffffffffffffffffffffffffffffffffffffffff1673ffffffffffffffffffffffffffffffffffffffff1681526020019081526020016000206000815480929190612ddc906143e1565b919050555050565b60005b600680549050811015612e585760016009600060068481548110612e0e57612e0d614383565b5b906000526020600020906003020160000154815260200190815260200160002060006101000a81548160ff0219169083151502179055508080612e50906143e1565b915050612de7565b50600060078054905090505b60008114612ea7576007805480612e7e57612e7d614429565b5b600190038181906000526020600020016000905590558080612e9f90614458565b915050612e64565b60088054905090505b60008114612ef3576008805480612eca57612ec9614429565b5b600190038181906000526020600020016000905590558080612eeb90614458565b915050612eb0565b50565b612f01600082613753565b50565b600c6020528060005260406000206000915090508060000154908060010154908060020160009054906101000a900460ff16905083565b600f6020528060005260406000206000915090508060000154908060010154908060020154908060030160009054906101000a900473ffffffffffffffffffffffffffffffffffffffff16908060040160009054906101000a900473ffffffffffffffffffffffffffffffffffffffff16908060050160009054906101000a900473ffffffffffffffffffffffffffffffffffffffff16908060060160009054906101000a900473ffffffffffffffffffffffffffffffffffffffff16908060070160009054906101000a900473ffffffffffffffffffffffffffffffffffffffff16908060070160149054906101000a900460ff1690806008018054613041906144b0565b80601f016020809104026020016040519081016040528092919081815260200182805461306d906144b0565b80156130ba5780601f1061308f576101008083540402835291602001916130ba565b820191906000526020600020905b81548152906001019060200180831161309d57829003601f168201915b505050505090508a565b60055481565b81600115156010600083815260200190815260200160002060009054906101000a900460ff16151514613132576040517f08c379a000000000000000000000000000000000000000000000000000000000815260040161312990614265565b60405180910390fd5b826004600781111561314757613146614077565b5b600f600083815260200190815260200160002060070160149054906101000a900460ff16600781111561317d5761317c614077565b5b146131bd576040517f08c379a00000000000000000000000000000000000000000000000000000000081526004016131b4906149dd565b60405180910390fd5b336131c781612291565b613206576040517f08c379a00000000000000000000000000000000000000000000000000000000081526004016131fd90614363565b60405180910390fd5b600f60008681526020019081526020016000206002015480341015613260576040517f08c379a0000000000000000000000000000000000000000000000000000000008152600401613257906142f7565b60405180910390fd5b600f600087815260200190815260200160002060070160009054906101000a900473ffffffffffffffffffffffffffffffffffffffff1673ffffffffffffffffffffffffffffffffffffffff166108fc600f6000898152602001908152602001600020600201549081150290604051600060405180830381858888f193505050501580156132f2573d6000803e3d6000fd5b5033600f600088815260200190815260200160002060070160006101000a81548173ffffffffffffffffffffffffffffffffffffffff021916908373ffffffffffffffffffffffffffffffffffffffff16021790555033600f600088815260200190815260200160002060040160006101000a81548173ffffffffffffffffffffffffffffffffffffffff021916908373ffffffffffffffffffffffffffffffffffffffff1602179055506005600f600088815260200190815260200160002060070160146101000a81548160ff021916908360078111156133d7576133d6614077565b5b021790555084600f600088815260200190815260200160002060020181905550505050505050565b6000613409612de4565b6134116128c2565b613419611972565b905090565b81600115156010600083815260200190815260200160002060009054906101000a900460ff16151514613486576040517f08c379a000000000000000000000000000000000000000000000000000000000815260040161347d90614265565b60405180910390fd5b600f600084815260200190815260200160002060020154803410156134e0576040517f08c379a00000000000000000000000000000000000000000000000000000000081526004016134d7906142f7565b60405180910390fd5b336134ea81610dd2565b613529576040517f08c379a000000000000000000000000000000000000000000000000000000000815260040161352090614363565b60405180910390fd5b846005600781111561353e5761353d614077565b5b600f600083815260200190815260200160002060070160149054906101000a900460ff16600781111561357457613573614077565b5b146135b4576040517f08c379a00000000000000000000000000000000000000000000000000000000081526004016135ab90614363565b60405180910390fd5b600f600087815260200190815260200160002060070160009054906101000a900473ffffffffffffffffffffffffffffffffffffffff1673ffffffffffffffffffffffffffffffffffffffff166108fc600f6000898152602001908152602001600020600201549081150290604051600060405180830381858888f19350505050158015613646573d6000803e3d6000fd5b5033600f600088815260200190815260200160002060070160006101000a81548173ffffffffffffffffffffffffffffffffffffffff021916908373ffffffffffffffffffffffffffffffffffffffff16021790555033600f600088815260200190815260200160002060050160006101000a81548173ffffffffffffffffffffffffffffffffffffffff021916908373ffffffffffffffffffffffffffffffffffffffff1602179055506006600f600088815260200190815260200160002060070160146101000a81548160ff0219169083600781111561372b5761372a614077565b5b021790555084600f600088815260200190815260200160002060020181905550505050505050565b600073ffffffffffffffffffffffffffffffffffffffff168173ffffffffffffffffffffffffffffffffffffffff16036137c2576040517f08c379a00000000000000000000000000000000000000000000000000000000081526004016137b990614a49565b60405180910390fd5b6137cc8282613980565b61380b576040517f08c379a000000000000000000000000000000000000000000000000000000000815260040161380290614ab5565b60405180910390fd5b60008260000160008373ffffffffffffffffffffffffffffffffffffffff1673ffffffffffffffffffffffffffffffffffffffff16815260200190815260200160002060006101000a81548160ff0219169083151502179055505050565b600073ffffffffffffffffffffffffffffffffffffffff168173ffffffffffffffffffffffffffffffffffffffff16036138d8576040517f08c379a00000000000000000000000000000000000000000000000000000000081526004016138cf90614a49565b60405180910390fd5b6138e28282613980565b15613922576040517f08c379a000000000000000000000000000000000000000000000000000000000815260040161391990614b21565b60405180910390fd5b60018260000160008373ffffffffffffffffffffffffffffffffffffffff1673ffffffffffffffffffffffffffffffffffffffff16815260200190815260200160002060006101000a81548160ff0219169083151502179055505050565b60008073ffffffffffffffffffffffffffffffffffffffff168273ffffffffffffffffffffffffffffffffffffffff16036139f0576040517f08c379a00000000000000000000000000000000000000000000000000000000081526004016139e790614b8d565b60405180910390fd5b8260000160008373ffffffffffffffffffffffffffffffffffffffff1673ffffffffffffffffffffffffffffffffffffffff16815260200190815260200160002060009054906101000a900460ff16905092915050565b604051806060016040528060008152602001600081526020016000151581525090565b604051806101400160405280600081526020016000815260200160008152602001600073ffffffffffffffffffffffffffffffffffffffff168152602001600073ffffffffffffffffffffffffffffffffffffffff168152602001600073ffffffffffffffffffffffffffffffffffffffff168152602001600073ffffffffffffffffffffffffffffffffffffffff168152602001600073ffffffffffffffffffffffffffffffffffffffff16815260200160006007811115613b3057613b2f614077565b5b8152602001606081525090565b828054613b49906144b0565b90600052602060002090601f016020900481019282613b6b5760008555613bb2565b82601f10613b8457805160ff1916838001178555613bb2565b82800160010185558215613bb2579182015b82811115613bb1578251825591602001919060010190613b96565b5b509050613bbf9190613bc3565b5090565b5b80821115613bdc576000816000905550600101613bc4565b5090565b6000604051905090565b600080fd5b600080fd5b6000819050919050565b613c0781613bf4565b8114613c1257600080fd5b50565b600081359050613c2481613bfe565b92915050565b600060208284031215613c4057613c3f613bea565b5b6000613c4e84828501613c15565b91505092915050565b600073ffffffffffffffffffffffffffffffffffffffff82169050919050565b6000613c8282613c57565b9050919050565b613c9281613c77565b8114613c9d57600080fd5b50565b600081359050613caf81613c89565b92915050565b600060208284031215613ccb57613cca613bea565b5b6000613cd984828501613ca0565b91505092915050565b600080fd5b600080fd5b6000601f19601f8301169050919050565b7f4e487b7100000000000000000000000000000000000000000000000000000000600052604160045260246000fd5b613d3582613cec565b810181811067ffffffffffffffff82111715613d5457613d53613cfd565b5b80604052505050565b6000613d67613be0565b9050613d738282613d2c565b919050565b600067ffffffffffffffff821115613d9357613d92613cfd565b5b613d9c82613cec565b9050602081019050919050565b82818337600083830152505050565b6000613dcb613dc684613d78565b613d5d565b905082815260208101848484011115613de757613de6613ce7565b5b613df2848285613da9565b509392505050565b600082601f830112613e0f57613e0e613ce2565b5b8135613e1f848260208601613db8565b91505092915050565b60008060008060808587031215613e4257613e41613bea565b5b6000613e5087828801613c15565b9450506020613e6187828801613c15565b935050604085013567ffffffffffffffff811115613e8257613e81613bef565b5b613e8e87828801613dfa565b9250506060613e9f87828801613c15565b91505092959194509250565b60008115159050919050565b613ec081613eab565b82525050565b6000602082019050613edb6000830184613eb7565b92915050565b613eea81613bf4565b82525050565b6000602082019050613f056000830184613ee1565b92915050565b60008060408385031215613f2257613f21613bea565b5b6000613f3085828601613c15565b9250506020613f4185828601613c15565b9150509250929050565b60008060408385031215613f6257613f61613bea565b5b600083013567ffffffffffffffff811115613f8057613f7f613bef565b5b613f8c85828601613dfa565b925050602083013567ffffffffffffffff811115613fad57613fac613bef565b5b613fb985828601613dfa565b9150509250929050565b60008060408385031215613fda57613fd9613bea565b5b6000613fe885828601613c15565b925050602083013567ffffffffffffffff81111561400957614008613bef565b5b61401585828601613dfa565b9150509250929050565b60006060820190506140346000830186613ee1565b6140416020830185613ee1565b61404e6040830184613eb7565b949350505050565b600061406182613c57565b9050919050565b61407181614056565b82525050565b7f4e487b7100000000000000000000000000000000000000000000000000000000600052602160045260246000fd5b600881106140b7576140b6614077565b5b50565b60008190506140c8826140a6565b919050565b60006140d8826140ba565b9050919050565b6140e8816140cd565b82525050565b600081519050919050565b600082825260208201905092915050565b60005b8381101561412857808201518184015260208101905061410d565b83811115614137576000848401525b50505050565b6000614148826140ee565b61415281856140f9565b935061416281856020860161410a565b61416b81613cec565b840191505092915050565b60006101408201905061418c600083018d613ee1565b614199602083018c613ee1565b6141a6604083018b613ee1565b6141b3606083018a614068565b6141c06080830189614068565b6141cd60a0830188614068565b6141da60c0830187614068565b6141e760e0830186614068565b6141f56101008301856140df565b818103610120830152614208818461413d565b90509b9a5050505050505050505050565b7f50726f6475637420646f65736e27742065786973740000000000000000000000600082015250565b600061424f6015836140f9565b915061425a82614219565b602082019050919050565b6000602082019050818103600083015261427e81614242565b9050919050565b7f54686520616d6f756e74206973206e6f742073756666696369656e7420746f2060008201527f627579207468652070726f647563740000000000000000000000000000000000602082015250565b60006142e1602f836140f9565b91506142ec82614285565b604082019050919050565b60006020820190508181036000830152614310816142d4565b9050919050565b7f4e6f7420617574686f72697a6564000000000000000000000000000000000000600082015250565b600061434d600e836140f9565b915061435882614317565b602082019050919050565b6000602082019050818103600083015261437c81614340565b9050919050565b7f4e487b7100000000000000000000000000000000000000000000000000000000600052603260045260246000fd5b7f4e487b7100000000000000000000000000000000000000000000000000000000600052601160045260246000fd5b60006143ec82613bf4565b91507fffffffffffffffffffffffffffffffffffffffffffffffffffffffffffffffff820361441e5761441d6143b2565b5b600182019050919050565b7f4e487b7100000000000000000000000000000000000000000000000000000000600052603160045260246000fd5b600061446382613bf4565b915060008203614476576144756143b2565b5b600182039050919050565b7f4e487b7100000000000000000000000000000000000000000000000000000000600052602260045260246000fd5b600060028204905060018216806144c857607f821691505b6020821081036144db576144da614481565b5b50919050565b60006144ec82613bf4565b91506144f783613bf4565b92508282101561450a576145096143b2565b5b828203905092915050565b7f53616666726f6e206973206e6f74206861727665737465640000000000000000600082015250565b600061454b6018836140f9565b915061455682614515565b602082019050919050565b6000602082019050818103600083015261457a8161453e565b9050919050565b6000819050919050565b61459c61459782613bf4565b614581565b82525050565b60008160601b9050919050565b60006145ba826145a2565b9050919050565b60006145cc826145af565b9050919050565b6145e46145df82613c77565b6145c1565b82525050565b60006145f6828661458b565b60208201915061460682856145d3565b601482019150614616828461458b565b602082019150819050949350505050565b7f4e487b7100000000000000000000000000000000000000000000000000000000600052601260045260246000fd5b600061466182613bf4565b915061466c83613bf4565b92508261467c5761467b614627565b5b828206905092915050565b600061469282613bf4565b915061469d83613bf4565b9250817fffffffffffffffffffffffffffffffffffffffffffffffffffffffffffffffff04831182151516156146d6576146d56143b2565b5b828202905092915050565b60006146ec82613bf4565b91506146f783613bf4565b92508261470757614706614627565b5b828204905092915050565b600061471d82613bf4565b915061472883613bf4565b9250827fffffffffffffffffffffffffffffffffffffffffffffffffffffffffffffffff0382111561475d5761475c6143b2565b5b828201905092915050565b7f53616666726f6e206973206e6f74206772616465640000000000000000000000600082015250565b600061479e6015836140f9565b91506147a982614768565b602082019050919050565b600060208201905081810360008301526147cd81614791565b9050919050565b7f596f7520617265206e6f7420617574686f72697a656420746f20706572666f7260008201527f6d2074686973206f7065726174696f6e00000000000000000000000000000000602082015250565b60006148306030836140f9565b915061483b826147d4565b604082019050919050565b6000602082019050818103600083015261485f81614823565b9050919050565b600081905092915050565b600061487c826140ee565b6148868185614866565b935061489681856020860161410a565b80840191505092915050565b60006148ae8284614871565b915081905092915050565b7f53616666726f6e206973206e6f74206472696564000000000000000000000000600082015250565b60006148ef6014836140f9565b91506148fa826148b9565b602082019050919050565b6000602082019050818103600083015261491e816148e2565b9050919050565b7f53616666726f6e206973206e6f74207061636b65640000000000000000000000600082015250565b600061495b6015836140f9565b915061496682614925565b602082019050919050565b6000602082019050818103600083015261498a8161494e565b9050919050565b7f4e6f7420666f722073616c650000000000000000000000000000000000000000600082015250565b60006149c7600c836140f9565b91506149d282614991565b602082019050919050565b600060208201905081810360008301526149f6816149ba565b9050919050565b7f416464726573732063616e6e6f74206265207a65726f00000000000000000000600082015250565b6000614a336016836140f9565b9150614a3e826149fd565b602082019050919050565b60006020820190508181036000830152614a6281614a26565b9050919050565b7f4d656d62657220646f6573206e6f742065786973740000000000000000000000600082015250565b6000614a9f6015836140f9565b9150614aaa82614a69565b602082019050919050565b60006020820190508181036000830152614ace81614a92565b9050919050565b7f416c726561647920526567697374657265640000000000000000000000000000600082015250565b6000614b0b6012836140f9565b9150614b1682614ad5565b602082019050919050565b60006020820190508181036000830152614b3a81614afe565b9050919050565b7f416464726573732063616e6e6f74206265207a65726f20616464726573730000600082015250565b6000614b77601e836140f9565b9150614b8282614b41565b602082019050919050565b60006020820190508181036000830152614ba681614b6a565b905091905056fea2646970667358221220ad51fef014b81894a132ac33b1127097429e282e70a18988db5fad56a0895fcc64736f6c634300080e0033",
  "immutableReferences": {},
  "source": "// SPDX-License-Identifier: GPL-3.0\r\npragma solidity >=0.7.0 <0.9.0;\r\n\r\nimport '../Roles/Farmer.sol';\r\nimport '../Roles/Distributor.sol';\r\nimport '../Roles/Retailer.sol';\r\nimport '../Roles/Consumer.sol';\r\nimport '../consensus/verify_random.sol';\r\n\r\ncontract SupplyChain is Farmer, Distributor, Retailer, Consumer, verify_random{\r\n\r\n    mapping(address => uint) rep_score;\r\n\r\n    enum State{\r\n        Harvested,\r\n        Dried,   \r\n        Graded,\r\n        Packed,\r\n        For_Sale,\r\n        with_distributor,\r\n        with_retailer,\r\n        with_consumer\r\n    }\r\n\r\n    struct Product{\r\n        uint id;\r\n        uint safranal_content;\r\n        uint price;\r\n        address payable farmer;\r\n        address payable distributor;\r\n        address payable retailer;\r\n        address payable consumer;\r\n        address payable Current_owner;\r\n        State state;\r\n        string grade;\r\n    }\r\n\r\n    mapping (uint => Product) public product_list;\r\n    mapping (uint => bool) existing;\r\n\r\n\r\n    modifier harvested(uint _id){\r\n        require(product_list[_id].state == State.Harvested, \"Saffron is not harvested\");\r\n        _;\r\n    }\r\n    \r\n    modifier dried(uint _id){\r\n        require(product_list[_id].state == State.Dried, \"Saffron is not dried\");\r\n        _;\r\n    }\r\n    \r\n    modifier graded(uint _id){\r\n        require(product_list[_id].state == State.Graded, \"Saffron is not graded\");\r\n        _;\r\n    }\r\n\r\n    modifier packed(uint _id){\r\n        require(product_list[_id].state == State.Packed, \"Saffron is not packed\");\r\n        _;\r\n    }\r\n\r\n    modifier exist(uint _id){\r\n        require(existing[_id] == true, \"Product doesn't exist\");\r\n        _;\r\n    }\r\n\r\n    modifier confirm_farmer(uint _id){\r\n        require(product_list[_id].farmer == msg.sender, \"Not authorized\");\r\n        _;\r\n    }\r\n\r\n    modifier only_distributor(address _add)\r\n    {\r\n        require(isDistributor(_add), \"Not authorized\");\r\n        _;\r\n    }\r\n\r\n    modifier only_retailer(address _add)\r\n    {\r\n        require(isRetailer(_add), \"Not authorized\");\r\n        _;\r\n    }\r\n\r\n    modifier forSale(uint _id){\r\n        require(product_list[_id].state == State.For_Sale, \"Not for sale\");\r\n        _;\r\n    }\r\n    \r\n    modifier paid_enough(uint _price) {\r\n        require(msg.value >= _price, \"The amount is not sufficient to buy the product\");\r\n        _;\r\n    }\r\n\r\n    modifier withDistributor(uint _id)\r\n    {\r\n        require(product_list[_id].state == State.with_distributor, \"Not authorized\");\r\n        _;\r\n    }\r\n\r\n    modifier only_consumer(address _add)\r\n    {\r\n        require(isConsumer(_add), \"Not authorized\");\r\n        _;\r\n    }\r\n\r\n    modifier canBuy(uint _id)\r\n    {\r\n        require(can_buy(_id), \"Item is not FOR SALE\");\r\n        _;\r\n    }\r\n\r\n    function can_buy(uint _id) internal view returns(bool)\r\n    {\r\n        if(product_list[_id].state == State.Packed || product_list[_id].state == State.with_distributor || product_list[_id].state == State.with_retailer)\r\n        {\r\n            return true;\r\n        }\r\n\r\n        return false; \r\n    }\r\n\r\n    function add_product(uint _id, uint saf_content, string memory _grade,uint _price) public\r\n    {\r\n        harvest_product(_id, saf_content);\r\n        dry_product(_id);\r\n        grading(_id, _grade);\r\n        packing(_id);\r\n        for_sale(_id, _price);\r\n    }\r\n\r\n    function harvest_product(uint _id, uint saf_content) public  {\r\n        require(isFarmer(msg.sender), \"You are not authorized to perform this operation\");\r\n        Product memory product;\r\n        product.id = _id;\r\n        product.safranal_content = saf_content;\r\n        product.farmer = payable(msg.sender);\r\n        product.Current_owner = product.farmer;\r\n        product.distributor = payable(address(0));\r\n        product.retailer = product.distributor;\r\n        product.consumer = product.distributor;\r\n        product.state = State.Harvested;\r\n        product_list[_id] = product;\r\n        existing[_id] = true;\r\n    }\r\n\r\n    function dry_product(uint _id) exist(_id) harvested(_id) confirm_farmer(_id) public{\r\n        product_list[_id].state = State.Dried;\r\n    }\r\n\r\n    function grading(uint _id, string memory _grade) exist(_id) dried(_id) confirm_farmer(_id) public{\r\n        product_list[_id].grade = _grade;\r\n        product_list[_id].state = State.Graded; \r\n    }\r\n    \r\n    function packing(uint _id) exist(_id) graded(_id) confirm_farmer(_id) public{\r\n        product_list[_id].state = State.Packed;\r\n    }\r\n    \r\n    function for_sale(uint _id, uint _price) exist(_id) packed(_id) confirm_farmer(_id) public{\r\n        product_list[_id].state = State.For_Sale;\r\n        product_list[_id].price = _price;\r\n    }\r\n\r\n    function get_response_from_verifiers (uint _id, uint safranal_content) public returns (bool)\r\n    {\r\n        bool confirmation = verify_auto(_id, safranal_content);\r\n        if(confirmation == false)\r\n        {\r\n            rep_score[product_list[_id].Current_owner] --;\r\n        }\r\n\r\n        else\r\n        {\r\n            rep_score[product_list[_id].Current_owner] ++;\r\n        }\r\n        return confirmation;\r\n    }\r\n\r\n    function sell_to_distributor(uint _id, uint new_price) exist(_id) forSale(_id) only_distributor(msg.sender) paid_enough(product_list[_id].price) public payable{\r\n        product_list[_id].Current_owner.transfer(product_list[_id].price);\r\n        product_list[_id].Current_owner = payable(msg.sender);\r\n        product_list[_id].distributor = payable(msg.sender);\r\n        product_list[_id].state = State.with_distributor;\r\n        product_list[_id].price = new_price; \r\n    }\r\n\r\n    function sell_to_retailer(uint _id, uint new_price) exist(_id) paid_enough(product_list[_id].price) only_retailer(msg.sender) withDistributor(_id) public payable\r\n    {\r\n        product_list[_id].Current_owner.transfer(product_list[_id].price);\r\n        product_list[_id].Current_owner = payable(msg.sender);\r\n        product_list[_id].retailer = payable(msg.sender);\r\n        product_list[_id].state = State.with_retailer;\r\n        product_list[_id].price = new_price;\r\n    }\r\n\r\n    function sell_to_consumer(uint _id) exist(_id) paid_enough(product_list[_id].price)  only_consumer(msg.sender)  public payable\r\n    {\r\n        product_list[_id].Current_owner.transfer(msg.value);\r\n        product_list[_id].Current_owner = payable(msg.sender);\r\n        product_list[_id].consumer = payable(msg.sender);\r\n        product_list[_id].state = State.with_consumer;\r\n    }\r\n\r\n    function compareStrings(string memory a, string memory b) public view returns (bool) {\r\n    return (keccak256(abi.encodePacked((a))) == keccak256(abi.encodePacked((b))));\r\n}\r\n\r\n    function verify_auto(uint _id, uint safranal_content) public returns(bool){\r\n        reset();\r\n        select_5_people();\r\n        for(uint i = 0; i < selected_5_verifiers.length; i++)\r\n        {\r\n            uint random_number = generate_random(100, 1);\r\n            if(random_number >= 20)\r\n            {\r\n                if(safranal_content >= 85 && compareStrings(product_list[_id].grade, 'A') == true)\r\n                {\r\n                    registered[selected_5_verifiers[i]].verdict = true;\r\n                }\r\n\r\n                else if(safranal_content >= 70 && compareStrings(product_list[_id].grade, 'B') == true)\r\n                {\r\n                    registered[selected_5_verifiers[i]].verdict = true;\r\n                }\r\n\r\n                else if(safranal_content >= 60 && compareStrings(product_list[_id].grade, 'C') == true)\r\n                {\r\n                    registered[selected_5_verifiers[i]].verdict = true;\r\n                }\r\n\r\n                else if(safranal_content >= 50 && compareStrings(product_list[_id].grade, 'D') == true)\r\n                {\r\n                    registered[selected_5_verifiers[i]].verdict = true;\r\n                }\r\n\r\n                else\r\n                {\r\n                    registered[selected_5_verifiers[i]].verdict = false;\r\n                } \r\n            }\r\n\r\n            else\r\n            {\r\n                if(safranal_content < 85 && compareStrings(product_list[_id].grade, 'A') == true)\r\n                {\r\n                    registered[selected_5_verifiers[i]].verdict = true;\r\n                }\r\n\r\n                else if(safranal_content < 70 && compareStrings(product_list[_id].grade, 'B') == true)\r\n                {\r\n                    registered[selected_5_verifiers[i]].verdict = true;\r\n                }\r\n\r\n                else if(safranal_content < 60 && compareStrings(product_list[_id].grade, 'C') == true)\r\n                {\r\n                    registered[selected_5_verifiers[i]].verdict = true;\r\n                }\r\n\r\n                else if(safranal_content < 50 && compareStrings(product_list[_id].grade, 'D') == true)\r\n                {\r\n                    registered[selected_5_verifiers[i]].verdict = true;\r\n                }\r\n\r\n                else\r\n                {\r\n                    registered[selected_5_verifiers[i]].verdict = false;\r\n                } \r\n            }\r\n        }\r\n        return update_score();\r\n    }\r\n\r\n    function get_rep_score(address _add) public view returns (uint)\r\n    {\r\n        return rep_score[_add];\r\n    }\r\n\r\n    function decrement_rep_score(address _add) public\r\n    {\r\n        rep_score[_add] --;\r\n    }\r\n\r\n    function increment_rep_score(address _add) public\r\n    {\r\n        rep_score[_add] ++;\r\n    }\r\n\r\n}",
  "sourcePath": "F:/project/SS_Project (2)/SS_Project/contracts/SupplyChain/SupplyChain.sol",
  "compiler": {
    "name": "solc",
    "version": "0.8.14+commit.80d49f37.Emscripten.clang"
  },
  "schemaVersion": "3.3.4",
  "updatedAt": "2022-06-13T16:16:25.624Z",
  "networkType": "ethereum",
  "devdoc": {
    "kind": "dev",
    "methods": {},
    "version": 1
  },
  "userdoc": {
    "kind": "user",
    "methods": {},
    "version": 1
  }
}