{
  "contractName": "SupplyChain",
  "abi": [
    {
      "inputs": [
        {
          "internalType": "address",
          "name": "_add",
          "type": "address"
        }
      ],
      "name": "addConsumer",
      "outputs": [],
      "stateMutability": "nonpayable",
      "type": "function"
    },
    {
      "inputs": [
        {
          "internalType": "address",
          "name": "_add",
          "type": "address"
        }
      ],
      "name": "addDistributor",
      "outputs": [],
      "stateMutability": "nonpayable",
      "type": "function"
    },
    {
      "inputs": [
        {
          "internalType": "address",
          "name": "_add",
          "type": "address"
        }
      ],
      "name": "addFarmer",
      "outputs": [],
      "stateMutability": "nonpayable",
      "type": "function"
    },
    {
      "inputs": [
        {
          "internalType": "address",
          "name": "_add",
          "type": "address"
        }
      ],
      "name": "addRetailer",
      "outputs": [],
      "stateMutability": "nonpayable",
      "type": "function"
    },
    {
      "inputs": [],
      "name": "approve",
      "outputs": [],
      "stateMutability": "nonpayable",
      "type": "function"
    },
    {
      "inputs": [],
      "name": "choose_final_verdict",
      "outputs": [
        {
          "internalType": "bool",
          "name": "",
          "type": "bool"
        }
      ],
      "stateMutability": "view",
      "type": "function",
      "constant": true
    },
    {
      "inputs": [],
      "name": "clear_pred_arr",
      "outputs": [],
      "stateMutability": "nonpayable",
      "type": "function"
    },
    {
      "inputs": [],
      "name": "fill_pred_arr",
      "outputs": [
        {
          "internalType": "uint256",
          "name": "",
          "type": "uint256"
        }
      ],
      "stateMutability": "nonpayable",
      "type": "function"
    },
    {
      "inputs": [
        {
          "internalType": "uint256",
          "name": "num_max",
          "type": "uint256"
        },
        {
          "internalType": "uint256",
          "name": "num_min",
          "type": "uint256"
        }
      ],
      "name": "generate_random",
      "outputs": [
        {
          "internalType": "uint256",
          "name": "",
          "type": "uint256"
        }
      ],
      "stateMutability": "nonpayable",
      "type": "function"
    },
    {
      "inputs": [
        {
          "internalType": "address",
          "name": "_add",
          "type": "address"
        }
      ],
      "name": "isConsumer",
      "outputs": [
        {
          "internalType": "bool",
          "name": "",
          "type": "bool"
        }
      ],
      "stateMutability": "view",
      "type": "function",
      "constant": true
    },
    {
      "inputs": [
        {
          "internalType": "address",
          "name": "_add",
          "type": "address"
        }
      ],
      "name": "isDistributor",
      "outputs": [
        {
          "internalType": "bool",
          "name": "",
          "type": "bool"
        }
      ],
      "stateMutability": "view",
      "type": "function",
      "constant": true
    },
    {
      "inputs": [
        {
          "internalType": "address",
          "name": "_add",
          "type": "address"
        }
      ],
      "name": "isFarmer",
      "outputs": [
        {
          "internalType": "bool",
          "name": "",
          "type": "bool"
        }
      ],
      "stateMutability": "view",
      "type": "function",
      "constant": true
    },
    {
      "inputs": [
        {
          "internalType": "address",
          "name": "_add",
          "type": "address"
        }
      ],
      "name": "isRetailer",
      "outputs": [
        {
          "internalType": "bool",
          "name": "",
          "type": "bool"
        }
      ],
      "stateMutability": "view",
      "type": "function",
      "constant": true
    },
    {
      "inputs": [
        {
          "internalType": "uint256",
          "name": "",
          "type": "uint256"
        }
      ],
      "name": "product_list",
      "outputs": [
        {
          "internalType": "uint256",
          "name": "id",
          "type": "uint256"
        },
        {
          "internalType": "uint256",
          "name": "safranal_content",
          "type": "uint256"
        },
        {
          "internalType": "uint256",
          "name": "price",
          "type": "uint256"
        },
        {
          "internalType": "address payable",
          "name": "farmer",
          "type": "address"
        },
        {
          "internalType": "address payable",
          "name": "distributor",
          "type": "address"
        },
        {
          "internalType": "address payable",
          "name": "retailer",
          "type": "address"
        },
        {
          "internalType": "address payable",
          "name": "consumer",
          "type": "address"
        },
        {
          "internalType": "address payable",
          "name": "Current_owner",
          "type": "address"
        },
        {
          "internalType": "enum SupplyChain.State",
          "name": "state",
          "type": "uint8"
        },
        {
          "internalType": "string",
          "name": "grade",
          "type": "string"
        }
      ],
      "stateMutability": "view",
      "type": "function",
      "constant": true
    },
    {
      "inputs": [],
      "name": "random_num",
      "outputs": [
        {
          "internalType": "uint256",
          "name": "",
          "type": "uint256"
        }
      ],
      "stateMutability": "view",
      "type": "function",
      "constant": true
    },
    {
      "inputs": [
        {
          "internalType": "uint256",
          "name": "",
          "type": "uint256"
        }
      ],
      "name": "registered",
      "outputs": [
        {
          "internalType": "uint256",
          "name": "id",
          "type": "uint256"
        },
        {
          "internalType": "uint256",
          "name": "rep_score",
          "type": "uint256"
        },
        {
          "internalType": "bool",
          "name": "verdict",
          "type": "bool"
        }
      ],
      "stateMutability": "view",
      "type": "function",
      "constant": true
    },
    {
      "inputs": [],
      "name": "reject",
      "outputs": [],
      "stateMutability": "nonpayable",
      "type": "function"
    },
    {
      "inputs": [
        {
          "internalType": "address",
          "name": "_add",
          "type": "address"
        }
      ],
      "name": "removeConsumer",
      "outputs": [],
      "stateMutability": "nonpayable",
      "type": "function"
    },
    {
      "inputs": [
        {
          "internalType": "address",
          "name": "_add",
          "type": "address"
        }
      ],
      "name": "removeDistributor",
      "outputs": [],
      "stateMutability": "nonpayable",
      "type": "function"
    },
    {
      "inputs": [
        {
          "internalType": "address",
          "name": "_add",
          "type": "address"
        }
      ],
      "name": "removeFarmer",
      "outputs": [],
      "stateMutability": "nonpayable",
      "type": "function"
    },
    {
      "inputs": [
        {
          "internalType": "address",
          "name": "_add",
          "type": "address"
        }
      ],
      "name": "removeRetailer",
      "outputs": [],
      "stateMutability": "nonpayable",
      "type": "function"
    },
    {
      "inputs": [],
      "name": "reset",
      "outputs": [],
      "stateMutability": "nonpayable",
      "type": "function"
    },
    {
      "inputs": [],
      "name": "select_5_people",
      "outputs": [],
      "stateMutability": "nonpayable",
      "type": "function"
    },
    {
      "inputs": [],
      "name": "update_score",
      "outputs": [
        {
          "internalType": "bool",
          "name": "",
          "type": "bool"
        }
      ],
      "stateMutability": "nonpayable",
      "type": "function"
    },
    {
      "inputs": [],
      "name": "ver_register",
      "outputs": [],
      "stateMutability": "nonpayable",
      "type": "function"
    },
    {
      "inputs": [],
      "name": "verify",
      "outputs": [
        {
          "internalType": "bool",
          "name": "",
          "type": "bool"
        }
      ],
      "stateMutability": "nonpayable",
      "type": "function"
    },
    {
      "inputs": [
        {
          "internalType": "uint256",
          "name": "_id",
          "type": "uint256"
        },
        {
          "internalType": "uint256",
          "name": "saf_content",
          "type": "uint256"
        },
        {
          "internalType": "string",
          "name": "_grade",
          "type": "string"
        },
        {
          "internalType": "uint256",
          "name": "_price",
          "type": "uint256"
        }
      ],
      "name": "add_product",
      "outputs": [],
      "stateMutability": "nonpayable",
      "type": "function"
    },
    {
      "inputs": [
        {
          "internalType": "uint256",
          "name": "_id",
          "type": "uint256"
        },
        {
          "internalType": "uint256",
          "name": "saf_content",
          "type": "uint256"
        }
      ],
      "name": "harvest_product",
      "outputs": [],
      "stateMutability": "nonpayable",
      "type": "function"
    },
    {
      "inputs": [
        {
          "internalType": "uint256",
          "name": "_id",
          "type": "uint256"
        }
      ],
      "name": "dry_product",
      "outputs": [],
      "stateMutability": "nonpayable",
      "type": "function"
    },
    {
      "inputs": [
        {
          "internalType": "uint256",
          "name": "_id",
          "type": "uint256"
        },
        {
          "internalType": "string",
          "name": "_grade",
          "type": "string"
        }
      ],
      "name": "grading",
      "outputs": [],
      "stateMutability": "nonpayable",
      "type": "function"
    },
    {
      "inputs": [
        {
          "internalType": "uint256",
          "name": "_id",
          "type": "uint256"
        }
      ],
      "name": "packing",
      "outputs": [],
      "stateMutability": "nonpayable",
      "type": "function"
    },
    {
      "inputs": [
        {
          "internalType": "uint256",
          "name": "_id",
          "type": "uint256"
        },
        {
          "internalType": "uint256",
          "name": "_price",
          "type": "uint256"
        }
      ],
      "name": "for_sale",
      "outputs": [],
      "stateMutability": "nonpayable",
      "type": "function"
    },
    {
      "inputs": [
        {
          "internalType": "uint256",
          "name": "_id",
          "type": "uint256"
        },
        {
          "internalType": "uint256",
          "name": "safranal_content",
          "type": "uint256"
        }
      ],
      "name": "get_response_from_verifiers",
      "outputs": [
        {
          "internalType": "bool",
          "name": "",
          "type": "bool"
        }
      ],
      "stateMutability": "nonpayable",
      "type": "function"
    },
    {
      "inputs": [
        {
          "internalType": "uint256",
          "name": "_id",
          "type": "uint256"
        }
      ],
      "name": "sell_to_distributor",
      "outputs": [],
      "stateMutability": "payable",
      "type": "function",
      "payable": true
    },
    {
      "inputs": [
        {
          "internalType": "uint256",
          "name": "_id",
          "type": "uint256"
        }
      ],
      "name": "sell_to_retailer",
      "outputs": [],
      "stateMutability": "payable",
      "type": "function",
      "payable": true
    },
    {
      "inputs": [
        {
          "internalType": "uint256",
          "name": "_id",
          "type": "uint256"
        }
      ],
      "name": "sell_to_consumer",
      "outputs": [],
      "stateMutability": "payable",
      "type": "function",
      "payable": true
    },
    {
      "inputs": [
        {
          "internalType": "string",
          "name": "a",
          "type": "string"
        },
        {
          "internalType": "string",
          "name": "b",
          "type": "string"
        }
      ],
      "name": "compareStrings",
      "outputs": [
        {
          "internalType": "bool",
          "name": "",
          "type": "bool"
        }
      ],
      "stateMutability": "view",
      "type": "function",
      "constant": true
    },
    {
      "inputs": [
        {
          "internalType": "uint256",
          "name": "_id",
          "type": "uint256"
        },
        {
          "internalType": "uint256",
          "name": "safranal_content",
          "type": "uint256"
        }
      ],
      "name": "verify_auto",
      "outputs": [
        {
          "internalType": "bool",
          "name": "",
          "type": "bool"
        }
      ],
      "stateMutability": "nonpayable",
      "type": "function"
    }
  ],
  "bytecode": "0x608060405260006004556000600a5534801561001a57600080fd5b506149c68061002a6000396000f3fe6080604052600436106102255760003560e01c806380c3f96d11610123578063c1865893116100ab578063e6cf13461161006f578063e6cf134614610793578063eb5ba90f146107d2578063edde834914610818578063eefbb33f14610843578063fc735e991461085f57610225565b8063c1865893146106ea578063caca774614610701578063cf9168fc1461072a578063d826f88f14610753578063e6bf3fdc1461076a57610225565b80638f0c86fa116100f25780638f0c86fa146105e15780639a5c1ef11461061e578063ac5da0b314610647578063b942906914610670578063bed34bba146106ad57610225565b806380c3f96d14610515578063834ff7391461053e578063870883551461057b5780638ec4f505146105b857610225565b80635da09b88116101b15780637250e224116101755780637250e2241461046557806376da31c51461048e57806377f2d472146104aa578063793a8866146104d55780637d0703f4146104ec57610225565b80635da09b881461035a578063687084db146103975780636ba1be56146103d457806370099ec8146103ff57806370953fdf1461042857610225565b806312424e3f116101f857806312424e3f146102c15780631fed106f146102d85780634dc415de1461030357806356cebd061461031a57806357c1f9e21461033157610225565b80630652bebf1461022a5780630e27e3df1461024657806310c43a171461026f578063112940f914610298575b600080fd5b610244600480360381019061023f9190613a9f565b61088a565b005b34801561025257600080fd5b5061026d60048036038101906102689190613b2a565b610b8d565b005b34801561027b57600080fd5b5061029660048036038101906102919190613c9d565b610b9b565b005b3480156102a457600080fd5b506102bf60048036038101906102ba9190613b2a565b610bd1565b005b3480156102cd57600080fd5b506102d6610bdf565b005b3480156102e457600080fd5b506102ed610c3c565b6040516102fa9190613d3b565b60405180910390f35b34801561030f57600080fd5b50610318610cf2565b005b34801561032657600080fd5b5061032f610d4f565b005b34801561033d57600080fd5b5061035860048036038101906103539190613b2a565b610da0565b005b34801561036657600080fd5b50610381600480360381019061037c9190613b2a565b610dae565b60405161038e9190613d3b565b60405180910390f35b3480156103a357600080fd5b506103be60048036038101906103b99190613d56565b610dc2565b6040516103cb9190613d3b565b60405180910390f35b3480156103e057600080fd5b506103e9611905565b6040516103f69190613d3b565b60405180910390f35b34801561040b57600080fd5b5061042660048036038101906104219190613b2a565b611a23565b005b34801561043457600080fd5b5061044f600480360381019061044a9190613d56565b611a31565b60405161045c9190613d3b565b60405180910390f35b34801561047157600080fd5b5061048c60048036038101906104879190613b2a565b611b72565b005b6104a860048036038101906104a39190613a9f565b611b80565b005b3480156104b657600080fd5b506104bf611e99565b6040516104cc9190613da5565b60405180910390f35b3480156104e157600080fd5b506104ea612041565b005b3480156104f857600080fd5b50610513600480360381019061050e9190613a9f565b612284565b005b34801561052157600080fd5b5061053c60048036038101906105379190613b2a565b612461565b005b34801561054a57600080fd5b5061056560048036038101906105609190613b2a565b61246f565b6040516105729190613d3b565b60405180910390f35b34801561058757600080fd5b506105a2600480360381019061059d9190613d56565b612483565b6040516105af9190613da5565b60405180910390f35b3480156105c457600080fd5b506105df60048036038101906105da9190613b2a565b61252f565b005b3480156105ed57600080fd5b5061060860048036038101906106039190613b2a565b61253d565b6040516106159190613d3b565b60405180910390f35b34801561062a57600080fd5b5061064560048036038101906106409190613a9f565b612551565b005b34801561065357600080fd5b5061066e60048036038101906106699190613d56565b61272e565b005b34801561067c57600080fd5b5061069760048036038101906106929190613b2a565b612acb565b6040516106a49190613d3b565b60405180910390f35b3480156106b957600080fd5b506106d460048036038101906106cf9190613dc0565b612adf565b6040516106e19190613d3b565b60405180910390f35b3480156106f657600080fd5b506106ff612b38565b005b34801561070d57600080fd5b5061072860048036038101906107239190613e38565b612ba8565b005b34801561073657600080fd5b50610751600480360381019061074c9190613d56565b612db1565b005b34801561075f57600080fd5b50610768612faa565b005b34801561077657600080fd5b50610791600480360381019061078c9190613b2a565b6130bc565b005b34801561079f57600080fd5b506107ba60048036038101906107b59190613a9f565b6130ca565b6040516107c993929190613e94565b60405180910390f35b3480156107de57600080fd5b506107f960048036038101906107f49190613a9f565b613101565b60405161080f9a99989796959493929190613feb565b60405180910390f35b34801561082457600080fd5b5061082d61328a565b60405161083a9190613da5565b60405180910390f35b61085d60048036038101906108589190613a9f565b613290565b005b34801561086b57600080fd5b506108746135a9565b6040516108819190613d3b565b60405180910390f35b80600115156010600083815260200190815260200160002060009054906101000a900460ff161515146108f2576040517f08c379a00000000000000000000000000000000000000000000000000000000081526004016108e9906140da565b60405180910390fd5b816004600781111561090757610906613eec565b5b600f600083815260200190815260200160002060070160149054906101000a900460ff16600781111561093d5761093c613eec565b5b1461097d576040517f08c379a000000000000000000000000000000000000000000000000000000000815260040161097490614146565b60405180910390fd5b600f600084815260200190815260200160002060020154803410156109d7576040517f08c379a00000000000000000000000000000000000000000000000000000000081526004016109ce906141d8565b60405180910390fd5b336109e18161246f565b610a20576040517f08c379a0000000000000000000000000000000000000000000000000000000008152600401610a1790614244565b60405180910390fd5b600f600086815260200190815260200160002060070160009054906101000a900473ffffffffffffffffffffffffffffffffffffffff1673ffffffffffffffffffffffffffffffffffffffff166108fc349081150290604051600060405180830381858888f19350505050158015610a9c573d6000803e3d6000fd5b5033600f600087815260200190815260200160002060070160006101000a81548173ffffffffffffffffffffffffffffffffffffffff021916908373ffffffffffffffffffffffffffffffffffffffff16021790555033600f600087815260200190815260200160002060060160006101000a81548173ffffffffffffffffffffffffffffffffffffffff021916908373ffffffffffffffffffffffffffffffffffffffff1602179055506007600f600087815260200190815260200160002060070160146101000a81548160ff02191690836007811115610b8157610b80613eec565b5b02179055505050505050565b610b986003826135c8565b50565b610ba5848461272e565b610bae84612284565b610bb88483612ba8565b610bc184612551565b610bcb8482612db1565b50505050565b610bdc6003826136de565b50565b6001600d60003373ffffffffffffffffffffffffffffffffffffffff1673ffffffffffffffffffffffffffffffffffffffff16815260200190815260200160002060020160006101000a81548160ff021916908315150217905550565b600060056008805490501015610c5157600080fd5b60008060005b600880549050811015610ce65760011515600c600060088481548110610c8057610c7f614264565b5b9060005260206000200154815260200190815260200160002060020160009054906101000a900460ff16151503610cc4578280610cbc906142c2565b935050610cd3565b8180610ccf906142c2565b9250505b8080610cde906142c2565b915050610c57565b50808210159250505090565b6000600d60003373ffffffffffffffffffffffffffffffffffffffff1673ffffffffffffffffffffffffffffffffffffffff16815260200190815260200160002060020160006101000a81548160ff021916908315150217905550565b600060078054905090505b60008114610d9d576007805480610d7457610d7361430a565b5b600190038181906000526020600020016000905590558080610d9590614339565b915050610d5a565b50565b610dab6001826135c8565b50565b6000610dbb6002836137f5565b9050919050565b6000610dcc612faa565b610dd4612b38565b60005b6008805490508110156118f4576000610df260646001612483565b9050601481106113725760558410158015610eed575060011515610ee9600f60008881526020019081526020016000206008018054610e3090614391565b80601f0160208091040260200160405190810160405280929190818152602001828054610e5c90614391565b8015610ea95780601f10610e7e57610100808354040283529160200191610ea9565b820191906000526020600020905b815481529060010190602001808311610e8c57829003601f168201915b50505050506040518060400160405280600181526020017f4100000000000000000000000000000000000000000000000000000000000000815250612adf565b1515145b15610f44576001600c600060088581548110610f0c57610f0b614264565b5b9060005260206000200154815260200190815260200160002060020160006101000a81548160ff02191690831515021790555061136d565b60468410158015611035575060011515611031600f60008881526020019081526020016000206008018054610f7890614391565b80601f0160208091040260200160405190810160405280929190818152602001828054610fa490614391565b8015610ff15780601f10610fc657610100808354040283529160200191610ff1565b820191906000526020600020905b815481529060010190602001808311610fd457829003601f168201915b50505050506040518060400160405280600181526020017f4200000000000000000000000000000000000000000000000000000000000000815250612adf565b1515145b1561108c576001600c60006008858154811061105457611053614264565b5b9060005260206000200154815260200190815260200160002060020160006101000a81548160ff02191690831515021790555061136c565b603c841015801561117d575060011515611179600f600088815260200190815260200160002060080180546110c090614391565b80601f01602080910402602001604051908101604052809291908181526020018280546110ec90614391565b80156111395780601f1061110e57610100808354040283529160200191611139565b820191906000526020600020905b81548152906001019060200180831161111c57829003601f168201915b50505050506040518060400160405280600181526020017f4300000000000000000000000000000000000000000000000000000000000000815250612adf565b1515145b156111d4576001600c60006008858154811061119c5761119b614264565b5b9060005260206000200154815260200190815260200160002060020160006101000a81548160ff02191690831515021790555061136b565b603284101580156112c55750600115156112c1600f6000888152602001908152602001600020600801805461120890614391565b80601f016020809104026020016040519081016040528092919081815260200182805461123490614391565b80156112815780601f1061125657610100808354040283529160200191611281565b820191906000526020600020905b81548152906001019060200180831161126457829003601f168201915b50505050506040518060400160405280600181526020017f4400000000000000000000000000000000000000000000000000000000000000815250612adf565b1515145b1561131c576001600c6000600885815481106112e4576112e3614264565b5b9060005260206000200154815260200190815260200160002060020160006101000a81548160ff02191690831515021790555061136a565b6000600c60006008858154811061133657611335614264565b5b9060005260206000200154815260200190815260200160002060020160006101000a81548160ff0219169083151502179055505b5b5b5b6118e0565b60558410801561146257506001151561145e600f600088815260200190815260200160002060080180546113a590614391565b80601f01602080910402602001604051908101604052809291908181526020018280546113d190614391565b801561141e5780601f106113f35761010080835404028352916020019161141e565b820191906000526020600020905b81548152906001019060200180831161140157829003601f168201915b50505050506040518060400160405280600181526020017f4100000000000000000000000000000000000000000000000000000000000000815250612adf565b1515145b156114b9576001600c60006008858154811061148157611480614264565b5b9060005260206000200154815260200190815260200160002060020160006101000a81548160ff0219169083151502179055506118df565b6046841080156115a95750600115156115a5600f600088815260200190815260200160002060080180546114ec90614391565b80601f016020809104026020016040519081016040528092919081815260200182805461151890614391565b80156115655780601f1061153a57610100808354040283529160200191611565565b820191906000526020600020905b81548152906001019060200180831161154857829003601f168201915b50505050506040518060400160405280600181526020017f4200000000000000000000000000000000000000000000000000000000000000815250612adf565b1515145b15611600576001600c6000600885815481106115c8576115c7614264565b5b9060005260206000200154815260200190815260200160002060020160006101000a81548160ff0219169083151502179055506118de565b603c841080156116f05750600115156116ec600f6000888152602001908152602001600020600801805461163390614391565b80601f016020809104026020016040519081016040528092919081815260200182805461165f90614391565b80156116ac5780601f10611681576101008083540402835291602001916116ac565b820191906000526020600020905b81548152906001019060200180831161168f57829003601f168201915b50505050506040518060400160405280600181526020017f4300000000000000000000000000000000000000000000000000000000000000815250612adf565b1515145b15611747576001600c60006008858154811061170f5761170e614264565b5b9060005260206000200154815260200190815260200160002060020160006101000a81548160ff0219169083151502179055506118dd565b603284108015611837575060011515611833600f6000888152602001908152602001600020600801805461177a90614391565b80601f01602080910402602001604051908101604052809291908181526020018280546117a690614391565b80156117f35780601f106117c8576101008083540402835291602001916117f3565b820191906000526020600020905b8154815290600101906020018083116117d657829003601f168201915b50505050506040518060400160405280600181526020017f4400000000000000000000000000000000000000000000000000000000000000815250612adf565b1515145b1561188e576001600c60006008858154811061185657611855614264565b5b9060005260206000200154815260200190815260200160002060020160006101000a81548160ff0219169083151502179055506118dc565b6000600c6000600885815481106118a8576118a7614264565b5b9060005260206000200154815260200190815260200160002060020160006101000a81548160ff0219169083151502179055505b5b5b5b5b5080806118ec906142c2565b915050610dd7565b506118fd611905565b905092915050565b600080611910610c3c565b905060005b600880549050811015611a1b57600c60006008838154811061193a57611939614264565b5b9060005260206000200154815260200190815260200160002060020160009054906101000a900460ff161515821515036119bd57600c60006008838154811061198657611985614264565b5b9060005260206000200154815260200190815260200160002060010160008154809291906119b3906142c2565b9190505550611a08565b600c6000600883815481106119d5576119d4614264565b5b906000526020600020015481526020019081526020016000206001016000815480929190611a0290614339565b91905055505b8080611a13906142c2565b915050611915565b508091505090565b611a2e6002826135c8565b50565b600080611a3e8484610dc2565b90506000151581151503611adc57600e6000600f600087815260200190815260200160002060070160009054906101000a900473ffffffffffffffffffffffffffffffffffffffff1673ffffffffffffffffffffffffffffffffffffffff1673ffffffffffffffffffffffffffffffffffffffff1681526020019081526020016000206000815480929190611ad290614339565b9190505550611b68565b600e6000600f600087815260200190815260200160002060070160009054906101000a900473ffffffffffffffffffffffffffffffffffffffff1673ffffffffffffffffffffffffffffffffffffffff1673ffffffffffffffffffffffffffffffffffffffff1681526020019081526020016000206000815480929190611b62906142c2565b91905055505b8091505092915050565b611b7d6001826136de565b50565b80600115156010600083815260200190815260200160002060009054906101000a900460ff16151514611be8576040517f08c379a0000000000000000000000000000000000000000000000000000000008152600401611bdf906140da565b60405180910390fd5b600f60008381526020019081526020016000206002015480341015611c42576040517f08c379a0000000000000000000000000000000000000000000000000000000008152600401611c39906141d8565b60405180910390fd5b33611c4c81610dae565b611c8b576040517f08c379a0000000000000000000000000000000000000000000000000000000008152600401611c8290614244565b60405180910390fd5b8360056007811115611ca057611c9f613eec565b5b600f600083815260200190815260200160002060070160149054906101000a900460ff166007811115611cd657611cd5613eec565b5b14611d16576040517f08c379a0000000000000000000000000000000000000000000000000000000008152600401611d0d90614244565b60405180910390fd5b600f600086815260200190815260200160002060070160009054906101000a900473ffffffffffffffffffffffffffffffffffffffff1673ffffffffffffffffffffffffffffffffffffffff166108fc600f6000888152602001908152602001600020600201549081150290604051600060405180830381858888f19350505050158015611da8573d6000803e3d6000fd5b5033600f600087815260200190815260200160002060070160006101000a81548173ffffffffffffffffffffffffffffffffffffffff021916908373ffffffffffffffffffffffffffffffffffffffff16021790555033600f600087815260200190815260200160002060050160006101000a81548173ffffffffffffffffffffffffffffffffffffffff021916908373ffffffffffffffffffffffffffffffffffffffff1602179055506006600f600087815260200190815260200160002060070160146101000a81548160ff02191690836007811115611e8d57611e8c613eec565b5b02179055505050505050565b60008060005b600680549050811015611fb057600115156009600060068481548110611ec857611ec7614264565b5b906000526020600020906003020160000154815260200190815260200160002060009054906101000a900460ff16151503611f975760068181548110611f1157611f10614264565b5b906000526020600020906003020160010154915060005b82811015611f9157600760068381548110611f4657611f45614264565b5b90600052602060002090600302016000015490806001815401808255809150506001900390600052602060002001600090919091909150558080611f89906142c2565b915050611f28565b50611f9c565b611f9d565b5b8080611fa8906142c2565b915050611e9f565b506000611fcf6001600780549050611fc891906143c2565b6000612483565b905060006009600060078481548110611feb57611fea614264565b5b9060005260206000200154815260200190815260200160002060006101000a81548160ff0219169083151502179055506007818154811061202f5761202e614264565b5b90600052602060002001549250505090565b60001515600b60003373ffffffffffffffffffffffffffffffffffffffff1673ffffffffffffffffffffffffffffffffffffffff16815260200190815260200160002060009054906101000a900460ff1615151461209e57600080fd5b6001600b60003373ffffffffffffffffffffffffffffffffffffffff1673ffffffffffffffffffffffffffffffffffffffff16815260200190815260200160002060006101000a81548160ff0219169083151502179055506120fe6138bc565b600a6000815480929190612111906142c2565b91905055816000018181525050600181602001818152505080600c600083600001518152602001908152602001600020600082015181600001556020820151816001015560408201518160020160006101000a81548160ff0219169083151502179055509050506001600960008360000151815260200190815260200160002060006101000a81548160ff0219169083151502179055506006819080600181540180825580915050600190039060005260206000209060030201600090919091909150600082015181600001556020820151816001015560408201518160020160006101000a81548160ff021916908315150217905550505080600d60003373ffffffffffffffffffffffffffffffffffffffff1673ffffffffffffffffffffffffffffffffffffffff168152602001908152602001600020600082015181600001556020820151816001015560408201518160020160006101000a81548160ff02191690831515021790555090505050565b80600115156010600083815260200190815260200160002060009054906101000a900460ff161515146122ec576040517f08c379a00000000000000000000000000000000000000000000000000000000081526004016122e3906140da565b60405180910390fd5b816000600781111561230157612300613eec565b5b600f600083815260200190815260200160002060070160149054906101000a900460ff16600781111561233757612336613eec565b5b14612377576040517f08c379a000000000000000000000000000000000000000000000000000000000815260040161236e90614442565b60405180910390fd5b823373ffffffffffffffffffffffffffffffffffffffff16600f600083815260200190815260200160002060030160009054906101000a900473ffffffffffffffffffffffffffffffffffffffff1673ffffffffffffffffffffffffffffffffffffffff161461241c576040517f08c379a000000000000000000000000000000000000000000000000000000000815260040161241390614244565b60405180910390fd5b6001600f600086815260200190815260200160002060070160146101000a81548160ff0219169083600781111561245657612455613eec565b5b021790555050505050565b61246c6000826136de565b50565b600061247c6003836137f5565b9050919050565b600060046000815480929190612498906142c2565b9190505550606442336004546040516020016124b6939291906144cb565b6040516020818303038152906040528051906020012060001c6124d99190614537565b600581905550600060649050600083856124f391906143c2565b9050838282600060055461250791906143c2565b6125119190614568565b61251b91906145c2565b61252591906145f3565b9250505092915050565b61253a6002826136de565b50565b600061254a6001836137f5565b9050919050565b80600115156010600083815260200190815260200160002060009054906101000a900460ff161515146125b9576040517f08c379a00000000000000000000000000000000000000000000000000000000081526004016125b0906140da565b60405180910390fd5b81600260078111156125ce576125cd613eec565b5b600f600083815260200190815260200160002060070160149054906101000a900460ff16600781111561260457612603613eec565b5b14612644576040517f08c379a000000000000000000000000000000000000000000000000000000000815260040161263b90614695565b60405180910390fd5b823373ffffffffffffffffffffffffffffffffffffffff16600f600083815260200190815260200160002060030160009054906101000a900473ffffffffffffffffffffffffffffffffffffffff1673ffffffffffffffffffffffffffffffffffffffff16146126e9576040517f08c379a00000000000000000000000000000000000000000000000000000000081526004016126e090614244565b60405180910390fd5b6003600f600086815260200190815260200160002060070160146101000a81548160ff0219169083600781111561272357612722613eec565b5b021790555050505050565b61273733612acb565b61274057600080fd5b6127486138df565b828160000181815250508181602001818152505033816060019073ffffffffffffffffffffffffffffffffffffffff16908173ffffffffffffffffffffffffffffffffffffffff168152505080606001518160e0019073ffffffffffffffffffffffffffffffffffffffff16908173ffffffffffffffffffffffffffffffffffffffff16815250506000816080019073ffffffffffffffffffffffffffffffffffffffff16908173ffffffffffffffffffffffffffffffffffffffff168152505080608001518160a0019073ffffffffffffffffffffffffffffffffffffffff16908173ffffffffffffffffffffffffffffffffffffffff168152505080608001518160c0019073ffffffffffffffffffffffffffffffffffffffff16908173ffffffffffffffffffffffffffffffffffffffff16815250506000816101000190600781111561289b5761289a613eec565b5b908160078111156128af576128ae613eec565b5b8152505080600f600085815260200190815260200160002060008201518160000155602082015181600101556040820151816002015560608201518160030160006101000a81548173ffffffffffffffffffffffffffffffffffffffff021916908373ffffffffffffffffffffffffffffffffffffffff16021790555060808201518160040160006101000a81548173ffffffffffffffffffffffffffffffffffffffff021916908373ffffffffffffffffffffffffffffffffffffffff16021790555060a08201518160050160006101000a81548173ffffffffffffffffffffffffffffffffffffffff021916908373ffffffffffffffffffffffffffffffffffffffff16021790555060c08201518160060160006101000a81548173ffffffffffffffffffffffffffffffffffffffff021916908373ffffffffffffffffffffffffffffffffffffffff16021790555060e08201518160070160006101000a81548173ffffffffffffffffffffffffffffffffffffffff021916908373ffffffffffffffffffffffffffffffffffffffff1602179055506101008201518160070160146101000a81548160ff02191690836007811115612a7457612a73613eec565b5b0217905550610120820151816008019080519060200190612a969291906139b2565b5090505060016010600085815260200190815260200160002060006101000a81548160ff021916908315150217905550505050565b6000612ad86000836137f5565b9050919050565b600081604051602001612af291906146f1565b6040516020818303038152906040528051906020012083604051602001612b1991906146f1565b6040516020818303038152906040528051906020012014905092915050565b60056006805490501015612b4b57600080fd5b6000600590505b60008114612ba5576008612b64611e99565b90806001815401808255809150506001900390600052602060002001600090919091909150558080612b9590614339565b915050612ba0610d4f565b612b52565b50565b81600115156010600083815260200190815260200160002060009054906101000a900460ff16151514612c10576040517f08c379a0000000000000000000000000000000000000000000000000000000008152600401612c07906140da565b60405180910390fd5b8260016007811115612c2557612c24613eec565b5b600f600083815260200190815260200160002060070160149054906101000a900460ff166007811115612c5b57612c5a613eec565b5b14612c9b576040517f08c379a0000000000000000000000000000000000000000000000000000000008152600401612c9290614754565b60405180910390fd5b833373ffffffffffffffffffffffffffffffffffffffff16600f600083815260200190815260200160002060030160009054906101000a900473ffffffffffffffffffffffffffffffffffffffff1673ffffffffffffffffffffffffffffffffffffffff1614612d40576040517f08c379a0000000000000000000000000000000000000000000000000000000008152600401612d3790614244565b60405180910390fd5b83600f60008781526020019081526020016000206008019080519060200190612d6a9291906139b2565b506002600f600087815260200190815260200160002060070160146101000a81548160ff02191690836007811115612da557612da4613eec565b5b02179055505050505050565b81600115156010600083815260200190815260200160002060009054906101000a900460ff16151514612e19576040517f08c379a0000000000000000000000000000000000000000000000000000000008152600401612e10906140da565b60405180910390fd5b8260036007811115612e2e57612e2d613eec565b5b600f600083815260200190815260200160002060070160149054906101000a900460ff166007811115612e6457612e63613eec565b5b14612ea4576040517f08c379a0000000000000000000000000000000000000000000000000000000008152600401612e9b906147c0565b60405180910390fd5b833373ffffffffffffffffffffffffffffffffffffffff16600f600083815260200190815260200160002060030160009054906101000a900473ffffffffffffffffffffffffffffffffffffffff1673ffffffffffffffffffffffffffffffffffffffff1614612f49576040517f08c379a0000000000000000000000000000000000000000000000000000000008152600401612f4090614244565b60405180910390fd5b6004600f600087815260200190815260200160002060070160146101000a81548160ff02191690836007811115612f8357612f82613eec565b5b021790555083600f6000878152602001908152602001600020600201819055505050505050565b60005b60068054905081101561301e5760016009600060068481548110612fd457612fd3614264565b5b906000526020600020906003020160000154815260200190815260200160002060006101000a81548160ff0219169083151502179055508080613016906142c2565b915050612fad565b50600060078054905090505b6000811461306d5760078054806130445761304361430a565b5b60019003818190600052602060002001600090559055808061306590614339565b91505061302a565b60088054905090505b600081146130b95760088054806130905761308f61430a565b5b6001900381819060005260206000200160009055905580806130b190614339565b915050613076565b50565b6130c76000826135c8565b50565b600c6020528060005260406000206000915090508060000154908060010154908060020160009054906101000a900460ff16905083565b600f6020528060005260406000206000915090508060000154908060010154908060020154908060030160009054906101000a900473ffffffffffffffffffffffffffffffffffffffff16908060040160009054906101000a900473ffffffffffffffffffffffffffffffffffffffff16908060050160009054906101000a900473ffffffffffffffffffffffffffffffffffffffff16908060060160009054906101000a900473ffffffffffffffffffffffffffffffffffffffff16908060070160009054906101000a900473ffffffffffffffffffffffffffffffffffffffff16908060070160149054906101000a900460ff169080600801805461320790614391565b80601f016020809104026020016040519081016040528092919081815260200182805461323390614391565b80156132805780601f1061325557610100808354040283529160200191613280565b820191906000526020600020905b81548152906001019060200180831161326357829003601f168201915b505050505090508a565b60055481565b80600115156010600083815260200190815260200160002060009054906101000a900460ff161515146132f8576040517f08c379a00000000000000000000000000000000000000000000000000000000081526004016132ef906140da565b60405180910390fd5b816004600781111561330d5761330c613eec565b5b600f600083815260200190815260200160002060070160149054906101000a900460ff16600781111561334357613342613eec565b5b14613383576040517f08c379a000000000000000000000000000000000000000000000000000000000815260040161337a90614146565b60405180910390fd5b3361338d8161253d565b6133cc576040517f08c379a00000000000000000000000000000000000000000000000000000000081526004016133c390614244565b60405180910390fd5b600f60008581526020019081526020016000206002015480341015613426576040517f08c379a000000000000000000000000000000000000000000000000000000000815260040161341d906141d8565b60405180910390fd5b600f600086815260200190815260200160002060070160009054906101000a900473ffffffffffffffffffffffffffffffffffffffff1673ffffffffffffffffffffffffffffffffffffffff166108fc600f6000888152602001908152602001600020600201549081150290604051600060405180830381858888f193505050501580156134b8573d6000803e3d6000fd5b5033600f600087815260200190815260200160002060070160006101000a81548173ffffffffffffffffffffffffffffffffffffffff021916908373ffffffffffffffffffffffffffffffffffffffff16021790555033600f600087815260200190815260200160002060040160006101000a81548173ffffffffffffffffffffffffffffffffffffffff021916908373ffffffffffffffffffffffffffffffffffffffff1602179055506005600f600087815260200190815260200160002060070160146101000a81548160ff0219169083600781111561359d5761359c613eec565b5b02179055505050505050565b60006135b3612faa565b6135bb612b38565b6135c3611905565b905090565b600073ffffffffffffffffffffffffffffffffffffffff168173ffffffffffffffffffffffffffffffffffffffff1603613637576040517f08c379a000000000000000000000000000000000000000000000000000000000815260040161362e9061482c565b60405180910390fd5b61364182826137f5565b613680576040517f08c379a000000000000000000000000000000000000000000000000000000000815260040161367790614898565b60405180910390fd5b60008260000160008373ffffffffffffffffffffffffffffffffffffffff1673ffffffffffffffffffffffffffffffffffffffff16815260200190815260200160002060006101000a81548160ff0219169083151502179055505050565b600073ffffffffffffffffffffffffffffffffffffffff168173ffffffffffffffffffffffffffffffffffffffff160361374d576040517f08c379a00000000000000000000000000000000000000000000000000000000081526004016137449061482c565b60405180910390fd5b61375782826137f5565b15613797576040517f08c379a000000000000000000000000000000000000000000000000000000000815260040161378e90614904565b60405180910390fd5b60018260000160008373ffffffffffffffffffffffffffffffffffffffff1673ffffffffffffffffffffffffffffffffffffffff16815260200190815260200160002060006101000a81548160ff0219169083151502179055505050565b60008073ffffffffffffffffffffffffffffffffffffffff168273ffffffffffffffffffffffffffffffffffffffff1603613865576040517f08c379a000000000000000000000000000000000000000000000000000000000815260040161385c90614970565b60405180910390fd5b8260000160008373ffffffffffffffffffffffffffffffffffffffff1673ffffffffffffffffffffffffffffffffffffffff16815260200190815260200160002060009054906101000a900460ff16905092915050565b604051806060016040528060008152602001600081526020016000151581525090565b604051806101400160405280600081526020016000815260200160008152602001600073ffffffffffffffffffffffffffffffffffffffff168152602001600073ffffffffffffffffffffffffffffffffffffffff168152602001600073ffffffffffffffffffffffffffffffffffffffff168152602001600073ffffffffffffffffffffffffffffffffffffffff168152602001600073ffffffffffffffffffffffffffffffffffffffff168152602001600060078111156139a5576139a4613eec565b5b8152602001606081525090565b8280546139be90614391565b90600052602060002090601f0160209004810192826139e05760008555613a27565b82601f106139f957805160ff1916838001178555613a27565b82800160010185558215613a27579182015b82811115613a26578251825591602001919060010190613a0b565b5b509050613a349190613a38565b5090565b5b80821115613a51576000816000905550600101613a39565b5090565b6000604051905090565b600080fd5b600080fd5b6000819050919050565b613a7c81613a69565b8114613a8757600080fd5b50565b600081359050613a9981613a73565b92915050565b600060208284031215613ab557613ab4613a5f565b5b6000613ac384828501613a8a565b91505092915050565b600073ffffffffffffffffffffffffffffffffffffffff82169050919050565b6000613af782613acc565b9050919050565b613b0781613aec565b8114613b1257600080fd5b50565b600081359050613b2481613afe565b92915050565b600060208284031215613b4057613b3f613a5f565b5b6000613b4e84828501613b15565b91505092915050565b600080fd5b600080fd5b6000601f19601f8301169050919050565b7f4e487b7100000000000000000000000000000000000000000000000000000000600052604160045260246000fd5b613baa82613b61565b810181811067ffffffffffffffff82111715613bc957613bc8613b72565b5b80604052505050565b6000613bdc613a55565b9050613be88282613ba1565b919050565b600067ffffffffffffffff821115613c0857613c07613b72565b5b613c1182613b61565b9050602081019050919050565b82818337600083830152505050565b6000613c40613c3b84613bed565b613bd2565b905082815260208101848484011115613c5c57613c5b613b5c565b5b613c67848285613c1e565b509392505050565b600082601f830112613c8457613c83613b57565b5b8135613c94848260208601613c2d565b91505092915050565b60008060008060808587031215613cb757613cb6613a5f565b5b6000613cc587828801613a8a565b9450506020613cd687828801613a8a565b935050604085013567ffffffffffffffff811115613cf757613cf6613a64565b5b613d0387828801613c6f565b9250506060613d1487828801613a8a565b91505092959194509250565b60008115159050919050565b613d3581613d20565b82525050565b6000602082019050613d506000830184613d2c565b92915050565b60008060408385031215613d6d57613d6c613a5f565b5b6000613d7b85828601613a8a565b9250506020613d8c85828601613a8a565b9150509250929050565b613d9f81613a69565b82525050565b6000602082019050613dba6000830184613d96565b92915050565b60008060408385031215613dd757613dd6613a5f565b5b600083013567ffffffffffffffff811115613df557613df4613a64565b5b613e0185828601613c6f565b925050602083013567ffffffffffffffff811115613e2257613e21613a64565b5b613e2e85828601613c6f565b9150509250929050565b60008060408385031215613e4f57613e4e613a5f565b5b6000613e5d85828601613a8a565b925050602083013567ffffffffffffffff811115613e7e57613e7d613a64565b5b613e8a85828601613c6f565b9150509250929050565b6000606082019050613ea96000830186613d96565b613eb66020830185613d96565b613ec36040830184613d2c565b949350505050565b6000613ed682613acc565b9050919050565b613ee681613ecb565b82525050565b7f4e487b7100000000000000000000000000000000000000000000000000000000600052602160045260246000fd5b60088110613f2c57613f2b613eec565b5b50565b6000819050613f3d82613f1b565b919050565b6000613f4d82613f2f565b9050919050565b613f5d81613f42565b82525050565b600081519050919050565b600082825260208201905092915050565b60005b83811015613f9d578082015181840152602081019050613f82565b83811115613fac576000848401525b50505050565b6000613fbd82613f63565b613fc78185613f6e565b9350613fd7818560208601613f7f565b613fe081613b61565b840191505092915050565b600061014082019050614001600083018d613d96565b61400e602083018c613d96565b61401b604083018b613d96565b614028606083018a613edd565b6140356080830189613edd565b61404260a0830188613edd565b61404f60c0830187613edd565b61405c60e0830186613edd565b61406a610100830185613f54565b81810361012083015261407d8184613fb2565b90509b9a5050505050505050505050565b7f50726f6475637420646f65736e27742065786973740000000000000000000000600082015250565b60006140c4601583613f6e565b91506140cf8261408e565b602082019050919050565b600060208201905081810360008301526140f3816140b7565b9050919050565b7f4e6f7420666f722073616c650000000000000000000000000000000000000000600082015250565b6000614130600c83613f6e565b915061413b826140fa565b602082019050919050565b6000602082019050818103600083015261415f81614123565b9050919050565b7f54686520616d6f756e74206973206e6f742073756666696369656e7420746f2060008201527f627579207468652070726f647563740000000000000000000000000000000000602082015250565b60006141c2602f83613f6e565b91506141cd82614166565b604082019050919050565b600060208201905081810360008301526141f1816141b5565b9050919050565b7f4e6f7420617574686f72697a6564000000000000000000000000000000000000600082015250565b600061422e600e83613f6e565b9150614239826141f8565b602082019050919050565b6000602082019050818103600083015261425d81614221565b9050919050565b7f4e487b7100000000000000000000000000000000000000000000000000000000600052603260045260246000fd5b7f4e487b7100000000000000000000000000000000000000000000000000000000600052601160045260246000fd5b60006142cd82613a69565b91507fffffffffffffffffffffffffffffffffffffffffffffffffffffffffffffffff82036142ff576142fe614293565b5b600182019050919050565b7f4e487b7100000000000000000000000000000000000000000000000000000000600052603160045260246000fd5b600061434482613a69565b91506000820361435757614356614293565b5b600182039050919050565b7f4e487b7100000000000000000000000000000000000000000000000000000000600052602260045260246000fd5b600060028204905060018216806143a957607f821691505b6020821081036143bc576143bb614362565b5b50919050565b60006143cd82613a69565b91506143d883613a69565b9250828210156143eb576143ea614293565b5b828203905092915050565b7f53616666726f6e206973206e6f74206861727665737465640000000000000000600082015250565b600061442c601883613f6e565b9150614437826143f6565b602082019050919050565b6000602082019050818103600083015261445b8161441f565b9050919050565b6000819050919050565b61447d61447882613a69565b614462565b82525050565b60008160601b9050919050565b600061449b82614483565b9050919050565b60006144ad82614490565b9050919050565b6144c56144c082613aec565b6144a2565b82525050565b60006144d7828661446c565b6020820191506144e782856144b4565b6014820191506144f7828461446c565b602082019150819050949350505050565b7f4e487b7100000000000000000000000000000000000000000000000000000000600052601260045260246000fd5b600061454282613a69565b915061454d83613a69565b92508261455d5761455c614508565b5b828206905092915050565b600061457382613a69565b915061457e83613a69565b9250817fffffffffffffffffffffffffffffffffffffffffffffffffffffffffffffffff04831182151516156145b7576145b6614293565b5b828202905092915050565b60006145cd82613a69565b91506145d883613a69565b9250826145e8576145e7614508565b5b828204905092915050565b60006145fe82613a69565b915061460983613a69565b9250827fffffffffffffffffffffffffffffffffffffffffffffffffffffffffffffffff0382111561463e5761463d614293565b5b828201905092915050565b7f53616666726f6e206973206e6f74206772616465640000000000000000000000600082015250565b600061467f601583613f6e565b915061468a82614649565b602082019050919050565b600060208201905081810360008301526146ae81614672565b9050919050565b600081905092915050565b60006146cb82613f63565b6146d581856146b5565b93506146e5818560208601613f7f565b80840191505092915050565b60006146fd82846146c0565b915081905092915050565b7f53616666726f6e206973206e6f74206472696564000000000000000000000000600082015250565b600061473e601483613f6e565b915061474982614708565b602082019050919050565b6000602082019050818103600083015261476d81614731565b9050919050565b7f53616666726f6e206973206e6f74207061636b65640000000000000000000000600082015250565b60006147aa601583613f6e565b91506147b582614774565b602082019050919050565b600060208201905081810360008301526147d98161479d565b9050919050565b7f416464726573732063616e6e6f74206265207a65726f00000000000000000000600082015250565b6000614816601683613f6e565b9150614821826147e0565b602082019050919050565b6000602082019050818103600083015261484581614809565b9050919050565b7f4d656d62657220646f6573206e6f742065786973740000000000000000000000600082015250565b6000614882601583613f6e565b915061488d8261484c565b602082019050919050565b600060208201905081810360008301526148b181614875565b9050919050565b7f416c726561647920526567697374657265640000000000000000000000000000600082015250565b60006148ee601283613f6e565b91506148f9826148b8565b602082019050919050565b6000602082019050818103600083015261491d816148e1565b9050919050565b7f416464726573732063616e6e6f74206265207a65726f20616464726573730000600082015250565b600061495a601e83613f6e565b915061496582614924565b602082019050919050565b600060208201905081810360008301526149898161494d565b905091905056fea2646970667358221220d7f7d4ab42833771794f5d2fbe7c60ff1b6089a58a0e5681a1862803f940c4e364736f6c634300080e0033",
  "immutableReferences": {},
  "source": "// SPDX-License-Identifier: GPL-3.0\r\npragma solidity >=0.7.0 <0.9.0;\r\n\r\nimport '../Roles/Farmer.sol';\r\nimport '../Roles/Distributor.sol';\r\nimport '../Roles/Retailer.sol';\r\nimport '../Roles/Consumer.sol';\r\nimport '../consensus/verify_random.sol';\r\n\r\ncontract SupplyChain is Farmer, Distributor, Retailer, Consumer, verify_random{\r\n\r\n    mapping(address => uint) rep_score;\r\n\r\n    enum State{\r\n        Harvested,\r\n        Dried,   \r\n        Graded,\r\n        Packed,\r\n        For_Sale,\r\n        with_distributor,\r\n        with_retailer,\r\n        with_consumer\r\n    }\r\n\r\n    struct Product{\r\n        uint id;\r\n        uint safranal_content;\r\n        uint price;\r\n        address payable farmer;\r\n        address payable distributor;\r\n        address payable retailer;\r\n        address payable consumer;\r\n        address payable Current_owner;\r\n        State state;\r\n        string grade;\r\n    }\r\n\r\n    mapping (uint => Product) public product_list;\r\n    mapping (uint => bool) existing;\r\n\r\n\r\n    modifier harvested(uint _id){\r\n        require(product_list[_id].state == State.Harvested, \"Saffron is not harvested\");\r\n        _;\r\n    }\r\n    \r\n    modifier dried(uint _id){\r\n        require(product_list[_id].state == State.Dried, \"Saffron is not dried\");\r\n        _;\r\n    }\r\n    \r\n    modifier graded(uint _id){\r\n        require(product_list[_id].state == State.Graded, \"Saffron is not graded\");\r\n        _;\r\n    }\r\n\r\n    modifier packed(uint _id){\r\n        require(product_list[_id].state == State.Packed, \"Saffron is not packed\");\r\n        _;\r\n    }\r\n\r\n    modifier exist(uint _id){\r\n        require(existing[_id] == true, \"Product doesn't exist\");\r\n        _;\r\n    }\r\n\r\n    modifier confirm_farmer(uint _id){\r\n        require(product_list[_id].farmer == msg.sender, \"Not authorized\");\r\n        _;\r\n    }\r\n\r\n    modifier only_distributor(address _add)\r\n    {\r\n        require(isDistributor(_add), \"Not authorized\");\r\n        _;\r\n    }\r\n\r\n    modifier only_retailer(address _add)\r\n    {\r\n        require(isRetailer(_add), \"Not authorized\");\r\n        _;\r\n    }\r\n\r\n    modifier forSale(uint _id){\r\n        require(product_list[_id].state == State.For_Sale, \"Not for sale\");\r\n        _;\r\n    }\r\n    \r\n    modifier paid_enough(uint _price) {\r\n        require(msg.value >= _price, \"The amount is not sufficient to buy the product\");\r\n        _;\r\n    }\r\n\r\n    modifier withDistributor(uint _id)\r\n    {\r\n        require(product_list[_id].state == State.with_distributor, \"Not authorized\");\r\n        _;\r\n    }\r\n\r\n    modifier only_consumer(address _add)\r\n    {\r\n        require(isConsumer(_add), \"Not authorized\");\r\n        _;\r\n    }\r\n\r\n    modifier canBuy(uint _id)\r\n    {\r\n        require(can_buy(_id), \"Item is not FOR SALE\");\r\n        _;\r\n    }\r\n\r\n    function can_buy(uint _id) internal view returns(bool)\r\n    {\r\n        if(product_list[_id].state == State.Packed || product_list[_id].state == State.with_distributor || product_list[_id].state == State.with_retailer)\r\n        {\r\n            return true;\r\n        }\r\n\r\n        return false; \r\n    }\r\n\r\n    function add_product(uint _id, uint saf_content, string memory _grade,uint _price) public\r\n    {\r\n        harvest_product(_id, saf_content);\r\n        dry_product(_id);\r\n        grading(_id, _grade);\r\n        packing(_id);\r\n        for_sale(_id, _price);\r\n    }\r\n\r\n    function harvest_product(uint _id, uint saf_content) public  {\r\n        require(isFarmer(msg.sender));\r\n        Product memory product;\r\n        product.id = _id;\r\n        product.safranal_content = saf_content;\r\n        product.farmer = payable(msg.sender);\r\n        product.Current_owner = product.farmer;\r\n        product.distributor = payable(address(0));\r\n        product.retailer = product.distributor;\r\n        product.consumer = product.distributor;\r\n        product.state = State.Harvested;\r\n        product_list[_id] = product;\r\n        existing[_id] = true;\r\n    }\r\n\r\n    function dry_product(uint _id) exist(_id) harvested(_id) confirm_farmer(_id) public{\r\n        product_list[_id].state = State.Dried;\r\n    }\r\n\r\n    function grading(uint _id, string memory _grade) exist(_id) dried(_id) confirm_farmer(_id) public{\r\n        product_list[_id].grade = _grade;\r\n        product_list[_id].state = State.Graded; \r\n    }\r\n    \r\n    function packing(uint _id) exist(_id) graded(_id) confirm_farmer(_id) public{\r\n        product_list[_id].state = State.Packed;\r\n    }\r\n    \r\n    function for_sale(uint _id, uint _price) exist(_id) packed(_id) confirm_farmer(_id) public{\r\n        product_list[_id].state = State.For_Sale;\r\n        product_list[_id].price = _price;\r\n    }\r\n\r\n    function get_response_from_verifiers (uint _id, uint safranal_content) public returns (bool)\r\n    {\r\n        bool confirmation = verify_auto(_id, safranal_content);\r\n        if(confirmation == false)\r\n        {\r\n            rep_score[product_list[_id].Current_owner] --;\r\n        }\r\n\r\n        else\r\n        {\r\n            rep_score[product_list[_id].Current_owner] ++;\r\n        }\r\n        return confirmation;\r\n    }\r\n\r\n    function sell_to_distributor(uint _id) exist(_id) forSale(_id) only_distributor(msg.sender) paid_enough(product_list[_id].price) public payable{\r\n        product_list[_id].Current_owner.transfer(product_list[_id].price);\r\n        product_list[_id].Current_owner = payable(msg.sender);\r\n        product_list[_id].distributor = payable(msg.sender);\r\n        product_list[_id].state = State.with_distributor;\r\n    }\r\n\r\n    function sell_to_retailer(uint _id) exist(_id) paid_enough(product_list[_id].price) only_retailer(msg.sender) withDistributor(_id) public payable\r\n    {\r\n        product_list[_id].Current_owner.transfer(product_list[_id].price);\r\n        product_list[_id].Current_owner = payable(msg.sender);\r\n        product_list[_id].retailer = payable(msg.sender);\r\n        product_list[_id].state = State.with_retailer;\r\n    }\r\n\r\n    function sell_to_consumer(uint _id) exist(_id) forSale(_id) paid_enough(product_list[_id].price)  only_consumer(msg.sender)  public payable\r\n    {\r\n        product_list[_id].Current_owner.transfer(msg.value);\r\n        product_list[_id].Current_owner = payable(msg.sender);\r\n        product_list[_id].consumer = payable(msg.sender);\r\n        product_list[_id].state = State.with_consumer;\r\n    }\r\n\r\n    function compareStrings(string memory a, string memory b) public view returns (bool) {\r\n    return (keccak256(abi.encodePacked((a))) == keccak256(abi.encodePacked((b))));\r\n}\r\n\r\n    function verify_auto(uint _id, uint safranal_content) public returns(bool){\r\n        reset();\r\n        select_5_people();\r\n        for(uint i = 0; i < selected_5_verifiers.length; i++)\r\n        {\r\n            uint random_number = generate_random(100, 1);\r\n            if(random_number >= 20)\r\n            {\r\n                if(safranal_content >= 85 && compareStrings(product_list[_id].grade, 'A') == true)\r\n                {\r\n                    registered[selected_5_verifiers[i]].verdict = true;\r\n                }\r\n\r\n                else if(safranal_content >= 70 && compareStrings(product_list[_id].grade, 'B') == true)\r\n                {\r\n                    registered[selected_5_verifiers[i]].verdict = true;\r\n                }\r\n\r\n                else if(safranal_content >= 60 && compareStrings(product_list[_id].grade, 'C') == true)\r\n                {\r\n                    registered[selected_5_verifiers[i]].verdict = true;\r\n                }\r\n\r\n                else if(safranal_content >= 50 && compareStrings(product_list[_id].grade, 'D') == true)\r\n                {\r\n                    registered[selected_5_verifiers[i]].verdict = true;\r\n                }\r\n\r\n                else\r\n                {\r\n                    registered[selected_5_verifiers[i]].verdict = false;\r\n                } \r\n            }\r\n\r\n            else\r\n            {\r\n                if(safranal_content < 85 && compareStrings(product_list[_id].grade, 'A') == true)\r\n                {\r\n                    registered[selected_5_verifiers[i]].verdict = true;\r\n                }\r\n\r\n                else if(safranal_content < 70 && compareStrings(product_list[_id].grade, 'B') == true)\r\n                {\r\n                    registered[selected_5_verifiers[i]].verdict = true;\r\n                }\r\n\r\n                else if(safranal_content < 60 && compareStrings(product_list[_id].grade, 'C') == true)\r\n                {\r\n                    registered[selected_5_verifiers[i]].verdict = true;\r\n                }\r\n\r\n                else if(safranal_content < 50 && compareStrings(product_list[_id].grade, 'D') == true)\r\n                {\r\n                    registered[selected_5_verifiers[i]].verdict = true;\r\n                }\r\n\r\n                else\r\n                {\r\n                    registered[selected_5_verifiers[i]].verdict = false;\r\n                } \r\n            }\r\n        }\r\n        return update_score();\r\n    }\r\n\r\n}",
  "sourcePath": "F:/project/SS_Project (2)/SS_Project/contracts/SupplyChain/SupplyChain.sol",
  "compiler": {
    "name": "solc",
    "version": "0.8.14+commit.80d49f37.Emscripten.clang"
  },
  "schemaVersion": "3.3.4",
  "updatedAt": "2022-06-05T15:01:11.693Z",
  "networkType": "ethereum",
  "devdoc": {
    "kind": "dev",
    "methods": {},
    "version": 1
  },
  "userdoc": {
    "kind": "user",
    "methods": {},
    "version": 1
  }
}