{
  "contractName": "SupplyChain",
  "abi": [
    {
      "inputs": [
        {
          "internalType": "address",
          "name": "_add",
          "type": "address"
        }
      ],
      "name": "addConsumer",
      "outputs": [],
      "stateMutability": "nonpayable",
      "type": "function"
    },
    {
      "inputs": [
        {
          "internalType": "address",
          "name": "_add",
          "type": "address"
        }
      ],
      "name": "addDistributor",
      "outputs": [],
      "stateMutability": "nonpayable",
      "type": "function"
    },
    {
      "inputs": [
        {
          "internalType": "address",
          "name": "_add",
          "type": "address"
        }
      ],
      "name": "addFarmer",
      "outputs": [],
      "stateMutability": "nonpayable",
      "type": "function"
    },
    {
      "inputs": [
        {
          "internalType": "address",
          "name": "_add",
          "type": "address"
        }
      ],
      "name": "addRetailer",
      "outputs": [],
      "stateMutability": "nonpayable",
      "type": "function"
    },
    {
      "inputs": [],
      "name": "approve",
      "outputs": [],
      "stateMutability": "nonpayable",
      "type": "function"
    },
    {
      "inputs": [],
      "name": "choose_final_verdict",
      "outputs": [
        {
          "internalType": "bool",
          "name": "",
          "type": "bool"
        }
      ],
      "stateMutability": "view",
      "type": "function",
      "constant": true
    },
    {
      "inputs": [],
      "name": "clear_pred_arr",
      "outputs": [],
      "stateMutability": "nonpayable",
      "type": "function"
    },
    {
      "inputs": [],
      "name": "fill_pred_arr",
      "outputs": [
        {
          "internalType": "uint256",
          "name": "",
          "type": "uint256"
        }
      ],
      "stateMutability": "nonpayable",
      "type": "function"
    },
    {
      "inputs": [
        {
          "internalType": "uint256",
          "name": "num_max",
          "type": "uint256"
        },
        {
          "internalType": "uint256",
          "name": "num_min",
          "type": "uint256"
        }
      ],
      "name": "generate_random",
      "outputs": [
        {
          "internalType": "uint256",
          "name": "",
          "type": "uint256"
        }
      ],
      "stateMutability": "nonpayable",
      "type": "function"
    },
    {
      "inputs": [
        {
          "internalType": "address",
          "name": "_add",
          "type": "address"
        }
      ],
      "name": "isConsumer",
      "outputs": [
        {
          "internalType": "bool",
          "name": "",
          "type": "bool"
        }
      ],
      "stateMutability": "view",
      "type": "function",
      "constant": true
    },
    {
      "inputs": [
        {
          "internalType": "address",
          "name": "_add",
          "type": "address"
        }
      ],
      "name": "isDistributor",
      "outputs": [
        {
          "internalType": "bool",
          "name": "",
          "type": "bool"
        }
      ],
      "stateMutability": "view",
      "type": "function",
      "constant": true
    },
    {
      "inputs": [
        {
          "internalType": "address",
          "name": "_add",
          "type": "address"
        }
      ],
      "name": "isFarmer",
      "outputs": [
        {
          "internalType": "bool",
          "name": "",
          "type": "bool"
        }
      ],
      "stateMutability": "view",
      "type": "function",
      "constant": true
    },
    {
      "inputs": [
        {
          "internalType": "address",
          "name": "_add",
          "type": "address"
        }
      ],
      "name": "isRetailer",
      "outputs": [
        {
          "internalType": "bool",
          "name": "",
          "type": "bool"
        }
      ],
      "stateMutability": "view",
      "type": "function",
      "constant": true
    },
    {
      "inputs": [
        {
          "internalType": "uint256",
          "name": "",
          "type": "uint256"
        }
      ],
      "name": "product_list",
      "outputs": [
        {
          "internalType": "uint256",
          "name": "id",
          "type": "uint256"
        },
        {
          "internalType": "uint256",
          "name": "safranal_content",
          "type": "uint256"
        },
        {
          "internalType": "uint256",
          "name": "price",
          "type": "uint256"
        },
        {
          "internalType": "address payable",
          "name": "farmer",
          "type": "address"
        },
        {
          "internalType": "address payable",
          "name": "distributor",
          "type": "address"
        },
        {
          "internalType": "address payable",
          "name": "retailer",
          "type": "address"
        },
        {
          "internalType": "address payable",
          "name": "consumer",
          "type": "address"
        },
        {
          "internalType": "address payable",
          "name": "Current_owner",
          "type": "address"
        },
        {
          "internalType": "enum SupplyChain.State",
          "name": "state",
          "type": "uint8"
        },
        {
          "internalType": "string",
          "name": "grade",
          "type": "string"
        }
      ],
      "stateMutability": "view",
      "type": "function",
      "constant": true
    },
    {
      "inputs": [],
      "name": "random_num",
      "outputs": [
        {
          "internalType": "uint256",
          "name": "",
          "type": "uint256"
        }
      ],
      "stateMutability": "view",
      "type": "function",
      "constant": true
    },
    {
      "inputs": [
        {
          "internalType": "uint256",
          "name": "",
          "type": "uint256"
        }
      ],
      "name": "registered",
      "outputs": [
        {
          "internalType": "uint256",
          "name": "id",
          "type": "uint256"
        },
        {
          "internalType": "uint256",
          "name": "rep_score",
          "type": "uint256"
        },
        {
          "internalType": "bool",
          "name": "verdict",
          "type": "bool"
        }
      ],
      "stateMutability": "view",
      "type": "function",
      "constant": true
    },
    {
      "inputs": [],
      "name": "reject",
      "outputs": [],
      "stateMutability": "nonpayable",
      "type": "function"
    },
    {
      "inputs": [
        {
          "internalType": "address",
          "name": "_add",
          "type": "address"
        }
      ],
      "name": "removeConsumer",
      "outputs": [],
      "stateMutability": "nonpayable",
      "type": "function"
    },
    {
      "inputs": [
        {
          "internalType": "address",
          "name": "_add",
          "type": "address"
        }
      ],
      "name": "removeDistributor",
      "outputs": [],
      "stateMutability": "nonpayable",
      "type": "function"
    },
    {
      "inputs": [
        {
          "internalType": "address",
          "name": "_add",
          "type": "address"
        }
      ],
      "name": "removeFarmer",
      "outputs": [],
      "stateMutability": "nonpayable",
      "type": "function"
    },
    {
      "inputs": [
        {
          "internalType": "address",
          "name": "_add",
          "type": "address"
        }
      ],
      "name": "removeRetailer",
      "outputs": [],
      "stateMutability": "nonpayable",
      "type": "function"
    },
    {
      "inputs": [],
      "name": "reset",
      "outputs": [],
      "stateMutability": "nonpayable",
      "type": "function"
    },
    {
      "inputs": [],
      "name": "select_5_people",
      "outputs": [],
      "stateMutability": "nonpayable",
      "type": "function"
    },
    {
      "inputs": [],
      "name": "update_score",
      "outputs": [
        {
          "internalType": "bool",
          "name": "",
          "type": "bool"
        }
      ],
      "stateMutability": "nonpayable",
      "type": "function"
    },
    {
      "inputs": [],
      "name": "ver_register",
      "outputs": [],
      "stateMutability": "nonpayable",
      "type": "function"
    },
    {
      "inputs": [],
      "name": "verify",
      "outputs": [
        {
          "internalType": "bool",
          "name": "",
          "type": "bool"
        }
      ],
      "stateMutability": "nonpayable",
      "type": "function"
    },
    {
      "inputs": [
        {
          "internalType": "uint256",
          "name": "_id",
          "type": "uint256"
        },
        {
          "internalType": "uint256",
          "name": "saf_content",
          "type": "uint256"
        },
        {
          "internalType": "string",
          "name": "_grade",
          "type": "string"
        },
        {
          "internalType": "uint256",
          "name": "_price",
          "type": "uint256"
        }
      ],
      "name": "add_product",
      "outputs": [],
      "stateMutability": "nonpayable",
      "type": "function"
    },
    {
      "inputs": [
        {
          "internalType": "uint256",
          "name": "_id",
          "type": "uint256"
        },
        {
          "internalType": "uint256",
          "name": "saf_content",
          "type": "uint256"
        }
      ],
      "name": "harvest_product",
      "outputs": [],
      "stateMutability": "nonpayable",
      "type": "function"
    },
    {
      "inputs": [
        {
          "internalType": "uint256",
          "name": "_id",
          "type": "uint256"
        }
      ],
      "name": "dry_product",
      "outputs": [],
      "stateMutability": "nonpayable",
      "type": "function"
    },
    {
      "inputs": [
        {
          "internalType": "uint256",
          "name": "_id",
          "type": "uint256"
        },
        {
          "internalType": "string",
          "name": "_grade",
          "type": "string"
        }
      ],
      "name": "grading",
      "outputs": [],
      "stateMutability": "nonpayable",
      "type": "function"
    },
    {
      "inputs": [
        {
          "internalType": "uint256",
          "name": "_id",
          "type": "uint256"
        }
      ],
      "name": "packing",
      "outputs": [],
      "stateMutability": "nonpayable",
      "type": "function"
    },
    {
      "inputs": [
        {
          "internalType": "uint256",
          "name": "_id",
          "type": "uint256"
        },
        {
          "internalType": "uint256",
          "name": "_price",
          "type": "uint256"
        }
      ],
      "name": "for_sale",
      "outputs": [],
      "stateMutability": "nonpayable",
      "type": "function"
    },
    {
      "inputs": [
        {
          "internalType": "uint256",
          "name": "_id",
          "type": "uint256"
        },
        {
          "internalType": "uint256",
          "name": "safranal_content",
          "type": "uint256"
        }
      ],
      "name": "get_response_from_verifiers",
      "outputs": [
        {
          "internalType": "bool",
          "name": "",
          "type": "bool"
        }
      ],
      "stateMutability": "nonpayable",
      "type": "function"
    },
    {
      "inputs": [
        {
          "internalType": "uint256",
          "name": "_id",
          "type": "uint256"
        }
      ],
      "name": "sell_to_distributor",
      "outputs": [],
      "stateMutability": "payable",
      "type": "function",
      "payable": true
    },
    {
      "inputs": [
        {
          "internalType": "uint256",
          "name": "_id",
          "type": "uint256"
        }
      ],
      "name": "sell_to_retailer",
      "outputs": [],
      "stateMutability": "payable",
      "type": "function",
      "payable": true
    },
    {
      "inputs": [
        {
          "internalType": "uint256",
          "name": "_id",
          "type": "uint256"
        }
      ],
      "name": "sell_to_consumer",
      "outputs": [],
      "stateMutability": "payable",
      "type": "function",
      "payable": true
    },
    {
      "inputs": [
        {
          "internalType": "string",
          "name": "a",
          "type": "string"
        },
        {
          "internalType": "string",
          "name": "b",
          "type": "string"
        }
      ],
      "name": "compareStrings",
      "outputs": [
        {
          "internalType": "bool",
          "name": "",
          "type": "bool"
        }
      ],
      "stateMutability": "view",
      "type": "function",
      "constant": true
    },
    {
      "inputs": [
        {
          "internalType": "uint256",
          "name": "_id",
          "type": "uint256"
        },
        {
          "internalType": "uint256",
          "name": "safranal_content",
          "type": "uint256"
        }
      ],
      "name": "verify_auto",
      "outputs": [
        {
          "internalType": "bool",
          "name": "",
          "type": "bool"
        }
      ],
      "stateMutability": "nonpayable",
      "type": "function"
    },
    {
      "inputs": [
        {
          "internalType": "address",
          "name": "_add",
          "type": "address"
        }
      ],
      "name": "get_rep_score",
      "outputs": [
        {
          "internalType": "uint256",
          "name": "",
          "type": "uint256"
        }
      ],
      "stateMutability": "view",
      "type": "function",
      "constant": true
    },
    {
      "inputs": [
        {
          "internalType": "address",
          "name": "_add",
          "type": "address"
        }
      ],
      "name": "decrement_rep_score",
      "outputs": [],
      "stateMutability": "nonpayable",
      "type": "function"
    },
    {
      "inputs": [
        {
          "internalType": "address",
          "name": "_add",
          "type": "address"
        }
      ],
      "name": "increment_rep_score",
      "outputs": [],
      "stateMutability": "nonpayable",
      "type": "function"
    }
  ],
  "bytecode": "0x608060405260006004556000600a5534801561001a57600080fd5b50614c378061002a6000396000f3fe6080604052600436106102465760003560e01c806380c3f96d11610139578063caca7746116100b6578063e6bf3fdc1161007a578063e6bf3fdc1461081a578063e6cf134614610843578063eb5ba90f14610882578063edde8349146108c8578063eefbb33f146108f3578063fc735e991461090f57610246565b8063caca77461461075f578063cf9168fc14610788578063d74b40fd146107b1578063d7f57250146107da578063d826f88f1461080357610246565b80639a5c1ef1116100fd5780639a5c1ef11461067c578063ac5da0b3146106a5578063b9429069146106ce578063bed34bba1461070b578063c18658931461074857610246565b806380c3f96d14610573578063834ff7391461059c57806387088355146105d95780638ec4f505146106165780638f0c86fa1461063f57610246565b80635ef5dd5a116101c75780637250e2241161018b5780637250e224146104c357806376da31c5146104ec57806377f2d47214610508578063793a8866146105335780637d0703f41461054a57610246565b80635ef5dd5a146103b8578063687084db146103f55780636ba1be561461043257806370099ec81461045d57806370953fdf1461048657610246565b80631fed106f1161020e5780631fed106f146102f95780634dc415de1461032457806356cebd061461033b57806357c1f9e2146103525780635da09b881461037b57610246565b80630652bebf1461024b5780630e27e3df1461026757806310c43a1714610290578063112940f9146102b957806312424e3f146102e2575b600080fd5b61026560048036038101906102609190613c7e565b61093a565b005b34801561027357600080fd5b5061028e60048036038101906102899190613d09565b610c3d565b005b34801561029c57600080fd5b506102b760048036038101906102b29190613e7c565b610c4b565b005b3480156102c557600080fd5b506102e060048036038101906102db9190613d09565b610c81565b005b3480156102ee57600080fd5b506102f7610c8f565b005b34801561030557600080fd5b5061030e610cec565b60405161031b9190613f1a565b60405180910390f35b34801561033057600080fd5b50610339610da2565b005b34801561034757600080fd5b50610350610dff565b005b34801561035e57600080fd5b5061037960048036038101906103749190613d09565b610e50565b005b34801561038757600080fd5b506103a2600480360381019061039d9190613d09565b610e5e565b6040516103af9190613f1a565b60405180910390f35b3480156103c457600080fd5b506103df60048036038101906103da9190613d09565b610e72565b6040516103ec9190613f44565b60405180910390f35b34801561040157600080fd5b5061041c60048036038101906104179190613f5f565b610ebb565b6040516104299190613f1a565b60405180910390f35b34801561043e57600080fd5b506104476119fe565b6040516104549190613f1a565b60405180910390f35b34801561046957600080fd5b50610484600480360381019061047f9190613d09565b611b1c565b005b34801561049257600080fd5b506104ad60048036038101906104a89190613f5f565b611b2a565b6040516104ba9190613f1a565b60405180910390f35b3480156104cf57600080fd5b506104ea60048036038101906104e59190613d09565b611c6b565b005b61050660048036038101906105019190613c7e565b611c79565b005b34801561051457600080fd5b5061051d611f92565b60405161052a9190613f44565b60405180910390f35b34801561053f57600080fd5b5061054861213a565b005b34801561055657600080fd5b50610571600480360381019061056c9190613c7e565b61237d565b005b34801561057f57600080fd5b5061059a60048036038101906105959190613d09565b61255a565b005b3480156105a857600080fd5b506105c360048036038101906105be9190613d09565b612568565b6040516105d09190613f1a565b60405180910390f35b3480156105e557600080fd5b5061060060048036038101906105fb9190613f5f565b61257c565b60405161060d9190613f44565b60405180910390f35b34801561062257600080fd5b5061063d60048036038101906106389190613d09565b612628565b005b34801561064b57600080fd5b5061066660048036038101906106619190613d09565b612636565b6040516106739190613f1a565b60405180910390f35b34801561068857600080fd5b506106a3600480360381019061069e9190613c7e565b61264a565b005b3480156106b157600080fd5b506106cc60048036038101906106c79190613f5f565b612827565b005b3480156106da57600080fd5b506106f560048036038101906106f09190613d09565b612bfa565b6040516107029190613f1a565b60405180910390f35b34801561071757600080fd5b50610732600480360381019061072d9190613f9f565b612c0e565b60405161073f9190613f1a565b60405180910390f35b34801561075457600080fd5b5061075d612c67565b005b34801561076b57600080fd5b5061078660048036038101906107819190614017565b612cd7565b005b34801561079457600080fd5b506107af60048036038101906107aa9190613f5f565b612ee0565b005b3480156107bd57600080fd5b506107d860048036038101906107d39190613d09565b6130d9565b005b3480156107e657600080fd5b5061080160048036038101906107fc9190613d09565b613131565b005b34801561080f57600080fd5b50610818613189565b005b34801561082657600080fd5b50610841600480360381019061083c9190613d09565b61329b565b005b34801561084f57600080fd5b5061086a60048036038101906108659190613c7e565b6132a9565b60405161087993929190614073565b60405180910390f35b34801561088e57600080fd5b506108a960048036038101906108a49190613c7e565b6132e0565b6040516108bf9a999897969594939291906141ca565b60405180910390f35b3480156108d457600080fd5b506108dd613469565b6040516108ea9190613f44565b60405180910390f35b61090d60048036038101906109089190613c7e565b61346f565b005b34801561091b57600080fd5b50610924613788565b6040516109319190613f1a565b60405180910390f35b80600115156010600083815260200190815260200160002060009054906101000a900460ff161515146109a2576040517f08c379a0000000000000000000000000000000000000000000000000000000008152600401610999906142b9565b60405180910390fd5b81600460078111156109b7576109b66140cb565b5b600f600083815260200190815260200160002060070160149054906101000a900460ff1660078111156109ed576109ec6140cb565b5b14610a2d576040517f08c379a0000000000000000000000000000000000000000000000000000000008152600401610a2490614325565b60405180910390fd5b600f60008481526020019081526020016000206002015480341015610a87576040517f08c379a0000000000000000000000000000000000000000000000000000000008152600401610a7e906143b7565b60405180910390fd5b33610a9181612568565b610ad0576040517f08c379a0000000000000000000000000000000000000000000000000000000008152600401610ac790614423565b60405180910390fd5b600f600086815260200190815260200160002060070160009054906101000a900473ffffffffffffffffffffffffffffffffffffffff1673ffffffffffffffffffffffffffffffffffffffff166108fc349081150290604051600060405180830381858888f19350505050158015610b4c573d6000803e3d6000fd5b5033600f600087815260200190815260200160002060070160006101000a81548173ffffffffffffffffffffffffffffffffffffffff021916908373ffffffffffffffffffffffffffffffffffffffff16021790555033600f600087815260200190815260200160002060060160006101000a81548173ffffffffffffffffffffffffffffffffffffffff021916908373ffffffffffffffffffffffffffffffffffffffff1602179055506007600f600087815260200190815260200160002060070160146101000a81548160ff02191690836007811115610c3157610c306140cb565b5b02179055505050505050565b610c486003826137a7565b50565b610c558484612827565b610c5e8461237d565b610c688483612cd7565b610c718461264a565b610c7b8482612ee0565b50505050565b610c8c6003826138bd565b50565b6001600d60003373ffffffffffffffffffffffffffffffffffffffff1673ffffffffffffffffffffffffffffffffffffffff16815260200190815260200160002060020160006101000a81548160ff021916908315150217905550565b600060056008805490501015610d0157600080fd5b60008060005b600880549050811015610d965760011515600c600060088481548110610d3057610d2f614443565b5b9060005260206000200154815260200190815260200160002060020160009054906101000a900460ff16151503610d74578280610d6c906144a1565b935050610d83565b8180610d7f906144a1565b9250505b8080610d8e906144a1565b915050610d07565b50808210159250505090565b6000600d60003373ffffffffffffffffffffffffffffffffffffffff1673ffffffffffffffffffffffffffffffffffffffff16815260200190815260200160002060020160006101000a81548160ff021916908315150217905550565b600060078054905090505b60008114610e4d576007805480610e2457610e236144e9565b5b600190038181906000526020600020016000905590558080610e4590614518565b915050610e0a565b50565b610e5b6001826137a7565b50565b6000610e6b6002836139d4565b9050919050565b6000600e60008373ffffffffffffffffffffffffffffffffffffffff1673ffffffffffffffffffffffffffffffffffffffff168152602001908152602001600020549050919050565b6000610ec5613189565b610ecd612c67565b60005b6008805490508110156119ed576000610eeb6064600161257c565b90506014811061146b5760558410158015610fe6575060011515610fe2600f60008881526020019081526020016000206008018054610f2990614570565b80601f0160208091040260200160405190810160405280929190818152602001828054610f5590614570565b8015610fa25780601f10610f7757610100808354040283529160200191610fa2565b820191906000526020600020905b815481529060010190602001808311610f8557829003601f168201915b50505050506040518060400160405280600181526020017f4100000000000000000000000000000000000000000000000000000000000000815250612c0e565b1515145b1561103d576001600c60006008858154811061100557611004614443565b5b9060005260206000200154815260200190815260200160002060020160006101000a81548160ff021916908315150217905550611466565b6046841015801561112e57506001151561112a600f6000888152602001908152602001600020600801805461107190614570565b80601f016020809104026020016040519081016040528092919081815260200182805461109d90614570565b80156110ea5780601f106110bf576101008083540402835291602001916110ea565b820191906000526020600020905b8154815290600101906020018083116110cd57829003601f168201915b50505050506040518060400160405280600181526020017f4200000000000000000000000000000000000000000000000000000000000000815250612c0e565b1515145b15611185576001600c60006008858154811061114d5761114c614443565b5b9060005260206000200154815260200190815260200160002060020160006101000a81548160ff021916908315150217905550611465565b603c8410158015611276575060011515611272600f600088815260200190815260200160002060080180546111b990614570565b80601f01602080910402602001604051908101604052809291908181526020018280546111e590614570565b80156112325780601f1061120757610100808354040283529160200191611232565b820191906000526020600020905b81548152906001019060200180831161121557829003601f168201915b50505050506040518060400160405280600181526020017f4300000000000000000000000000000000000000000000000000000000000000815250612c0e565b1515145b156112cd576001600c60006008858154811061129557611294614443565b5b9060005260206000200154815260200190815260200160002060020160006101000a81548160ff021916908315150217905550611464565b603284101580156113be5750600115156113ba600f6000888152602001908152602001600020600801805461130190614570565b80601f016020809104026020016040519081016040528092919081815260200182805461132d90614570565b801561137a5780601f1061134f5761010080835404028352916020019161137a565b820191906000526020600020905b81548152906001019060200180831161135d57829003601f168201915b50505050506040518060400160405280600181526020017f4400000000000000000000000000000000000000000000000000000000000000815250612c0e565b1515145b15611415576001600c6000600885815481106113dd576113dc614443565b5b9060005260206000200154815260200190815260200160002060020160006101000a81548160ff021916908315150217905550611463565b6000600c60006008858154811061142f5761142e614443565b5b9060005260206000200154815260200190815260200160002060020160006101000a81548160ff0219169083151502179055505b5b5b5b6119d9565b60558410801561155b575060011515611557600f6000888152602001908152602001600020600801805461149e90614570565b80601f01602080910402602001604051908101604052809291908181526020018280546114ca90614570565b80156115175780601f106114ec57610100808354040283529160200191611517565b820191906000526020600020905b8154815290600101906020018083116114fa57829003601f168201915b50505050506040518060400160405280600181526020017f4100000000000000000000000000000000000000000000000000000000000000815250612c0e565b1515145b156115b2576001600c60006008858154811061157a57611579614443565b5b9060005260206000200154815260200190815260200160002060020160006101000a81548160ff0219169083151502179055506119d8565b6046841080156116a257506001151561169e600f600088815260200190815260200160002060080180546115e590614570565b80601f016020809104026020016040519081016040528092919081815260200182805461161190614570565b801561165e5780601f106116335761010080835404028352916020019161165e565b820191906000526020600020905b81548152906001019060200180831161164157829003601f168201915b50505050506040518060400160405280600181526020017f4200000000000000000000000000000000000000000000000000000000000000815250612c0e565b1515145b156116f9576001600c6000600885815481106116c1576116c0614443565b5b9060005260206000200154815260200190815260200160002060020160006101000a81548160ff0219169083151502179055506119d7565b603c841080156117e95750600115156117e5600f6000888152602001908152602001600020600801805461172c90614570565b80601f016020809104026020016040519081016040528092919081815260200182805461175890614570565b80156117a55780601f1061177a576101008083540402835291602001916117a5565b820191906000526020600020905b81548152906001019060200180831161178857829003601f168201915b50505050506040518060400160405280600181526020017f4300000000000000000000000000000000000000000000000000000000000000815250612c0e565b1515145b15611840576001600c60006008858154811061180857611807614443565b5b9060005260206000200154815260200190815260200160002060020160006101000a81548160ff0219169083151502179055506119d6565b60328410801561193057506001151561192c600f6000888152602001908152602001600020600801805461187390614570565b80601f016020809104026020016040519081016040528092919081815260200182805461189f90614570565b80156118ec5780601f106118c1576101008083540402835291602001916118ec565b820191906000526020600020905b8154815290600101906020018083116118cf57829003601f168201915b50505050506040518060400160405280600181526020017f4400000000000000000000000000000000000000000000000000000000000000815250612c0e565b1515145b15611987576001600c60006008858154811061194f5761194e614443565b5b9060005260206000200154815260200190815260200160002060020160006101000a81548160ff0219169083151502179055506119d5565b6000600c6000600885815481106119a1576119a0614443565b5b9060005260206000200154815260200190815260200160002060020160006101000a81548160ff0219169083151502179055505b5b5b5b5b5080806119e5906144a1565b915050610ed0565b506119f66119fe565b905092915050565b600080611a09610cec565b905060005b600880549050811015611b1457600c600060088381548110611a3357611a32614443565b5b9060005260206000200154815260200190815260200160002060020160009054906101000a900460ff16151582151503611ab657600c600060088381548110611a7f57611a7e614443565b5b906000526020600020015481526020019081526020016000206001016000815480929190611aac906144a1565b9190505550611b01565b600c600060088381548110611ace57611acd614443565b5b906000526020600020015481526020019081526020016000206001016000815480929190611afb90614518565b91905055505b8080611b0c906144a1565b915050611a0e565b508091505090565b611b276002826137a7565b50565b600080611b378484610ebb565b90506000151581151503611bd557600e6000600f600087815260200190815260200160002060070160009054906101000a900473ffffffffffffffffffffffffffffffffffffffff1673ffffffffffffffffffffffffffffffffffffffff1673ffffffffffffffffffffffffffffffffffffffff1681526020019081526020016000206000815480929190611bcb90614518565b9190505550611c61565b600e6000600f600087815260200190815260200160002060070160009054906101000a900473ffffffffffffffffffffffffffffffffffffffff1673ffffffffffffffffffffffffffffffffffffffff1673ffffffffffffffffffffffffffffffffffffffff1681526020019081526020016000206000815480929190611c5b906144a1565b91905055505b8091505092915050565b611c766001826138bd565b50565b80600115156010600083815260200190815260200160002060009054906101000a900460ff16151514611ce1576040517f08c379a0000000000000000000000000000000000000000000000000000000008152600401611cd8906142b9565b60405180910390fd5b600f60008381526020019081526020016000206002015480341015611d3b576040517f08c379a0000000000000000000000000000000000000000000000000000000008152600401611d32906143b7565b60405180910390fd5b33611d4581610e5e565b611d84576040517f08c379a0000000000000000000000000000000000000000000000000000000008152600401611d7b90614423565b60405180910390fd5b8360056007811115611d9957611d986140cb565b5b600f600083815260200190815260200160002060070160149054906101000a900460ff166007811115611dcf57611dce6140cb565b5b14611e0f576040517f08c379a0000000000000000000000000000000000000000000000000000000008152600401611e0690614423565b60405180910390fd5b600f600086815260200190815260200160002060070160009054906101000a900473ffffffffffffffffffffffffffffffffffffffff1673ffffffffffffffffffffffffffffffffffffffff166108fc600f6000888152602001908152602001600020600201549081150290604051600060405180830381858888f19350505050158015611ea1573d6000803e3d6000fd5b5033600f600087815260200190815260200160002060070160006101000a81548173ffffffffffffffffffffffffffffffffffffffff021916908373ffffffffffffffffffffffffffffffffffffffff16021790555033600f600087815260200190815260200160002060050160006101000a81548173ffffffffffffffffffffffffffffffffffffffff021916908373ffffffffffffffffffffffffffffffffffffffff1602179055506006600f600087815260200190815260200160002060070160146101000a81548160ff02191690836007811115611f8657611f856140cb565b5b02179055505050505050565b60008060005b6006805490508110156120a957600115156009600060068481548110611fc157611fc0614443565b5b906000526020600020906003020160000154815260200190815260200160002060009054906101000a900460ff16151503612090576006818154811061200a57612009614443565b5b906000526020600020906003020160010154915060005b8281101561208a5760076006838154811061203f5761203e614443565b5b90600052602060002090600302016000015490806001815401808255809150506001900390600052602060002001600090919091909150558080612082906144a1565b915050612021565b50612095565b612096565b5b80806120a1906144a1565b915050611f98565b5060006120c860016007805490506120c191906145a1565b600061257c565b9050600060096000600784815481106120e4576120e3614443565b5b9060005260206000200154815260200190815260200160002060006101000a81548160ff0219169083151502179055506007818154811061212857612127614443565b5b90600052602060002001549250505090565b60001515600b60003373ffffffffffffffffffffffffffffffffffffffff1673ffffffffffffffffffffffffffffffffffffffff16815260200190815260200160002060009054906101000a900460ff1615151461219757600080fd5b6001600b60003373ffffffffffffffffffffffffffffffffffffffff1673ffffffffffffffffffffffffffffffffffffffff16815260200190815260200160002060006101000a81548160ff0219169083151502179055506121f7613a9b565b600a600081548092919061220a906144a1565b91905055816000018181525050600181602001818152505080600c600083600001518152602001908152602001600020600082015181600001556020820151816001015560408201518160020160006101000a81548160ff0219169083151502179055509050506001600960008360000151815260200190815260200160002060006101000a81548160ff0219169083151502179055506006819080600181540180825580915050600190039060005260206000209060030201600090919091909150600082015181600001556020820151816001015560408201518160020160006101000a81548160ff021916908315150217905550505080600d60003373ffffffffffffffffffffffffffffffffffffffff1673ffffffffffffffffffffffffffffffffffffffff168152602001908152602001600020600082015181600001556020820151816001015560408201518160020160006101000a81548160ff02191690831515021790555090505050565b80600115156010600083815260200190815260200160002060009054906101000a900460ff161515146123e5576040517f08c379a00000000000000000000000000000000000000000000000000000000081526004016123dc906142b9565b60405180910390fd5b81600060078111156123fa576123f96140cb565b5b600f600083815260200190815260200160002060070160149054906101000a900460ff1660078111156124305761242f6140cb565b5b14612470576040517f08c379a000000000000000000000000000000000000000000000000000000000815260040161246790614621565b60405180910390fd5b823373ffffffffffffffffffffffffffffffffffffffff16600f600083815260200190815260200160002060030160009054906101000a900473ffffffffffffffffffffffffffffffffffffffff1673ffffffffffffffffffffffffffffffffffffffff1614612515576040517f08c379a000000000000000000000000000000000000000000000000000000000815260040161250c90614423565b60405180910390fd5b6001600f600086815260200190815260200160002060070160146101000a81548160ff0219169083600781111561254f5761254e6140cb565b5b021790555050505050565b6125656000826138bd565b50565b60006125756003836139d4565b9050919050565b600060046000815480929190612591906144a1565b9190505550606442336004546040516020016125af939291906146aa565b6040516020818303038152906040528051906020012060001c6125d29190614716565b600581905550600060649050600083856125ec91906145a1565b9050838282600060055461260091906145a1565b61260a9190614747565b61261491906147a1565b61261e91906147d2565b9250505092915050565b6126336002826138bd565b50565b60006126436001836139d4565b9050919050565b80600115156010600083815260200190815260200160002060009054906101000a900460ff161515146126b2576040517f08c379a00000000000000000000000000000000000000000000000000000000081526004016126a9906142b9565b60405180910390fd5b81600260078111156126c7576126c66140cb565b5b600f600083815260200190815260200160002060070160149054906101000a900460ff1660078111156126fd576126fc6140cb565b5b1461273d576040517f08c379a000000000000000000000000000000000000000000000000000000000815260040161273490614874565b60405180910390fd5b823373ffffffffffffffffffffffffffffffffffffffff16600f600083815260200190815260200160002060030160009054906101000a900473ffffffffffffffffffffffffffffffffffffffff1673ffffffffffffffffffffffffffffffffffffffff16146127e2576040517f08c379a00000000000000000000000000000000000000000000000000000000081526004016127d990614423565b60405180910390fd5b6003600f600086815260200190815260200160002060070160146101000a81548160ff0219169083600781111561281c5761281b6140cb565b5b021790555050505050565b61283033612bfa565b61286f576040517f08c379a000000000000000000000000000000000000000000000000000000000815260040161286690614906565b60405180910390fd5b612877613abe565b828160000181815250508181602001818152505033816060019073ffffffffffffffffffffffffffffffffffffffff16908173ffffffffffffffffffffffffffffffffffffffff168152505080606001518160e0019073ffffffffffffffffffffffffffffffffffffffff16908173ffffffffffffffffffffffffffffffffffffffff16815250506000816080019073ffffffffffffffffffffffffffffffffffffffff16908173ffffffffffffffffffffffffffffffffffffffff168152505080608001518160a0019073ffffffffffffffffffffffffffffffffffffffff16908173ffffffffffffffffffffffffffffffffffffffff168152505080608001518160c0019073ffffffffffffffffffffffffffffffffffffffff16908173ffffffffffffffffffffffffffffffffffffffff1681525050600081610100019060078111156129ca576129c96140cb565b5b908160078111156129de576129dd6140cb565b5b8152505080600f600085815260200190815260200160002060008201518160000155602082015181600101556040820151816002015560608201518160030160006101000a81548173ffffffffffffffffffffffffffffffffffffffff021916908373ffffffffffffffffffffffffffffffffffffffff16021790555060808201518160040160006101000a81548173ffffffffffffffffffffffffffffffffffffffff021916908373ffffffffffffffffffffffffffffffffffffffff16021790555060a08201518160050160006101000a81548173ffffffffffffffffffffffffffffffffffffffff021916908373ffffffffffffffffffffffffffffffffffffffff16021790555060c08201518160060160006101000a81548173ffffffffffffffffffffffffffffffffffffffff021916908373ffffffffffffffffffffffffffffffffffffffff16021790555060e08201518160070160006101000a81548173ffffffffffffffffffffffffffffffffffffffff021916908373ffffffffffffffffffffffffffffffffffffffff1602179055506101008201518160070160146101000a81548160ff02191690836007811115612ba357612ba26140cb565b5b0217905550610120820151816008019080519060200190612bc5929190613b91565b5090505060016010600085815260200190815260200160002060006101000a81548160ff021916908315150217905550505050565b6000612c076000836139d4565b9050919050565b600081604051602001612c219190614962565b6040516020818303038152906040528051906020012083604051602001612c489190614962565b6040516020818303038152906040528051906020012014905092915050565b60056006805490501015612c7a57600080fd5b6000600590505b60008114612cd4576008612c93611f92565b90806001815401808255809150506001900390600052602060002001600090919091909150558080612cc490614518565b915050612ccf610dff565b612c81565b50565b81600115156010600083815260200190815260200160002060009054906101000a900460ff16151514612d3f576040517f08c379a0000000000000000000000000000000000000000000000000000000008152600401612d36906142b9565b60405180910390fd5b8260016007811115612d5457612d536140cb565b5b600f600083815260200190815260200160002060070160149054906101000a900460ff166007811115612d8a57612d896140cb565b5b14612dca576040517f08c379a0000000000000000000000000000000000000000000000000000000008152600401612dc1906149c5565b60405180910390fd5b833373ffffffffffffffffffffffffffffffffffffffff16600f600083815260200190815260200160002060030160009054906101000a900473ffffffffffffffffffffffffffffffffffffffff1673ffffffffffffffffffffffffffffffffffffffff1614612e6f576040517f08c379a0000000000000000000000000000000000000000000000000000000008152600401612e6690614423565b60405180910390fd5b83600f60008781526020019081526020016000206008019080519060200190612e99929190613b91565b506002600f600087815260200190815260200160002060070160146101000a81548160ff02191690836007811115612ed457612ed36140cb565b5b02179055505050505050565b81600115156010600083815260200190815260200160002060009054906101000a900460ff16151514612f48576040517f08c379a0000000000000000000000000000000000000000000000000000000008152600401612f3f906142b9565b60405180910390fd5b8260036007811115612f5d57612f5c6140cb565b5b600f600083815260200190815260200160002060070160149054906101000a900460ff166007811115612f9357612f926140cb565b5b14612fd3576040517f08c379a0000000000000000000000000000000000000000000000000000000008152600401612fca90614a31565b60405180910390fd5b833373ffffffffffffffffffffffffffffffffffffffff16600f600083815260200190815260200160002060030160009054906101000a900473ffffffffffffffffffffffffffffffffffffffff1673ffffffffffffffffffffffffffffffffffffffff1614613078576040517f08c379a000000000000000000000000000000000000000000000000000000000815260040161306f90614423565b60405180910390fd5b6004600f600087815260200190815260200160002060070160146101000a81548160ff021916908360078111156130b2576130b16140cb565b5b021790555083600f6000878152602001908152602001600020600201819055505050505050565b600e60008273ffffffffffffffffffffffffffffffffffffffff1673ffffffffffffffffffffffffffffffffffffffff168152602001908152602001600020600081548092919061312990614518565b919050555050565b600e60008273ffffffffffffffffffffffffffffffffffffffff1673ffffffffffffffffffffffffffffffffffffffff1681526020019081526020016000206000815480929190613181906144a1565b919050555050565b60005b6006805490508110156131fd57600160096000600684815481106131b3576131b2614443565b5b906000526020600020906003020160000154815260200190815260200160002060006101000a81548160ff02191690831515021790555080806131f5906144a1565b91505061318c565b50600060078054905090505b6000811461324c576007805480613223576132226144e9565b5b60019003818190600052602060002001600090559055808061324490614518565b915050613209565b60088054905090505b6000811461329857600880548061326f5761326e6144e9565b5b60019003818190600052602060002001600090559055808061329090614518565b915050613255565b50565b6132a66000826137a7565b50565b600c6020528060005260406000206000915090508060000154908060010154908060020160009054906101000a900460ff16905083565b600f6020528060005260406000206000915090508060000154908060010154908060020154908060030160009054906101000a900473ffffffffffffffffffffffffffffffffffffffff16908060040160009054906101000a900473ffffffffffffffffffffffffffffffffffffffff16908060050160009054906101000a900473ffffffffffffffffffffffffffffffffffffffff16908060060160009054906101000a900473ffffffffffffffffffffffffffffffffffffffff16908060070160009054906101000a900473ffffffffffffffffffffffffffffffffffffffff16908060070160149054906101000a900460ff16908060080180546133e690614570565b80601f016020809104026020016040519081016040528092919081815260200182805461341290614570565b801561345f5780601f106134345761010080835404028352916020019161345f565b820191906000526020600020905b81548152906001019060200180831161344257829003601f168201915b505050505090508a565b60055481565b80600115156010600083815260200190815260200160002060009054906101000a900460ff161515146134d7576040517f08c379a00000000000000000000000000000000000000000000000000000000081526004016134ce906142b9565b60405180910390fd5b81600460078111156134ec576134eb6140cb565b5b600f600083815260200190815260200160002060070160149054906101000a900460ff166007811115613522576135216140cb565b5b14613562576040517f08c379a000000000000000000000000000000000000000000000000000000000815260040161355990614325565b60405180910390fd5b3361356c81612636565b6135ab576040517f08c379a00000000000000000000000000000000000000000000000000000000081526004016135a290614423565b60405180910390fd5b600f60008581526020019081526020016000206002015480341015613605576040517f08c379a00000000000000000000000000000000000000000000000000000000081526004016135fc906143b7565b60405180910390fd5b600f600086815260200190815260200160002060070160009054906101000a900473ffffffffffffffffffffffffffffffffffffffff1673ffffffffffffffffffffffffffffffffffffffff166108fc600f6000888152602001908152602001600020600201549081150290604051600060405180830381858888f19350505050158015613697573d6000803e3d6000fd5b5033600f600087815260200190815260200160002060070160006101000a81548173ffffffffffffffffffffffffffffffffffffffff021916908373ffffffffffffffffffffffffffffffffffffffff16021790555033600f600087815260200190815260200160002060040160006101000a81548173ffffffffffffffffffffffffffffffffffffffff021916908373ffffffffffffffffffffffffffffffffffffffff1602179055506005600f600087815260200190815260200160002060070160146101000a81548160ff0219169083600781111561377c5761377b6140cb565b5b02179055505050505050565b6000613792613189565b61379a612c67565b6137a26119fe565b905090565b600073ffffffffffffffffffffffffffffffffffffffff168173ffffffffffffffffffffffffffffffffffffffff1603613816576040517f08c379a000000000000000000000000000000000000000000000000000000000815260040161380d90614a9d565b60405180910390fd5b61382082826139d4565b61385f576040517f08c379a000000000000000000000000000000000000000000000000000000000815260040161385690614b09565b60405180910390fd5b60008260000160008373ffffffffffffffffffffffffffffffffffffffff1673ffffffffffffffffffffffffffffffffffffffff16815260200190815260200160002060006101000a81548160ff0219169083151502179055505050565b600073ffffffffffffffffffffffffffffffffffffffff168173ffffffffffffffffffffffffffffffffffffffff160361392c576040517f08c379a000000000000000000000000000000000000000000000000000000000815260040161392390614a9d565b60405180910390fd5b61393682826139d4565b15613976576040517f08c379a000000000000000000000000000000000000000000000000000000000815260040161396d90614b75565b60405180910390fd5b60018260000160008373ffffffffffffffffffffffffffffffffffffffff1673ffffffffffffffffffffffffffffffffffffffff16815260200190815260200160002060006101000a81548160ff0219169083151502179055505050565b60008073ffffffffffffffffffffffffffffffffffffffff168273ffffffffffffffffffffffffffffffffffffffff1603613a44576040517f08c379a0000000000000000000000000000000000000000000000000000000008152600401613a3b90614be1565b60405180910390fd5b8260000160008373ffffffffffffffffffffffffffffffffffffffff1673ffffffffffffffffffffffffffffffffffffffff16815260200190815260200160002060009054906101000a900460ff16905092915050565b604051806060016040528060008152602001600081526020016000151581525090565b604051806101400160405280600081526020016000815260200160008152602001600073ffffffffffffffffffffffffffffffffffffffff168152602001600073ffffffffffffffffffffffffffffffffffffffff168152602001600073ffffffffffffffffffffffffffffffffffffffff168152602001600073ffffffffffffffffffffffffffffffffffffffff168152602001600073ffffffffffffffffffffffffffffffffffffffff16815260200160006007811115613b8457613b836140cb565b5b8152602001606081525090565b828054613b9d90614570565b90600052602060002090601f016020900481019282613bbf5760008555613c06565b82601f10613bd857805160ff1916838001178555613c06565b82800160010185558215613c06579182015b82811115613c05578251825591602001919060010190613bea565b5b509050613c139190613c17565b5090565b5b80821115613c30576000816000905550600101613c18565b5090565b6000604051905090565b600080fd5b600080fd5b6000819050919050565b613c5b81613c48565b8114613c6657600080fd5b50565b600081359050613c7881613c52565b92915050565b600060208284031215613c9457613c93613c3e565b5b6000613ca284828501613c69565b91505092915050565b600073ffffffffffffffffffffffffffffffffffffffff82169050919050565b6000613cd682613cab565b9050919050565b613ce681613ccb565b8114613cf157600080fd5b50565b600081359050613d0381613cdd565b92915050565b600060208284031215613d1f57613d1e613c3e565b5b6000613d2d84828501613cf4565b91505092915050565b600080fd5b600080fd5b6000601f19601f8301169050919050565b7f4e487b7100000000000000000000000000000000000000000000000000000000600052604160045260246000fd5b613d8982613d40565b810181811067ffffffffffffffff82111715613da857613da7613d51565b5b80604052505050565b6000613dbb613c34565b9050613dc78282613d80565b919050565b600067ffffffffffffffff821115613de757613de6613d51565b5b613df082613d40565b9050602081019050919050565b82818337600083830152505050565b6000613e1f613e1a84613dcc565b613db1565b905082815260208101848484011115613e3b57613e3a613d3b565b5b613e46848285613dfd565b509392505050565b600082601f830112613e6357613e62613d36565b5b8135613e73848260208601613e0c565b91505092915050565b60008060008060808587031215613e9657613e95613c3e565b5b6000613ea487828801613c69565b9450506020613eb587828801613c69565b935050604085013567ffffffffffffffff811115613ed657613ed5613c43565b5b613ee287828801613e4e565b9250506060613ef387828801613c69565b91505092959194509250565b60008115159050919050565b613f1481613eff565b82525050565b6000602082019050613f2f6000830184613f0b565b92915050565b613f3e81613c48565b82525050565b6000602082019050613f596000830184613f35565b92915050565b60008060408385031215613f7657613f75613c3e565b5b6000613f8485828601613c69565b9250506020613f9585828601613c69565b9150509250929050565b60008060408385031215613fb657613fb5613c3e565b5b600083013567ffffffffffffffff811115613fd457613fd3613c43565b5b613fe085828601613e4e565b925050602083013567ffffffffffffffff81111561400157614000613c43565b5b61400d85828601613e4e565b9150509250929050565b6000806040838503121561402e5761402d613c3e565b5b600061403c85828601613c69565b925050602083013567ffffffffffffffff81111561405d5761405c613c43565b5b61406985828601613e4e565b9150509250929050565b60006060820190506140886000830186613f35565b6140956020830185613f35565b6140a26040830184613f0b565b949350505050565b60006140b582613cab565b9050919050565b6140c5816140aa565b82525050565b7f4e487b7100000000000000000000000000000000000000000000000000000000600052602160045260246000fd5b6008811061410b5761410a6140cb565b5b50565b600081905061411c826140fa565b919050565b600061412c8261410e565b9050919050565b61413c81614121565b82525050565b600081519050919050565b600082825260208201905092915050565b60005b8381101561417c578082015181840152602081019050614161565b8381111561418b576000848401525b50505050565b600061419c82614142565b6141a6818561414d565b93506141b681856020860161415e565b6141bf81613d40565b840191505092915050565b6000610140820190506141e0600083018d613f35565b6141ed602083018c613f35565b6141fa604083018b613f35565b614207606083018a6140bc565b61421460808301896140bc565b61422160a08301886140bc565b61422e60c08301876140bc565b61423b60e08301866140bc565b614249610100830185614133565b81810361012083015261425c8184614191565b90509b9a5050505050505050505050565b7f50726f6475637420646f65736e27742065786973740000000000000000000000600082015250565b60006142a360158361414d565b91506142ae8261426d565b602082019050919050565b600060208201905081810360008301526142d281614296565b9050919050565b7f4e6f7420666f722073616c650000000000000000000000000000000000000000600082015250565b600061430f600c8361414d565b915061431a826142d9565b602082019050919050565b6000602082019050818103600083015261433e81614302565b9050919050565b7f54686520616d6f756e74206973206e6f742073756666696369656e7420746f2060008201527f627579207468652070726f647563740000000000000000000000000000000000602082015250565b60006143a1602f8361414d565b91506143ac82614345565b604082019050919050565b600060208201905081810360008301526143d081614394565b9050919050565b7f4e6f7420617574686f72697a6564000000000000000000000000000000000000600082015250565b600061440d600e8361414d565b9150614418826143d7565b602082019050919050565b6000602082019050818103600083015261443c81614400565b9050919050565b7f4e487b7100000000000000000000000000000000000000000000000000000000600052603260045260246000fd5b7f4e487b7100000000000000000000000000000000000000000000000000000000600052601160045260246000fd5b60006144ac82613c48565b91507fffffffffffffffffffffffffffffffffffffffffffffffffffffffffffffffff82036144de576144dd614472565b5b600182019050919050565b7f4e487b7100000000000000000000000000000000000000000000000000000000600052603160045260246000fd5b600061452382613c48565b91506000820361453657614535614472565b5b600182039050919050565b7f4e487b7100000000000000000000000000000000000000000000000000000000600052602260045260246000fd5b6000600282049050600182168061458857607f821691505b60208210810361459b5761459a614541565b5b50919050565b60006145ac82613c48565b91506145b783613c48565b9250828210156145ca576145c9614472565b5b828203905092915050565b7f53616666726f6e206973206e6f74206861727665737465640000000000000000600082015250565b600061460b60188361414d565b9150614616826145d5565b602082019050919050565b6000602082019050818103600083015261463a816145fe565b9050919050565b6000819050919050565b61465c61465782613c48565b614641565b82525050565b60008160601b9050919050565b600061467a82614662565b9050919050565b600061468c8261466f565b9050919050565b6146a461469f82613ccb565b614681565b82525050565b60006146b6828661464b565b6020820191506146c68285614693565b6014820191506146d6828461464b565b602082019150819050949350505050565b7f4e487b7100000000000000000000000000000000000000000000000000000000600052601260045260246000fd5b600061472182613c48565b915061472c83613c48565b92508261473c5761473b6146e7565b5b828206905092915050565b600061475282613c48565b915061475d83613c48565b9250817fffffffffffffffffffffffffffffffffffffffffffffffffffffffffffffffff048311821515161561479657614795614472565b5b828202905092915050565b60006147ac82613c48565b91506147b783613c48565b9250826147c7576147c66146e7565b5b828204905092915050565b60006147dd82613c48565b91506147e883613c48565b9250827fffffffffffffffffffffffffffffffffffffffffffffffffffffffffffffffff0382111561481d5761481c614472565b5b828201905092915050565b7f53616666726f6e206973206e6f74206772616465640000000000000000000000600082015250565b600061485e60158361414d565b915061486982614828565b602082019050919050565b6000602082019050818103600083015261488d81614851565b9050919050565b7f596f7520617265206e6f7420617574686f72697a656420746f20706572666f7260008201527f6d2074686973206f7065726174696f6e00000000000000000000000000000000602082015250565b60006148f060308361414d565b91506148fb82614894565b604082019050919050565b6000602082019050818103600083015261491f816148e3565b9050919050565b600081905092915050565b600061493c82614142565b6149468185614926565b935061495681856020860161415e565b80840191505092915050565b600061496e8284614931565b915081905092915050565b7f53616666726f6e206973206e6f74206472696564000000000000000000000000600082015250565b60006149af60148361414d565b91506149ba82614979565b602082019050919050565b600060208201905081810360008301526149de816149a2565b9050919050565b7f53616666726f6e206973206e6f74207061636b65640000000000000000000000600082015250565b6000614a1b60158361414d565b9150614a26826149e5565b602082019050919050565b60006020820190508181036000830152614a4a81614a0e565b9050919050565b7f416464726573732063616e6e6f74206265207a65726f00000000000000000000600082015250565b6000614a8760168361414d565b9150614a9282614a51565b602082019050919050565b60006020820190508181036000830152614ab681614a7a565b9050919050565b7f4d656d62657220646f6573206e6f742065786973740000000000000000000000600082015250565b6000614af360158361414d565b9150614afe82614abd565b602082019050919050565b60006020820190508181036000830152614b2281614ae6565b9050919050565b7f416c726561647920526567697374657265640000000000000000000000000000600082015250565b6000614b5f60128361414d565b9150614b6a82614b29565b602082019050919050565b60006020820190508181036000830152614b8e81614b52565b9050919050565b7f416464726573732063616e6e6f74206265207a65726f20616464726573730000600082015250565b6000614bcb601e8361414d565b9150614bd682614b95565b602082019050919050565b60006020820190508181036000830152614bfa81614bbe565b905091905056fea2646970667358221220108f28f10f7678eb8f205f69d5ea8a71ed67ccaad2841737aafc2cb915779ee164736f6c634300080e0033",
  "immutableReferences": {},
  "source": "// SPDX-License-Identifier: GPL-3.0\r\npragma solidity >=0.7.0 <0.9.0;\r\n\r\nimport '../Roles/Farmer.sol';\r\nimport '../Roles/Distributor.sol';\r\nimport '../Roles/Retailer.sol';\r\nimport '../Roles/Consumer.sol';\r\nimport '../consensus/verify_random.sol';\r\n\r\ncontract SupplyChain is Farmer, Distributor, Retailer, Consumer, verify_random{\r\n\r\n    mapping(address => uint) rep_score;\r\n\r\n    enum State{\r\n        Harvested,\r\n        Dried,   \r\n        Graded,\r\n        Packed,\r\n        For_Sale,\r\n        with_distributor,\r\n        with_retailer,\r\n        with_consumer\r\n    }\r\n\r\n    struct Product{\r\n        uint id;\r\n        uint safranal_content;\r\n        uint price;\r\n        address payable farmer;\r\n        address payable distributor;\r\n        address payable retailer;\r\n        address payable consumer;\r\n        address payable Current_owner;\r\n        State state;\r\n        string grade;\r\n    }\r\n\r\n    mapping (uint => Product) public product_list;\r\n    mapping (uint => bool) existing;\r\n\r\n\r\n    modifier harvested(uint _id){\r\n        require(product_list[_id].state == State.Harvested, \"Saffron is not harvested\");\r\n        _;\r\n    }\r\n    \r\n    modifier dried(uint _id){\r\n        require(product_list[_id].state == State.Dried, \"Saffron is not dried\");\r\n        _;\r\n    }\r\n    \r\n    modifier graded(uint _id){\r\n        require(product_list[_id].state == State.Graded, \"Saffron is not graded\");\r\n        _;\r\n    }\r\n\r\n    modifier packed(uint _id){\r\n        require(product_list[_id].state == State.Packed, \"Saffron is not packed\");\r\n        _;\r\n    }\r\n\r\n    modifier exist(uint _id){\r\n        require(existing[_id] == true, \"Product doesn't exist\");\r\n        _;\r\n    }\r\n\r\n    modifier confirm_farmer(uint _id){\r\n        require(product_list[_id].farmer == msg.sender, \"Not authorized\");\r\n        _;\r\n    }\r\n\r\n    modifier only_distributor(address _add)\r\n    {\r\n        require(isDistributor(_add), \"Not authorized\");\r\n        _;\r\n    }\r\n\r\n    modifier only_retailer(address _add)\r\n    {\r\n        require(isRetailer(_add), \"Not authorized\");\r\n        _;\r\n    }\r\n\r\n    modifier forSale(uint _id){\r\n        require(product_list[_id].state == State.For_Sale, \"Not for sale\");\r\n        _;\r\n    }\r\n    \r\n    modifier paid_enough(uint _price) {\r\n        require(msg.value >= _price, \"The amount is not sufficient to buy the product\");\r\n        _;\r\n    }\r\n\r\n    modifier withDistributor(uint _id)\r\n    {\r\n        require(product_list[_id].state == State.with_distributor, \"Not authorized\");\r\n        _;\r\n    }\r\n\r\n    modifier only_consumer(address _add)\r\n    {\r\n        require(isConsumer(_add), \"Not authorized\");\r\n        _;\r\n    }\r\n\r\n    modifier canBuy(uint _id)\r\n    {\r\n        require(can_buy(_id), \"Item is not FOR SALE\");\r\n        _;\r\n    }\r\n\r\n    function can_buy(uint _id) internal view returns(bool)\r\n    {\r\n        if(product_list[_id].state == State.Packed || product_list[_id].state == State.with_distributor || product_list[_id].state == State.with_retailer)\r\n        {\r\n            return true;\r\n        }\r\n\r\n        return false; \r\n    }\r\n\r\n    function add_product(uint _id, uint saf_content, string memory _grade,uint _price) public\r\n    {\r\n        harvest_product(_id, saf_content);\r\n        dry_product(_id);\r\n        grading(_id, _grade);\r\n        packing(_id);\r\n        for_sale(_id, _price);\r\n    }\r\n\r\n    function harvest_product(uint _id, uint saf_content) public  {\r\n        require(isFarmer(msg.sender), \"You are not authorized to perform this operation\");\r\n        Product memory product;\r\n        product.id = _id;\r\n        product.safranal_content = saf_content;\r\n        product.farmer = payable(msg.sender);\r\n        product.Current_owner = product.farmer;\r\n        product.distributor = payable(address(0));\r\n        product.retailer = product.distributor;\r\n        product.consumer = product.distributor;\r\n        product.state = State.Harvested;\r\n        product_list[_id] = product;\r\n        existing[_id] = true;\r\n    }\r\n\r\n    function dry_product(uint _id) exist(_id) harvested(_id) confirm_farmer(_id) public{\r\n        product_list[_id].state = State.Dried;\r\n    }\r\n\r\n    function grading(uint _id, string memory _grade) exist(_id) dried(_id) confirm_farmer(_id) public{\r\n        product_list[_id].grade = _grade;\r\n        product_list[_id].state = State.Graded; \r\n    }\r\n    \r\n    function packing(uint _id) exist(_id) graded(_id) confirm_farmer(_id) public{\r\n        product_list[_id].state = State.Packed;\r\n    }\r\n    \r\n    function for_sale(uint _id, uint _price) exist(_id) packed(_id) confirm_farmer(_id) public{\r\n        product_list[_id].state = State.For_Sale;\r\n        product_list[_id].price = _price;\r\n    }\r\n\r\n    function get_response_from_verifiers (uint _id, uint safranal_content) public returns (bool)\r\n    {\r\n        bool confirmation = verify_auto(_id, safranal_content);\r\n        if(confirmation == false)\r\n        {\r\n            rep_score[product_list[_id].Current_owner] --;\r\n        }\r\n\r\n        else\r\n        {\r\n            rep_score[product_list[_id].Current_owner] ++;\r\n        }\r\n        return confirmation;\r\n    }\r\n\r\n    function sell_to_distributor(uint _id) exist(_id) forSale(_id) only_distributor(msg.sender) paid_enough(product_list[_id].price) public payable{\r\n        product_list[_id].Current_owner.transfer(product_list[_id].price);\r\n        product_list[_id].Current_owner = payable(msg.sender);\r\n        product_list[_id].distributor = payable(msg.sender);\r\n        product_list[_id].state = State.with_distributor;\r\n    }\r\n\r\n    function sell_to_retailer(uint _id) exist(_id) paid_enough(product_list[_id].price) only_retailer(msg.sender) withDistributor(_id) public payable\r\n    {\r\n        product_list[_id].Current_owner.transfer(product_list[_id].price);\r\n        product_list[_id].Current_owner = payable(msg.sender);\r\n        product_list[_id].retailer = payable(msg.sender);\r\n        product_list[_id].state = State.with_retailer;\r\n    }\r\n\r\n    function sell_to_consumer(uint _id) exist(_id) forSale(_id) paid_enough(product_list[_id].price)  only_consumer(msg.sender)  public payable\r\n    {\r\n        product_list[_id].Current_owner.transfer(msg.value);\r\n        product_list[_id].Current_owner = payable(msg.sender);\r\n        product_list[_id].consumer = payable(msg.sender);\r\n        product_list[_id].state = State.with_consumer;\r\n    }\r\n\r\n    function compareStrings(string memory a, string memory b) public view returns (bool) {\r\n    return (keccak256(abi.encodePacked((a))) == keccak256(abi.encodePacked((b))));\r\n}\r\n\r\n    function verify_auto(uint _id, uint safranal_content) public returns(bool){\r\n        reset();\r\n        select_5_people();\r\n        for(uint i = 0; i < selected_5_verifiers.length; i++)\r\n        {\r\n            uint random_number = generate_random(100, 1);\r\n            if(random_number >= 20)\r\n            {\r\n                if(safranal_content >= 85 && compareStrings(product_list[_id].grade, 'A') == true)\r\n                {\r\n                    registered[selected_5_verifiers[i]].verdict = true;\r\n                }\r\n\r\n                else if(safranal_content >= 70 && compareStrings(product_list[_id].grade, 'B') == true)\r\n                {\r\n                    registered[selected_5_verifiers[i]].verdict = true;\r\n                }\r\n\r\n                else if(safranal_content >= 60 && compareStrings(product_list[_id].grade, 'C') == true)\r\n                {\r\n                    registered[selected_5_verifiers[i]].verdict = true;\r\n                }\r\n\r\n                else if(safranal_content >= 50 && compareStrings(product_list[_id].grade, 'D') == true)\r\n                {\r\n                    registered[selected_5_verifiers[i]].verdict = true;\r\n                }\r\n\r\n                else\r\n                {\r\n                    registered[selected_5_verifiers[i]].verdict = false;\r\n                } \r\n            }\r\n\r\n            else\r\n            {\r\n                if(safranal_content < 85 && compareStrings(product_list[_id].grade, 'A') == true)\r\n                {\r\n                    registered[selected_5_verifiers[i]].verdict = true;\r\n                }\r\n\r\n                else if(safranal_content < 70 && compareStrings(product_list[_id].grade, 'B') == true)\r\n                {\r\n                    registered[selected_5_verifiers[i]].verdict = true;\r\n                }\r\n\r\n                else if(safranal_content < 60 && compareStrings(product_list[_id].grade, 'C') == true)\r\n                {\r\n                    registered[selected_5_verifiers[i]].verdict = true;\r\n                }\r\n\r\n                else if(safranal_content < 50 && compareStrings(product_list[_id].grade, 'D') == true)\r\n                {\r\n                    registered[selected_5_verifiers[i]].verdict = true;\r\n                }\r\n\r\n                else\r\n                {\r\n                    registered[selected_5_verifiers[i]].verdict = false;\r\n                } \r\n            }\r\n        }\r\n        return update_score();\r\n    }\r\n\r\n    function get_rep_score(address _add) public view returns (uint)\r\n    {\r\n        return rep_score[_add];\r\n    }\r\n\r\n    function decrement_rep_score(address _add) public\r\n    {\r\n        rep_score[_add] --;\r\n    }\r\n\r\n    function increment_rep_score(address _add) public\r\n    {\r\n        rep_score[_add] ++;\r\n    }\r\n\r\n}",
  "sourcePath": "F:/project/SS_Project (2)/SS_Project/contracts/SupplyChain/SupplyChain.sol",
  "compiler": {
    "name": "solc",
    "version": "0.8.14+commit.80d49f37.Emscripten.clang"
  },
  "schemaVersion": "3.3.4",
  "updatedAt": "2022-06-08T11:19:59.361Z",
  "networkType": "ethereum",
  "devdoc": {
    "kind": "dev",
    "methods": {},
    "version": 1
  },
  "userdoc": {
    "kind": "user",
    "methods": {},
    "version": 1
  }
}