{
  "contractName": "SupplyChain",
  "abi": [
    {
      "inputs": [
        {
          "internalType": "address",
          "name": "_add",
          "type": "address"
        }
      ],
      "name": "addConsumer",
      "outputs": [],
      "stateMutability": "nonpayable",
      "type": "function"
    },
    {
      "inputs": [
        {
          "internalType": "address",
          "name": "_add",
          "type": "address"
        }
      ],
      "name": "addDistributor",
      "outputs": [],
      "stateMutability": "nonpayable",
      "type": "function"
    },
    {
      "inputs": [
        {
          "internalType": "address",
          "name": "_add",
          "type": "address"
        }
      ],
      "name": "addFarmer",
      "outputs": [],
      "stateMutability": "nonpayable",
      "type": "function"
    },
    {
      "inputs": [
        {
          "internalType": "address",
          "name": "_add",
          "type": "address"
        }
      ],
      "name": "addRetailer",
      "outputs": [],
      "stateMutability": "nonpayable",
      "type": "function"
    },
    {
      "inputs": [
        {
          "internalType": "uint256",
          "name": "num_max",
          "type": "uint256"
        },
        {
          "internalType": "uint256",
          "name": "num_min",
          "type": "uint256"
        }
      ],
      "name": "generate_random",
      "outputs": [
        {
          "internalType": "uint256",
          "name": "",
          "type": "uint256"
        }
      ],
      "stateMutability": "nonpayable",
      "type": "function"
    },
    {
      "inputs": [
        {
          "internalType": "address",
          "name": "_add",
          "type": "address"
        }
      ],
      "name": "isConsumer",
      "outputs": [
        {
          "internalType": "bool",
          "name": "",
          "type": "bool"
        }
      ],
      "stateMutability": "view",
      "type": "function",
      "constant": true
    },
    {
      "inputs": [
        {
          "internalType": "address",
          "name": "_add",
          "type": "address"
        }
      ],
      "name": "isDistributor",
      "outputs": [
        {
          "internalType": "bool",
          "name": "",
          "type": "bool"
        }
      ],
      "stateMutability": "view",
      "type": "function",
      "constant": true
    },
    {
      "inputs": [
        {
          "internalType": "address",
          "name": "_add",
          "type": "address"
        }
      ],
      "name": "isFarmer",
      "outputs": [
        {
          "internalType": "bool",
          "name": "",
          "type": "bool"
        }
      ],
      "stateMutability": "view",
      "type": "function",
      "constant": true
    },
    {
      "inputs": [
        {
          "internalType": "address",
          "name": "_add",
          "type": "address"
        }
      ],
      "name": "isRetailer",
      "outputs": [
        {
          "internalType": "bool",
          "name": "",
          "type": "bool"
        }
      ],
      "stateMutability": "view",
      "type": "function",
      "constant": true
    },
    {
      "inputs": [],
      "name": "random_num",
      "outputs": [
        {
          "internalType": "uint256",
          "name": "",
          "type": "uint256"
        }
      ],
      "stateMutability": "view",
      "type": "function",
      "constant": true
    },
    {
      "inputs": [
        {
          "internalType": "address",
          "name": "_add",
          "type": "address"
        }
      ],
      "name": "removeConsumer",
      "outputs": [],
      "stateMutability": "nonpayable",
      "type": "function"
    },
    {
      "inputs": [
        {
          "internalType": "address",
          "name": "_add",
          "type": "address"
        }
      ],
      "name": "removeDistributor",
      "outputs": [],
      "stateMutability": "nonpayable",
      "type": "function"
    },
    {
      "inputs": [
        {
          "internalType": "address",
          "name": "_add",
          "type": "address"
        }
      ],
      "name": "removeFarmer",
      "outputs": [],
      "stateMutability": "nonpayable",
      "type": "function"
    },
    {
      "inputs": [
        {
          "internalType": "address",
          "name": "_add",
          "type": "address"
        }
      ],
      "name": "removeRetailer",
      "outputs": [],
      "stateMutability": "nonpayable",
      "type": "function"
    },
    {
      "inputs": [],
      "name": "reset",
      "outputs": [],
      "stateMutability": "nonpayable",
      "type": "function"
    },
    {
      "inputs": [],
      "name": "ver_register",
      "outputs": [],
      "stateMutability": "nonpayable",
      "type": "function"
    },
    {
      "inputs": [],
      "name": "verify_auto",
      "outputs": [
        {
          "internalType": "bool",
          "name": "",
          "type": "bool"
        }
      ],
      "stateMutability": "nonpayable",
      "type": "function"
    },
    {
      "inputs": [
        {
          "internalType": "uint256",
          "name": "_id",
          "type": "uint256"
        }
      ],
      "name": "harvest_product",
      "outputs": [],
      "stateMutability": "nonpayable",
      "type": "function"
    },
    {
      "inputs": [
        {
          "internalType": "uint256",
          "name": "_id",
          "type": "uint256"
        }
      ],
      "name": "dry_product",
      "outputs": [],
      "stateMutability": "nonpayable",
      "type": "function"
    },
    {
      "inputs": [
        {
          "internalType": "uint256",
          "name": "_id",
          "type": "uint256"
        },
        {
          "internalType": "string",
          "name": "_grade",
          "type": "string"
        }
      ],
      "name": "grading",
      "outputs": [],
      "stateMutability": "nonpayable",
      "type": "function"
    },
    {
      "inputs": [
        {
          "internalType": "uint256",
          "name": "_id",
          "type": "uint256"
        }
      ],
      "name": "packing",
      "outputs": [],
      "stateMutability": "nonpayable",
      "type": "function"
    },
    {
      "inputs": [
        {
          "internalType": "uint256",
          "name": "_id",
          "type": "uint256"
        }
      ],
      "name": "for_sale",
      "outputs": [],
      "stateMutability": "nonpayable",
      "type": "function"
    },
    {
      "inputs": [
        {
          "internalType": "uint256",
          "name": "_id",
          "type": "uint256"
        }
      ],
      "name": "get_response_from_verifiers",
      "outputs": [
        {
          "internalType": "bool",
          "name": "",
          "type": "bool"
        }
      ],
      "stateMutability": "nonpayable",
      "type": "function"
    },
    {
      "inputs": [
        {
          "internalType": "uint256",
          "name": "_id",
          "type": "uint256"
        }
      ],
      "name": "sell_to_distributor",
      "outputs": [],
      "stateMutability": "payable",
      "type": "function",
      "payable": true
    },
    {
      "inputs": [
        {
          "internalType": "uint256",
          "name": "_id",
          "type": "uint256"
        }
      ],
      "name": "sell_to_retialer",
      "outputs": [],
      "stateMutability": "payable",
      "type": "function",
      "payable": true
    },
    {
      "inputs": [
        {
          "internalType": "uint256",
          "name": "_id",
          "type": "uint256"
        }
      ],
      "name": "sell_to_consumer",
      "outputs": [],
      "stateMutability": "payable",
      "type": "function",
      "payable": true
    }
  ],
  "bytecode": "0x608060405260006004556000600a5534801561001a57600080fd5b506136928061002a6000396000f3fe6080604052600436106101815760003560e01c80638ec4f505116100d1578063d826f88f1161008a578063edde834911610064578063edde834914610555578063eefbb33f14610580578063f02e94ea1461059c578063fb25b49a146105b857610181565b8063d826f88f146104ec578063e2f8678a14610503578063e6bf3fdc1461052c57610181565b80638ec4f505146103cc5780638f0c86fa146103f55780639a5c1ef114610432578063a1c93ca81461045b578063b942906914610486578063caca7746146104c357610181565b806370099ec81161013e5780637d0703f4116101185780637d0703f41461030057806380c3f96d14610329578063834ff73914610352578063870883551461038f57610181565b806370099ec8146102975780637250e224146102c0578063793a8866146102e957610181565b80630652bebf146101865780630e27e3df146101a2578063112940f9146101cb57806357c1f9e2146101f45780635da09b881461021d578063657beffc1461025a575b600080fd5b6101a0600480360381019061019b9190612a73565b6105e1565b005b3480156101ae57600080fd5b506101c960048036038101906101c49190612afe565b6108fa565b005b3480156101d757600080fd5b506101f260048036038101906101ed9190612afe565b610908565b005b34801561020057600080fd5b5061021b60048036038101906102169190612afe565b610916565b005b34801561022957600080fd5b50610244600480360381019061023f9190612afe565b610924565b6040516102519190612b46565b60405180910390f35b34801561026657600080fd5b50610281600480360381019061027c9190612a73565b610938565b60405161028e9190612b46565b60405180910390f35b3480156102a357600080fd5b506102be60048036038101906102b99190612afe565b610a76565b005b3480156102cc57600080fd5b506102e760048036038101906102e29190612afe565b610a84565b005b3480156102f557600080fd5b506102fe610a92565b005b34801561030c57600080fd5b5061032760048036038101906103229190612a73565b610cd5565b005b34801561033557600080fd5b50610350600480360381019061034b9190612afe565b610eb2565b005b34801561035e57600080fd5b5061037960048036038101906103749190612afe565b610ec0565b6040516103869190612b46565b60405180910390f35b34801561039b57600080fd5b506103b660048036038101906103b19190612b61565b610ed4565b6040516103c39190612bb0565b60405180910390f35b3480156103d857600080fd5b506103f360048036038101906103ee9190612afe565b610f80565b005b34801561040157600080fd5b5061041c60048036038101906104179190612afe565b610f8e565b6040516104299190612b46565b60405180910390f35b34801561043e57600080fd5b5061045960048036038101906104549190612a73565b610fa2565b005b34801561046757600080fd5b5061047061117f565b60405161047d9190612b46565b60405180910390f35b34801561049257600080fd5b506104ad60048036038101906104a89190612afe565b61127b565b6040516104ba9190612b46565b60405180910390f35b3480156104cf57600080fd5b506104ea60048036038101906104e59190612d11565b61128f565b005b3480156104f857600080fd5b50610501611498565b005b34801561050f57600080fd5b5061052a60048036038101906105259190612a73565b6115aa565b005b34801561053857600080fd5b50610553600480360381019061054e9190612afe565b61193c565b005b34801561056157600080fd5b5061056a61194a565b6040516105779190612bb0565b60405180910390f35b61059a60048036038101906105959190612a73565b611950565b005b6105b660048036038101906105b19190612a73565b611c69565b005b3480156105c457600080fd5b506105df60048036038101906105da9190612a73565b611f82565b005b80600115156010600083815260200190815260200160002060009054906101000a900460ff16151514610649576040517f08c379a000000000000000000000000000000000000000000000000000000000815260040161064090612dca565b60405180910390fd5b816004600781111561065e5761065d612dea565b5b600f600083815260200190815260200160002060070160149054906101000a900460ff16600781111561069457610693612dea565b5b146106d4576040517f08c379a00000000000000000000000000000000000000000000000000000000081526004016106cb90612e65565b60405180910390fd5b600f6000848152602001908152602001600020600201548034101561072e576040517f08c379a000000000000000000000000000000000000000000000000000000000815260040161072590612ef7565b60405180910390fd5b3361073881610ec0565b610777576040517f08c379a000000000000000000000000000000000000000000000000000000000815260040161076e90612f63565b60405180910390fd5b600f600086815260200190815260200160002060070160009054906101000a900473ffffffffffffffffffffffffffffffffffffffff1673ffffffffffffffffffffffffffffffffffffffff166108fc600f6000888152602001908152602001600020600201549081150290604051600060405180830381858888f19350505050158015610809573d6000803e3d6000fd5b5033600f600087815260200190815260200160002060070160006101000a81548173ffffffffffffffffffffffffffffffffffffffff021916908373ffffffffffffffffffffffffffffffffffffffff16021790555033600f600087815260200190815260200160002060060160006101000a81548173ffffffffffffffffffffffffffffffffffffffff021916908373ffffffffffffffffffffffffffffffffffffffff1602179055506007600f600087815260200190815260200160002060070160146101000a81548160ff021916908360078111156108ee576108ed612dea565b5b02179055505050505050565b61090560038261215f565b50565b610913600382612275565b50565b61092160018261215f565b50565b600061093160028361238c565b9050919050565b60008061094361117f565b905060001515811515036109e157600e6000600f600086815260200190815260200160002060070160009054906101000a900473ffffffffffffffffffffffffffffffffffffffff1673ffffffffffffffffffffffffffffffffffffffff1673ffffffffffffffffffffffffffffffffffffffff16815260200190815260200160002060008154809291906109d790612fb2565b9190505550610a6d565b600e6000600f600086815260200190815260200160002060070160009054906101000a900473ffffffffffffffffffffffffffffffffffffffff1673ffffffffffffffffffffffffffffffffffffffff1673ffffffffffffffffffffffffffffffffffffffff1681526020019081526020016000206000815480929190610a6790612fdb565b91905055505b80915050919050565b610a8160028261215f565b50565b610a8f600182612275565b50565b60001515600b60003373ffffffffffffffffffffffffffffffffffffffff1673ffffffffffffffffffffffffffffffffffffffff16815260200190815260200160002060009054906101000a900460ff16151514610aef57600080fd5b6001600b60003373ffffffffffffffffffffffffffffffffffffffff1673ffffffffffffffffffffffffffffffffffffffff16815260200190815260200160002060006101000a81548160ff021916908315150217905550610b4f612890565b600a6000815480929190610b6290612fdb565b91905055816000018181525050600181602001818152505080600c600083600001518152602001908152602001600020600082015181600001556020820151816001015560408201518160020160006101000a81548160ff0219169083151502179055509050506001600960008360000151815260200190815260200160002060006101000a81548160ff0219169083151502179055506006819080600181540180825580915050600190039060005260206000209060030201600090919091909150600082015181600001556020820151816001015560408201518160020160006101000a81548160ff021916908315150217905550505080600d60003373ffffffffffffffffffffffffffffffffffffffff1673ffffffffffffffffffffffffffffffffffffffff168152602001908152602001600020600082015181600001556020820151816001015560408201518160020160006101000a81548160ff02191690831515021790555090505050565b80600115156010600083815260200190815260200160002060009054906101000a900460ff16151514610d3d576040517f08c379a0000000000000000000000000000000000000000000000000000000008152600401610d3490612dca565b60405180910390fd5b8160006007811115610d5257610d51612dea565b5b600f600083815260200190815260200160002060070160149054906101000a900460ff166007811115610d8857610d87612dea565b5b14610dc8576040517f08c379a0000000000000000000000000000000000000000000000000000000008152600401610dbf9061306f565b60405180910390fd5b823373ffffffffffffffffffffffffffffffffffffffff16600f600083815260200190815260200160002060030160009054906101000a900473ffffffffffffffffffffffffffffffffffffffff1673ffffffffffffffffffffffffffffffffffffffff1614610e6d576040517f08c379a0000000000000000000000000000000000000000000000000000000008152600401610e6490612f63565b60405180910390fd5b6001600f600086815260200190815260200160002060070160146101000a81548160ff02191690836007811115610ea757610ea6612dea565b5b021790555050505050565b610ebd600082612275565b50565b6000610ecd60038361238c565b9050919050565b600060046000815480929190610ee990612fdb565b919050555060644233600454604051602001610f07939291906130f8565b6040516020818303038152906040528051906020012060001c610f2a9190613164565b60058190555060006064905060008385610f449190613195565b90508382826000600554610f589190613195565b610f6291906131c9565b610f6c9190613223565b610f769190613254565b9250505092915050565b610f8b600282612275565b50565b6000610f9b60018361238c565b9050919050565b80600115156010600083815260200190815260200160002060009054906101000a900460ff1615151461100a576040517f08c379a000000000000000000000000000000000000000000000000000000000815260040161100190612dca565b60405180910390fd5b816002600781111561101f5761101e612dea565b5b600f600083815260200190815260200160002060070160149054906101000a900460ff16600781111561105557611054612dea565b5b14611095576040517f08c379a000000000000000000000000000000000000000000000000000000000815260040161108c906132f6565b60405180910390fd5b823373ffffffffffffffffffffffffffffffffffffffff16600f600083815260200190815260200160002060030160009054906101000a900473ffffffffffffffffffffffffffffffffffffffff1673ffffffffffffffffffffffffffffffffffffffff161461113a576040517f08c379a000000000000000000000000000000000000000000000000000000000815260040161113190612f63565b60405180910390fd5b6003600f600086815260200190815260200160002060070160146101000a81548160ff0219169083600781111561117457611173612dea565b5b021790555050505050565b6000611189611498565b611191612453565b60005b60088054905081101561126d5760006111af60646001610ed4565b9050601e811061120b576001600c6000600885815481106111d3576111d2613316565b5b9060005260206000200154815260200190815260200160002060020160006101000a81548160ff021916908315150217905550611259565b6000600c60006008858154811061122557611224613316565b5b9060005260206000200154815260200190815260200160002060020160006101000a81548160ff0219169083151502179055505b50808061126590612fdb565b915050611194565b506112766124c3565b905090565b600061128860008361238c565b9050919050565b81600115156010600083815260200190815260200160002060009054906101000a900460ff161515146112f7576040517f08c379a00000000000000000000000000000000000000000000000000000000081526004016112ee90612dca565b60405180910390fd5b826001600781111561130c5761130b612dea565b5b600f600083815260200190815260200160002060070160149054906101000a900460ff16600781111561134257611341612dea565b5b14611382576040517f08c379a000000000000000000000000000000000000000000000000000000000815260040161137990613391565b60405180910390fd5b833373ffffffffffffffffffffffffffffffffffffffff16600f600083815260200190815260200160002060030160009054906101000a900473ffffffffffffffffffffffffffffffffffffffff1673ffffffffffffffffffffffffffffffffffffffff1614611427576040517f08c379a000000000000000000000000000000000000000000000000000000000815260040161141e90612f63565b60405180910390fd5b83600f600087815260200190815260200160002060080190805190602001906114519291906128b3565b506002600f600087815260200190815260200160002060070160146101000a81548160ff0219169083600781111561148c5761148b612dea565b5b02179055505050505050565b60005b60068054905081101561150c57600160096000600684815481106114c2576114c1613316565b5b906000526020600020906003020160000154815260200190815260200160002060006101000a81548160ff021916908315150217905550808061150490612fdb565b91505061149b565b50600060078054905090505b6000811461155b576007805480611532576115316133b1565b5b60019003818190600052602060002001600090559055808061155390612fb2565b915050611518565b60088054905090505b600081146115a757600880548061157e5761157d6133b1565b5b60019003818190600052602060002001600090559055808061159f90612fb2565b915050611564565b50565b6115b33361127b565b6115bc57600080fd5b6115c4612939565b8181600001818152505033816060019073ffffffffffffffffffffffffffffffffffffffff16908173ffffffffffffffffffffffffffffffffffffffff168152505080606001518160e0019073ffffffffffffffffffffffffffffffffffffffff16908173ffffffffffffffffffffffffffffffffffffffff16815250506000816080019073ffffffffffffffffffffffffffffffffffffffff16908173ffffffffffffffffffffffffffffffffffffffff168152505080608001518160a0019073ffffffffffffffffffffffffffffffffffffffff16908173ffffffffffffffffffffffffffffffffffffffff168152505080608001518160c0019073ffffffffffffffffffffffffffffffffffffffff16908173ffffffffffffffffffffffffffffffffffffffff16815250506000816101000190600781111561170d5761170c612dea565b5b9081600781111561172157611720612dea565b5b8152505080600f600084815260200190815260200160002060008201518160000155602082015181600101556040820151816002015560608201518160030160006101000a81548173ffffffffffffffffffffffffffffffffffffffff021916908373ffffffffffffffffffffffffffffffffffffffff16021790555060808201518160040160006101000a81548173ffffffffffffffffffffffffffffffffffffffff021916908373ffffffffffffffffffffffffffffffffffffffff16021790555060a08201518160050160006101000a81548173ffffffffffffffffffffffffffffffffffffffff021916908373ffffffffffffffffffffffffffffffffffffffff16021790555060c08201518160060160006101000a81548173ffffffffffffffffffffffffffffffffffffffff021916908373ffffffffffffffffffffffffffffffffffffffff16021790555060e08201518160070160006101000a81548173ffffffffffffffffffffffffffffffffffffffff021916908373ffffffffffffffffffffffffffffffffffffffff1602179055506101008201518160070160146101000a81548160ff021916908360078111156118e6576118e5612dea565b5b02179055506101208201518160080190805190602001906119089291906128b3565b5090505060016010600084815260200190815260200160002060006101000a81548160ff0219169083151502179055505050565b61194760008261215f565b50565b60055481565b80600115156010600083815260200190815260200160002060009054906101000a900460ff161515146119b8576040517f08c379a00000000000000000000000000000000000000000000000000000000081526004016119af90612dca565b60405180910390fd5b81600460078111156119cd576119cc612dea565b5b600f600083815260200190815260200160002060070160149054906101000a900460ff166007811115611a0357611a02612dea565b5b14611a43576040517f08c379a0000000000000000000000000000000000000000000000000000000008152600401611a3a90612e65565b60405180910390fd5b33611a4d81610f8e565b611a8c576040517f08c379a0000000000000000000000000000000000000000000000000000000008152600401611a8390612f63565b60405180910390fd5b600f60008581526020019081526020016000206002015480341015611ae6576040517f08c379a0000000000000000000000000000000000000000000000000000000008152600401611add90612ef7565b60405180910390fd5b600f600086815260200190815260200160002060070160009054906101000a900473ffffffffffffffffffffffffffffffffffffffff1673ffffffffffffffffffffffffffffffffffffffff166108fc600f6000888152602001908152602001600020600201549081150290604051600060405180830381858888f19350505050158015611b78573d6000803e3d6000fd5b5033600f600087815260200190815260200160002060070160006101000a81548173ffffffffffffffffffffffffffffffffffffffff021916908373ffffffffffffffffffffffffffffffffffffffff16021790555033600f600087815260200190815260200160002060040160006101000a81548173ffffffffffffffffffffffffffffffffffffffff021916908373ffffffffffffffffffffffffffffffffffffffff1602179055506005600f600087815260200190815260200160002060070160146101000a81548160ff02191690836007811115611c5d57611c5c612dea565b5b02179055505050505050565b80600115156010600083815260200190815260200160002060009054906101000a900460ff16151514611cd1576040517f08c379a0000000000000000000000000000000000000000000000000000000008152600401611cc890612dca565b60405180910390fd5b600f60008381526020019081526020016000206002015480341015611d2b576040517f08c379a0000000000000000000000000000000000000000000000000000000008152600401611d2290612ef7565b60405180910390fd5b33611d3581610924565b611d74576040517f08c379a0000000000000000000000000000000000000000000000000000000008152600401611d6b90612f63565b60405180910390fd5b8360056007811115611d8957611d88612dea565b5b600f600083815260200190815260200160002060070160149054906101000a900460ff166007811115611dbf57611dbe612dea565b5b14611dff576040517f08c379a0000000000000000000000000000000000000000000000000000000008152600401611df690612f63565b60405180910390fd5b600f600086815260200190815260200160002060070160009054906101000a900473ffffffffffffffffffffffffffffffffffffffff1673ffffffffffffffffffffffffffffffffffffffff166108fc600f6000888152602001908152602001600020600201549081150290604051600060405180830381858888f19350505050158015611e91573d6000803e3d6000fd5b5033600f600087815260200190815260200160002060070160006101000a81548173ffffffffffffffffffffffffffffffffffffffff021916908373ffffffffffffffffffffffffffffffffffffffff16021790555033600f600087815260200190815260200160002060050160006101000a81548173ffffffffffffffffffffffffffffffffffffffff021916908373ffffffffffffffffffffffffffffffffffffffff1602179055506006600f600087815260200190815260200160002060070160146101000a81548160ff02191690836007811115611f7657611f75612dea565b5b02179055505050505050565b80600115156010600083815260200190815260200160002060009054906101000a900460ff16151514611fea576040517f08c379a0000000000000000000000000000000000000000000000000000000008152600401611fe190612dca565b60405180910390fd5b8160036007811115611fff57611ffe612dea565b5b600f600083815260200190815260200160002060070160149054906101000a900460ff16600781111561203557612034612dea565b5b14612075576040517f08c379a000000000000000000000000000000000000000000000000000000000815260040161206c9061342c565b60405180910390fd5b823373ffffffffffffffffffffffffffffffffffffffff16600f600083815260200190815260200160002060030160009054906101000a900473ffffffffffffffffffffffffffffffffffffffff1673ffffffffffffffffffffffffffffffffffffffff161461211a576040517f08c379a000000000000000000000000000000000000000000000000000000000815260040161211190612f63565b60405180910390fd5b6004600f600086815260200190815260200160002060070160146101000a81548160ff0219169083600781111561215457612153612dea565b5b021790555050505050565b600073ffffffffffffffffffffffffffffffffffffffff168173ffffffffffffffffffffffffffffffffffffffff16036121ce576040517f08c379a00000000000000000000000000000000000000000000000000000000081526004016121c590613498565b60405180910390fd5b6121d8828261238c565b612217576040517f08c379a000000000000000000000000000000000000000000000000000000000815260040161220e90613504565b60405180910390fd5b60008260000160008373ffffffffffffffffffffffffffffffffffffffff1673ffffffffffffffffffffffffffffffffffffffff16815260200190815260200160002060006101000a81548160ff0219169083151502179055505050565b600073ffffffffffffffffffffffffffffffffffffffff168173ffffffffffffffffffffffffffffffffffffffff16036122e4576040517f08c379a00000000000000000000000000000000000000000000000000000000081526004016122db90613498565b60405180910390fd5b6122ee828261238c565b1561232e576040517f08c379a000000000000000000000000000000000000000000000000000000000815260040161232590613570565b60405180910390fd5b60018260000160008373ffffffffffffffffffffffffffffffffffffffff1673ffffffffffffffffffffffffffffffffffffffff16815260200190815260200160002060006101000a81548160ff0219169083151502179055505050565b60008073ffffffffffffffffffffffffffffffffffffffff168273ffffffffffffffffffffffffffffffffffffffff16036123fc576040517f08c379a00000000000000000000000000000000000000000000000000000000081526004016123f3906135dc565b60405180910390fd5b8260000160008373ffffffffffffffffffffffffffffffffffffffff1673ffffffffffffffffffffffffffffffffffffffff16815260200190815260200160002060009054906101000a900460ff16905092915050565b6005600680549050101561246657600080fd5b6000600590505b600081146124c057600861247f6125e1565b908060018154018082558091505060019003906000526020600020016000909190919091505580806124b090612fb2565b9150506124bb612789565b61246d565b50565b6000806124ce6127da565b905060005b6008805490508110156125d957600c6000600883815481106124f8576124f7613316565b5b9060005260206000200154815260200190815260200160002060020160009054906101000a900460ff1615158215150361257b57600c60006008838154811061254457612543613316565b5b90600052602060002001548152602001908152602001600020600101600081548092919061257190612fdb565b91905055506125c6565b600c60006008838154811061259357612592613316565b5b9060005260206000200154815260200190815260200160002060010160008154809291906125c090612fb2565b91905055505b80806125d190612fdb565b9150506124d3565b508091505090565b60008060005b6006805490508110156126f8576001151560096000600684815481106126105761260f613316565b5b906000526020600020906003020160000154815260200190815260200160002060009054906101000a900460ff161515036126df576006818154811061265957612658613316565b5b906000526020600020906003020160010154915060005b828110156126d95760076006838154811061268e5761268d613316565b5b906000526020600020906003020160000154908060018154018082558091505060019003906000526020600020016000909190919091505580806126d190612fdb565b915050612670565b506126e4565b6126e5565b5b80806126f090612fdb565b9150506125e7565b50600061271760016007805490506127109190613195565b6000610ed4565b90506000600960006007848154811061273357612732613316565b5b9060005260206000200154815260200190815260200160002060006101000a81548160ff0219169083151502179055506007818154811061277757612776613316565b5b90600052602060002001549250505090565b600060078054905090505b600081146127d75760078054806127ae576127ad6133b1565b5b6001900381819060005260206000200160009055905580806127cf90612fb2565b915050612794565b50565b6000600560088054905010156127ef57600080fd5b60008060005b6008805490508110156128845760011515600c60006008848154811061281e5761281d613316565b5b9060005260206000200154815260200190815260200160002060020160009054906101000a900460ff1615150361286257828061285a90612fdb565b935050612871565b818061286d90612fdb565b9250505b808061287c90612fdb565b9150506127f5565b50808210159250505090565b604051806060016040528060008152602001600081526020016000151581525090565b8280546128bf9061362b565b90600052602060002090601f0160209004810192826128e15760008555612928565b82601f106128fa57805160ff1916838001178555612928565b82800160010185558215612928579182015b8281111561292757825182559160200191906001019061290c565b5b5090506129359190612a0c565b5090565b604051806101400160405280600081526020016000815260200160008152602001600073ffffffffffffffffffffffffffffffffffffffff168152602001600073ffffffffffffffffffffffffffffffffffffffff168152602001600073ffffffffffffffffffffffffffffffffffffffff168152602001600073ffffffffffffffffffffffffffffffffffffffff168152602001600073ffffffffffffffffffffffffffffffffffffffff168152602001600060078111156129ff576129fe612dea565b5b8152602001606081525090565b5b80821115612a25576000816000905550600101612a0d565b5090565b6000604051905090565b600080fd5b600080fd5b6000819050919050565b612a5081612a3d565b8114612a5b57600080fd5b50565b600081359050612a6d81612a47565b92915050565b600060208284031215612a8957612a88612a33565b5b6000612a9784828501612a5e565b91505092915050565b600073ffffffffffffffffffffffffffffffffffffffff82169050919050565b6000612acb82612aa0565b9050919050565b612adb81612ac0565b8114612ae657600080fd5b50565b600081359050612af881612ad2565b92915050565b600060208284031215612b1457612b13612a33565b5b6000612b2284828501612ae9565b91505092915050565b60008115159050919050565b612b4081612b2b565b82525050565b6000602082019050612b5b6000830184612b37565b92915050565b60008060408385031215612b7857612b77612a33565b5b6000612b8685828601612a5e565b9250506020612b9785828601612a5e565b9150509250929050565b612baa81612a3d565b82525050565b6000602082019050612bc56000830184612ba1565b92915050565b600080fd5b600080fd5b6000601f19601f8301169050919050565b7f4e487b7100000000000000000000000000000000000000000000000000000000600052604160045260246000fd5b612c1e82612bd5565b810181811067ffffffffffffffff82111715612c3d57612c3c612be6565b5b80604052505050565b6000612c50612a29565b9050612c5c8282612c15565b919050565b600067ffffffffffffffff821115612c7c57612c7b612be6565b5b612c8582612bd5565b9050602081019050919050565b82818337600083830152505050565b6000612cb4612caf84612c61565b612c46565b905082815260208101848484011115612cd057612ccf612bd0565b5b612cdb848285612c92565b509392505050565b600082601f830112612cf857612cf7612bcb565b5b8135612d08848260208601612ca1565b91505092915050565b60008060408385031215612d2857612d27612a33565b5b6000612d3685828601612a5e565b925050602083013567ffffffffffffffff811115612d5757612d56612a38565b5b612d6385828601612ce3565b9150509250929050565b600082825260208201905092915050565b7f50726f6475637420646f65736e27742065786973740000000000000000000000600082015250565b6000612db4601583612d6d565b9150612dbf82612d7e565b602082019050919050565b60006020820190508181036000830152612de381612da7565b9050919050565b7f4e487b7100000000000000000000000000000000000000000000000000000000600052602160045260246000fd5b7f4e6f7420666f722073616c650000000000000000000000000000000000000000600082015250565b6000612e4f600c83612d6d565b9150612e5a82612e19565b602082019050919050565b60006020820190508181036000830152612e7e81612e42565b9050919050565b7f54686520616d6f756e74206973206e6f742073756666696369656e7420746f2060008201527f627579207468652070726f647563740000000000000000000000000000000000602082015250565b6000612ee1602f83612d6d565b9150612eec82612e85565b604082019050919050565b60006020820190508181036000830152612f1081612ed4565b9050919050565b7f4e6f7420617574686f72697a6564000000000000000000000000000000000000600082015250565b6000612f4d600e83612d6d565b9150612f5882612f17565b602082019050919050565b60006020820190508181036000830152612f7c81612f40565b9050919050565b7f4e487b7100000000000000000000000000000000000000000000000000000000600052601160045260246000fd5b6000612fbd82612a3d565b915060008203612fd057612fcf612f83565b5b600182039050919050565b6000612fe682612a3d565b91507fffffffffffffffffffffffffffffffffffffffffffffffffffffffffffffffff820361301857613017612f83565b5b600182019050919050565b7f53616666726f6e206973206e6f74206861727665737465640000000000000000600082015250565b6000613059601883612d6d565b915061306482613023565b602082019050919050565b600060208201905081810360008301526130888161304c565b9050919050565b6000819050919050565b6130aa6130a582612a3d565b61308f565b82525050565b60008160601b9050919050565b60006130c8826130b0565b9050919050565b60006130da826130bd565b9050919050565b6130f26130ed82612ac0565b6130cf565b82525050565b60006131048286613099565b60208201915061311482856130e1565b6014820191506131248284613099565b602082019150819050949350505050565b7f4e487b7100000000000000000000000000000000000000000000000000000000600052601260045260246000fd5b600061316f82612a3d565b915061317a83612a3d565b92508261318a57613189613135565b5b828206905092915050565b60006131a082612a3d565b91506131ab83612a3d565b9250828210156131be576131bd612f83565b5b828203905092915050565b60006131d482612a3d565b91506131df83612a3d565b9250817fffffffffffffffffffffffffffffffffffffffffffffffffffffffffffffffff048311821515161561321857613217612f83565b5b828202905092915050565b600061322e82612a3d565b915061323983612a3d565b92508261324957613248613135565b5b828204905092915050565b600061325f82612a3d565b915061326a83612a3d565b9250827fffffffffffffffffffffffffffffffffffffffffffffffffffffffffffffffff0382111561329f5761329e612f83565b5b828201905092915050565b7f53616666726f6e206973206e6f74206772616465640000000000000000000000600082015250565b60006132e0601583612d6d565b91506132eb826132aa565b602082019050919050565b6000602082019050818103600083015261330f816132d3565b9050919050565b7f4e487b7100000000000000000000000000000000000000000000000000000000600052603260045260246000fd5b7f53616666726f6e206973206e6f74206472696564000000000000000000000000600082015250565b600061337b601483612d6d565b915061338682613345565b602082019050919050565b600060208201905081810360008301526133aa8161336e565b9050919050565b7f4e487b7100000000000000000000000000000000000000000000000000000000600052603160045260246000fd5b7f53616666726f6e206973206e6f74207061636b65640000000000000000000000600082015250565b6000613416601583612d6d565b9150613421826133e0565b602082019050919050565b6000602082019050818103600083015261344581613409565b9050919050565b7f416464726573732063616e6e6f74206265207a65726f00000000000000000000600082015250565b6000613482601683612d6d565b915061348d8261344c565b602082019050919050565b600060208201905081810360008301526134b181613475565b9050919050565b7f4d656d62657220646f6573206e6f742065786973740000000000000000000000600082015250565b60006134ee601583612d6d565b91506134f9826134b8565b602082019050919050565b6000602082019050818103600083015261351d816134e1565b9050919050565b7f416c726561647920526567697374657265640000000000000000000000000000600082015250565b600061355a601283612d6d565b915061356582613524565b602082019050919050565b600060208201905081810360008301526135898161354d565b9050919050565b7f416464726573732063616e6e6f74206265207a65726f20616464726573730000600082015250565b60006135c6601e83612d6d565b91506135d182613590565b602082019050919050565b600060208201905081810360008301526135f5816135b9565b9050919050565b7f4e487b7100000000000000000000000000000000000000000000000000000000600052602260045260246000fd5b6000600282049050600182168061364357607f821691505b602082108103613656576136556135fc565b5b5091905056fea2646970667358221220db0db7a723f06358087528a66fe71a390bcc6257dbaefe82b9df84698e6411f764736f6c634300080e0033",
  "immutableReferences": {},
  "source": "// SPDX-License-Identifier: GPL-3.0\r\npragma solidity >=0.7.0 <0.9.0;\r\n\r\nimport '../Roles/Farmer.sol';\r\nimport '../Roles/Distributor.sol';\r\nimport '../Roles/Retailer.sol';\r\nimport '../Roles/Consumer.sol';\r\nimport '../consensus/verify_random.sol';\r\n\r\ncontract SupplyChain is Farmer, Distributor, Retailer, Consumer, verify_random{\r\n\r\n    mapping(address => uint) rep_score;\r\n\r\n    enum State{\r\n        Harvested,\r\n        Dried,   \r\n        Graded,\r\n        Packed,\r\n        For_Sale,\r\n        with_distributor,\r\n        with_retailer,\r\n        with_consumer\r\n    }\r\n\r\n    struct Product{\r\n        uint id;\r\n        uint safranal_content;\r\n        uint price;\r\n        address payable farmer;\r\n        address payable distributor;\r\n        address payable retailer;\r\n        address payable consumer;\r\n        address payable Current_owner;\r\n        State state;\r\n        string grade;\r\n    }\r\n\r\n    mapping (uint => Product) product_list;\r\n    mapping (uint => bool) existing;\r\n\r\n    modifier harvested(uint _id){\r\n        require(product_list[_id].state == State.Harvested, \"Saffron is not harvested\");\r\n        _;\r\n    }\r\n    \r\n    modifier dried(uint _id){\r\n        require(product_list[_id].state == State.Dried, \"Saffron is not dried\");\r\n        _;\r\n    }\r\n    \r\n    modifier graded(uint _id){\r\n        require(product_list[_id].state == State.Graded, \"Saffron is not graded\");\r\n        _;\r\n    }\r\n\r\n    modifier packed(uint _id){\r\n        require(product_list[_id].state == State.Packed, \"Saffron is not packed\");\r\n        _;\r\n    }\r\n\r\n    modifier exist(uint _id){\r\n        require(existing[_id] == true, \"Product doesn't exist\");\r\n        _;\r\n    }\r\n\r\n    modifier confirm_farmer(uint _id){\r\n        require(product_list[_id].farmer == msg.sender, \"Not authorized\");\r\n        _;\r\n    }\r\n\r\n    modifier only_distributor(address _add)\r\n    {\r\n        require(isDistributor(_add), \"Not authorized\");\r\n        _;\r\n    }\r\n\r\n    modifier only_retailer(address _add)\r\n    {\r\n        require(isRetailer(_add), \"Not authorized\");\r\n        _;\r\n    }\r\n\r\n    modifier forSale(uint _id){\r\n        require(product_list[_id].state == State.For_Sale, \"Not for sale\");\r\n        _;\r\n    }\r\n    \r\n    modifier paid_enough(uint _price) {\r\n        require(msg.value >= _price, \"The amount is not sufficient to buy the product\");\r\n        _;\r\n    }\r\n\r\n    modifier withDistributor(uint _id)\r\n    {\r\n        require(product_list[_id].state == State.with_distributor, \"Not authorized\");\r\n        _;\r\n    }\r\n\r\n    modifier only_consumer(address _add)\r\n    {\r\n        require(isConsumer(_add), \"Not authorized\");\r\n        _;\r\n    }\r\n\r\n    modifier canBuy(uint _id)\r\n    {\r\n        require(can_buy(_id), \"Item is not FOR SALE\");\r\n        _;\r\n    }\r\n\r\n    function can_buy(uint _id) internal view returns(bool)\r\n    {\r\n        if(product_list[_id].state == State.Packed || product_list[_id].state == State.with_distributor || product_list[_id].state == State.with_retailer)\r\n        {\r\n            return true;\r\n        }\r\n\r\n        return false; \r\n    }\r\n\r\n    function harvest_product(uint _id) public  {\r\n        require(isFarmer(msg.sender));\r\n        Product memory product;\r\n        product.id = _id;\r\n        product.farmer = payable(msg.sender);\r\n        product.Current_owner = product.farmer;\r\n        product.distributor = payable(address(0));\r\n        product.retailer = product.distributor;\r\n        product.consumer = product.distributor;\r\n        product.state = State.Harvested;\r\n        product_list[_id] = product;\r\n        existing[_id] = true;\r\n    }\r\n\r\n    function dry_product(uint _id) exist(_id) harvested(_id) confirm_farmer(_id) public{\r\n        product_list[_id].state = State.Dried;\r\n    }\r\n\r\n    function grading(uint _id, string memory _grade) exist(_id) dried(_id) confirm_farmer(_id) public{\r\n        product_list[_id].grade = _grade;\r\n        product_list[_id].state = State.Graded; \r\n    }\r\n    \r\n    function packing(uint _id) exist(_id) graded(_id) confirm_farmer(_id) public{\r\n        product_list[_id].state = State.Packed;\r\n    }\r\n    \r\n    function for_sale(uint _id) exist(_id) packed(_id) confirm_farmer(_id) public{\r\n        product_list[_id].state = State.For_Sale;\r\n    }\r\n\r\n    function get_response_from_verifiers (uint _id) public returns (bool)\r\n    {\r\n        bool confirmation = verify_auto();\r\n        if(confirmation == false)\r\n        {\r\n            rep_score[product_list[_id].Current_owner] --;\r\n        }\r\n\r\n        else\r\n        {\r\n            rep_score[product_list[_id].Current_owner] ++;\r\n        }\r\n        return confirmation;\r\n    }\r\n\r\n    function sell_to_distributor(uint _id) exist(_id) forSale(_id) only_distributor(msg.sender) paid_enough(product_list[_id].price) public payable{\r\n        product_list[_id].Current_owner.transfer(product_list[_id].price);\r\n        product_list[_id].Current_owner = payable(msg.sender);\r\n        product_list[_id].distributor = payable(msg.sender);\r\n        product_list[_id].state = State.with_distributor;\r\n    }\r\n\r\n    function sell_to_retialer(uint _id) exist(_id) paid_enough(product_list[_id].price) only_retailer(msg.sender) withDistributor(_id) public payable\r\n    {\r\n        product_list[_id].Current_owner.transfer(product_list[_id].price);\r\n        product_list[_id].Current_owner = payable(msg.sender);\r\n        product_list[_id].retailer = payable(msg.sender);\r\n        product_list[_id].state = State.with_retailer;\r\n    }\r\n\r\n    function sell_to_consumer(uint _id) exist(_id) forSale(_id) paid_enough(product_list[_id].price) only_consumer(msg.sender)  public payable\r\n    {\r\n        product_list[_id].Current_owner.transfer(product_list[_id].price);\r\n        product_list[_id].Current_owner = payable(msg.sender);\r\n        product_list[_id].consumer = payable(msg.sender);\r\n        product_list[_id].state = State.with_consumer;\r\n    }\r\n\r\n}",
  "sourcePath": "C:\\Users\\Mhaseeb\\Desktop\\SS_Project\\contracts\\SupplyChain\\SupplyChain.sol",
  "compiler": {
    "name": "solc",
    "version": "0.8.14+commit.80d49f37.Emscripten.clang"
  },
  "schemaVersion": "3.4.7",
  "updatedAt": "2022-05-25T16:51:38.267Z",
  "networkType": "ethereum",
  "devdoc": {
    "kind": "dev",
    "methods": {},
    "version": 1
  },
  "userdoc": {
    "kind": "user",
    "methods": {},
    "version": 1
  }
}