{
  "contractName": "SupplyChain",
  "abi": [
    {
      "inputs": [
        {
          "internalType": "address",
          "name": "_add",
          "type": "address"
        }
      ],
      "name": "addConsumer",
      "outputs": [],
      "stateMutability": "nonpayable",
      "type": "function"
    },
    {
      "inputs": [
        {
          "internalType": "address",
          "name": "_add",
          "type": "address"
        }
      ],
      "name": "addDistributor",
      "outputs": [],
      "stateMutability": "nonpayable",
      "type": "function"
    },
    {
      "inputs": [
        {
          "internalType": "address",
          "name": "_add",
          "type": "address"
        }
      ],
      "name": "addFarmer",
      "outputs": [],
      "stateMutability": "nonpayable",
      "type": "function"
    },
    {
      "inputs": [
        {
          "internalType": "address",
          "name": "_add",
          "type": "address"
        }
      ],
      "name": "addRetailer",
      "outputs": [],
      "stateMutability": "nonpayable",
      "type": "function"
    },
    {
      "inputs": [
        {
          "internalType": "uint256",
          "name": "num_max",
          "type": "uint256"
        },
        {
          "internalType": "uint256",
          "name": "num_min",
          "type": "uint256"
        }
      ],
      "name": "generate_random",
      "outputs": [
        {
          "internalType": "uint256",
          "name": "",
          "type": "uint256"
        }
      ],
      "stateMutability": "nonpayable",
      "type": "function"
    },
    {
      "inputs": [
        {
          "internalType": "address",
          "name": "_add",
          "type": "address"
        }
      ],
      "name": "isConsumer",
      "outputs": [
        {
          "internalType": "bool",
          "name": "",
          "type": "bool"
        }
      ],
      "stateMutability": "view",
      "type": "function",
      "constant": true
    },
    {
      "inputs": [
        {
          "internalType": "address",
          "name": "_add",
          "type": "address"
        }
      ],
      "name": "isDistributor",
      "outputs": [
        {
          "internalType": "bool",
          "name": "",
          "type": "bool"
        }
      ],
      "stateMutability": "view",
      "type": "function",
      "constant": true
    },
    {
      "inputs": [
        {
          "internalType": "address",
          "name": "_add",
          "type": "address"
        }
      ],
      "name": "isFarmer",
      "outputs": [
        {
          "internalType": "bool",
          "name": "",
          "type": "bool"
        }
      ],
      "stateMutability": "view",
      "type": "function",
      "constant": true
    },
    {
      "inputs": [
        {
          "internalType": "address",
          "name": "_add",
          "type": "address"
        }
      ],
      "name": "isRetailer",
      "outputs": [
        {
          "internalType": "bool",
          "name": "",
          "type": "bool"
        }
      ],
      "stateMutability": "view",
      "type": "function",
      "constant": true
    },
    {
      "inputs": [
        {
          "internalType": "uint256",
          "name": "",
          "type": "uint256"
        }
      ],
      "name": "product_list",
      "outputs": [
        {
          "internalType": "uint256",
          "name": "id",
          "type": "uint256"
        },
        {
          "internalType": "uint256",
          "name": "safranal_content",
          "type": "uint256"
        },
        {
          "internalType": "uint256",
          "name": "price",
          "type": "uint256"
        },
        {
          "internalType": "address payable",
          "name": "farmer",
          "type": "address"
        },
        {
          "internalType": "address payable",
          "name": "distributor",
          "type": "address"
        },
        {
          "internalType": "address payable",
          "name": "retailer",
          "type": "address"
        },
        {
          "internalType": "address payable",
          "name": "consumer",
          "type": "address"
        },
        {
          "internalType": "address payable",
          "name": "Current_owner",
          "type": "address"
        },
        {
          "internalType": "enum SupplyChain.State",
          "name": "state",
          "type": "uint8"
        },
        {
          "internalType": "string",
          "name": "grade",
          "type": "string"
        }
      ],
      "stateMutability": "view",
      "type": "function",
      "constant": true
    },
    {
      "inputs": [],
      "name": "random_num",
      "outputs": [
        {
          "internalType": "uint256",
          "name": "",
          "type": "uint256"
        }
      ],
      "stateMutability": "view",
      "type": "function",
      "constant": true
    },
    {
      "inputs": [
        {
          "internalType": "address",
          "name": "_add",
          "type": "address"
        }
      ],
      "name": "removeConsumer",
      "outputs": [],
      "stateMutability": "nonpayable",
      "type": "function"
    },
    {
      "inputs": [
        {
          "internalType": "address",
          "name": "_add",
          "type": "address"
        }
      ],
      "name": "removeDistributor",
      "outputs": [],
      "stateMutability": "nonpayable",
      "type": "function"
    },
    {
      "inputs": [
        {
          "internalType": "address",
          "name": "_add",
          "type": "address"
        }
      ],
      "name": "removeFarmer",
      "outputs": [],
      "stateMutability": "nonpayable",
      "type": "function"
    },
    {
      "inputs": [
        {
          "internalType": "address",
          "name": "_add",
          "type": "address"
        }
      ],
      "name": "removeRetailer",
      "outputs": [],
      "stateMutability": "nonpayable",
      "type": "function"
    },
    {
      "inputs": [],
      "name": "reset",
      "outputs": [],
      "stateMutability": "nonpayable",
      "type": "function"
    },
    {
      "inputs": [],
      "name": "ver_register",
      "outputs": [],
      "stateMutability": "nonpayable",
      "type": "function"
    },
    {
      "inputs": [],
      "name": "verify_auto",
      "outputs": [
        {
          "internalType": "bool",
          "name": "",
          "type": "bool"
        }
      ],
      "stateMutability": "nonpayable",
      "type": "function"
    },
    {
      "inputs": [
        {
          "internalType": "uint256",
          "name": "_id",
          "type": "uint256"
        },
        {
          "internalType": "uint256",
          "name": "saf_content",
          "type": "uint256"
        },
        {
          "internalType": "string",
          "name": "_grade",
          "type": "string"
        }
      ],
      "name": "add_product",
      "outputs": [],
      "stateMutability": "nonpayable",
      "type": "function"
    },
    {
      "inputs": [
        {
          "internalType": "uint256",
          "name": "_id",
          "type": "uint256"
        },
        {
          "internalType": "uint256",
          "name": "saf_content",
          "type": "uint256"
        }
      ],
      "name": "harvest_product",
      "outputs": [],
      "stateMutability": "nonpayable",
      "type": "function"
    },
    {
      "inputs": [
        {
          "internalType": "uint256",
          "name": "_id",
          "type": "uint256"
        }
      ],
      "name": "dry_product",
      "outputs": [],
      "stateMutability": "nonpayable",
      "type": "function"
    },
    {
      "inputs": [
        {
          "internalType": "uint256",
          "name": "_id",
          "type": "uint256"
        },
        {
          "internalType": "string",
          "name": "_grade",
          "type": "string"
        }
      ],
      "name": "grading",
      "outputs": [],
      "stateMutability": "nonpayable",
      "type": "function"
    },
    {
      "inputs": [
        {
          "internalType": "uint256",
          "name": "_id",
          "type": "uint256"
        }
      ],
      "name": "packing",
      "outputs": [],
      "stateMutability": "nonpayable",
      "type": "function"
    },
    {
      "inputs": [
        {
          "internalType": "uint256",
          "name": "_id",
          "type": "uint256"
        }
      ],
      "name": "for_sale",
      "outputs": [],
      "stateMutability": "nonpayable",
      "type": "function"
    },
    {
      "inputs": [
        {
          "internalType": "uint256",
          "name": "_id",
          "type": "uint256"
        }
      ],
      "name": "get_response_from_verifiers",
      "outputs": [
        {
          "internalType": "bool",
          "name": "",
          "type": "bool"
        }
      ],
      "stateMutability": "nonpayable",
      "type": "function"
    },
    {
      "inputs": [
        {
          "internalType": "uint256",
          "name": "_id",
          "type": "uint256"
        }
      ],
      "name": "sell_to_distributor",
      "outputs": [],
      "stateMutability": "payable",
      "type": "function",
      "payable": true
    },
    {
      "inputs": [
        {
          "internalType": "uint256",
          "name": "_id",
          "type": "uint256"
        }
      ],
      "name": "sell_to_retialer",
      "outputs": [],
      "stateMutability": "payable",
      "type": "function",
      "payable": true
    },
    {
      "inputs": [
        {
          "internalType": "uint256",
          "name": "_id",
          "type": "uint256"
        }
      ],
      "name": "sell_to_consumer",
      "outputs": [],
      "stateMutability": "payable",
      "type": "function",
      "payable": true
    }
  ],
  "bytecode": "0x608060405260006004556000600a5534801561001a57600080fd5b50613ae88061002a6000396000f3fe6080604052600436106101b75760003560e01c80638ec4f505116100ec578063d826f88f1161008a578063edde834911610064578063edde8349146105fa578063eefbb33f14610625578063f02e94ea14610641578063fb25b49a1461065d576101b7565b8063d826f88f14610574578063e6bf3fdc1461058b578063eb5ba90f146105b4576101b7565b8063a1c93ca8116100c6578063a1c93ca8146104ba578063ac5da0b3146104e5578063b94290691461050e578063caca77461461054b576101b7565b80638ec4f5051461042b5780638f0c86fa146104545780639a5c1ef114610491576101b7565b806370099ec8116101595780637d0703f4116101335780637d0703f41461035f57806380c3f96d14610388578063834ff739146103b157806387088355146103ee576101b7565b806370099ec8146102f65780637250e2241461031f578063793a886614610348576101b7565b8063462a592211610195578063462a59221461022a57806357c1f9e2146102535780635da09b881461027c578063657beffc146102b9576101b7565b80630652bebf146101bc5780630e27e3df146101d8578063112940f914610201575b600080fd5b6101d660048036038101906101d19190612cd7565b610686565b005b3480156101e457600080fd5b506101ff60048036038101906101fa9190612d62565b61099f565b005b34801561020d57600080fd5b5061022860048036038101906102239190612d62565b6109ad565b005b34801561023657600080fd5b50610251600480360381019061024c9190612ed5565b6109bb565b005b34801561025f57600080fd5b5061027a60048036038101906102759190612d62565b6109e6565b005b34801561028857600080fd5b506102a3600480360381019061029e9190612d62565b6109f4565b6040516102b09190612f5f565b60405180910390f35b3480156102c557600080fd5b506102e060048036038101906102db9190612cd7565b610a08565b6040516102ed9190612f5f565b60405180910390f35b34801561030257600080fd5b5061031d60048036038101906103189190612d62565b610b46565b005b34801561032b57600080fd5b5061034660048036038101906103419190612d62565b610b54565b005b34801561035457600080fd5b5061035d610b62565b005b34801561036b57600080fd5b5061038660048036038101906103819190612cd7565b610da5565b005b34801561039457600080fd5b506103af60048036038101906103aa9190612d62565b610f82565b005b3480156103bd57600080fd5b506103d860048036038101906103d39190612d62565b610f90565b6040516103e59190612f5f565b60405180910390f35b3480156103fa57600080fd5b5061041560048036038101906104109190612f7a565b610fa4565b6040516104229190612fc9565b60405180910390f35b34801561043757600080fd5b50610452600480360381019061044d9190612d62565b611050565b005b34801561046057600080fd5b5061047b60048036038101906104769190612d62565b61105e565b6040516104889190612f5f565b60405180910390f35b34801561049d57600080fd5b506104b860048036038101906104b39190612cd7565b611072565b005b3480156104c657600080fd5b506104cf61124f565b6040516104dc9190612f5f565b60405180910390f35b3480156104f157600080fd5b5061050c60048036038101906105079190612f7a565b61134b565b005b34801561051a57600080fd5b5061053560048036038101906105309190612d62565b6116e8565b6040516105429190612f5f565b60405180910390f35b34801561055757600080fd5b50610572600480360381019061056d9190612fe4565b6116fc565b005b34801561058057600080fd5b50610589611905565b005b34801561059757600080fd5b506105b260048036038101906105ad9190612d62565b611a17565b005b3480156105c057600080fd5b506105db60048036038101906105d69190612cd7565b611a25565b6040516105f19a99989796959493929190613160565b60405180910390f35b34801561060657600080fd5b5061060f611bae565b60405161061c9190612fc9565b60405180910390f35b61063f600480360381019061063a9190612cd7565b611bb4565b005b61065b60048036038101906106569190612cd7565b611ecd565b005b34801561066957600080fd5b50610684600480360381019061067f9190612cd7565b6121e6565b005b80600115156010600083815260200190815260200160002060009054906101000a900460ff161515146106ee576040517f08c379a00000000000000000000000000000000000000000000000000000000081526004016106e59061324f565b60405180910390fd5b816004600781111561070357610702613061565b5b600f600083815260200190815260200160002060070160149054906101000a900460ff16600781111561073957610738613061565b5b14610779576040517f08c379a0000000000000000000000000000000000000000000000000000000008152600401610770906132bb565b60405180910390fd5b600f600084815260200190815260200160002060020154803410156107d3576040517f08c379a00000000000000000000000000000000000000000000000000000000081526004016107ca9061334d565b60405180910390fd5b336107dd81610f90565b61081c576040517f08c379a0000000000000000000000000000000000000000000000000000000008152600401610813906133b9565b60405180910390fd5b600f600086815260200190815260200160002060070160009054906101000a900473ffffffffffffffffffffffffffffffffffffffff1673ffffffffffffffffffffffffffffffffffffffff166108fc600f6000888152602001908152602001600020600201549081150290604051600060405180830381858888f193505050501580156108ae573d6000803e3d6000fd5b5033600f600087815260200190815260200160002060070160006101000a81548173ffffffffffffffffffffffffffffffffffffffff021916908373ffffffffffffffffffffffffffffffffffffffff16021790555033600f600087815260200190815260200160002060060160006101000a81548173ffffffffffffffffffffffffffffffffffffffff021916908373ffffffffffffffffffffffffffffffffffffffff1602179055506007600f600087815260200190815260200160002060070160146101000a81548160ff0219169083600781111561099357610992613061565b5b02179055505050505050565b6109aa6003826123c3565b50565b6109b86003826124d9565b50565b6109c5838361134b565b6109ce83610da5565b6109d883826116fc565b6109e183611072565b505050565b6109f16001826123c3565b50565b6000610a016002836125f0565b9050919050565b600080610a1361124f565b90506000151581151503610ab157600e6000600f600086815260200190815260200160002060070160009054906101000a900473ffffffffffffffffffffffffffffffffffffffff1673ffffffffffffffffffffffffffffffffffffffff1673ffffffffffffffffffffffffffffffffffffffff1681526020019081526020016000206000815480929190610aa790613408565b9190505550610b3d565b600e6000600f600086815260200190815260200160002060070160009054906101000a900473ffffffffffffffffffffffffffffffffffffffff1673ffffffffffffffffffffffffffffffffffffffff1673ffffffffffffffffffffffffffffffffffffffff1681526020019081526020016000206000815480929190610b3790613431565b91905055505b80915050919050565b610b516002826123c3565b50565b610b5f6001826124d9565b50565b60001515600b60003373ffffffffffffffffffffffffffffffffffffffff1673ffffffffffffffffffffffffffffffffffffffff16815260200190815260200160002060009054906101000a900460ff16151514610bbf57600080fd5b6001600b60003373ffffffffffffffffffffffffffffffffffffffff1673ffffffffffffffffffffffffffffffffffffffff16815260200190815260200160002060006101000a81548160ff021916908315150217905550610c1f612af4565b600a6000815480929190610c3290613431565b91905055816000018181525050600181602001818152505080600c600083600001518152602001908152602001600020600082015181600001556020820151816001015560408201518160020160006101000a81548160ff0219169083151502179055509050506001600960008360000151815260200190815260200160002060006101000a81548160ff0219169083151502179055506006819080600181540180825580915050600190039060005260206000209060030201600090919091909150600082015181600001556020820151816001015560408201518160020160006101000a81548160ff021916908315150217905550505080600d60003373ffffffffffffffffffffffffffffffffffffffff1673ffffffffffffffffffffffffffffffffffffffff168152602001908152602001600020600082015181600001556020820151816001015560408201518160020160006101000a81548160ff02191690831515021790555090505050565b80600115156010600083815260200190815260200160002060009054906101000a900460ff16151514610e0d576040517f08c379a0000000000000000000000000000000000000000000000000000000008152600401610e049061324f565b60405180910390fd5b8160006007811115610e2257610e21613061565b5b600f600083815260200190815260200160002060070160149054906101000a900460ff166007811115610e5857610e57613061565b5b14610e98576040517f08c379a0000000000000000000000000000000000000000000000000000000008152600401610e8f906134c5565b60405180910390fd5b823373ffffffffffffffffffffffffffffffffffffffff16600f600083815260200190815260200160002060030160009054906101000a900473ffffffffffffffffffffffffffffffffffffffff1673ffffffffffffffffffffffffffffffffffffffff1614610f3d576040517f08c379a0000000000000000000000000000000000000000000000000000000008152600401610f34906133b9565b60405180910390fd5b6001600f600086815260200190815260200160002060070160146101000a81548160ff02191690836007811115610f7757610f76613061565b5b021790555050505050565b610f8d6000826124d9565b50565b6000610f9d6003836125f0565b9050919050565b600060046000815480929190610fb990613431565b919050555060644233600454604051602001610fd79392919061354e565b6040516020818303038152906040528051906020012060001c610ffa91906135ba565b6005819055506000606490506000838561101491906135eb565b9050838282600060055461102891906135eb565b611032919061361f565b61103c9190613679565b61104691906136aa565b9250505092915050565b61105b6002826124d9565b50565b600061106b6001836125f0565b9050919050565b80600115156010600083815260200190815260200160002060009054906101000a900460ff161515146110da576040517f08c379a00000000000000000000000000000000000000000000000000000000081526004016110d19061324f565b60405180910390fd5b81600260078111156110ef576110ee613061565b5b600f600083815260200190815260200160002060070160149054906101000a900460ff16600781111561112557611124613061565b5b14611165576040517f08c379a000000000000000000000000000000000000000000000000000000000815260040161115c9061374c565b60405180910390fd5b823373ffffffffffffffffffffffffffffffffffffffff16600f600083815260200190815260200160002060030160009054906101000a900473ffffffffffffffffffffffffffffffffffffffff1673ffffffffffffffffffffffffffffffffffffffff161461120a576040517f08c379a0000000000000000000000000000000000000000000000000000000008152600401611201906133b9565b60405180910390fd5b6003600f600086815260200190815260200160002060070160146101000a81548160ff0219169083600781111561124457611243613061565b5b021790555050505050565b6000611259611905565b6112616126b7565b60005b60088054905081101561133d57600061127f60646001610fa4565b9050601e81106112db576001600c6000600885815481106112a3576112a261376c565b5b9060005260206000200154815260200190815260200160002060020160006101000a81548160ff021916908315150217905550611329565b6000600c6000600885815481106112f5576112f461376c565b5b9060005260206000200154815260200190815260200160002060020160006101000a81548160ff0219169083151502179055505b50808061133590613431565b915050611264565b50611346612727565b905090565b611354336116e8565b61135d57600080fd5b611365612b17565b828160000181815250508181602001818152505033816060019073ffffffffffffffffffffffffffffffffffffffff16908173ffffffffffffffffffffffffffffffffffffffff168152505080606001518160e0019073ffffffffffffffffffffffffffffffffffffffff16908173ffffffffffffffffffffffffffffffffffffffff16815250506000816080019073ffffffffffffffffffffffffffffffffffffffff16908173ffffffffffffffffffffffffffffffffffffffff168152505080608001518160a0019073ffffffffffffffffffffffffffffffffffffffff16908173ffffffffffffffffffffffffffffffffffffffff168152505080608001518160c0019073ffffffffffffffffffffffffffffffffffffffff16908173ffffffffffffffffffffffffffffffffffffffff1681525050600081610100019060078111156114b8576114b7613061565b5b908160078111156114cc576114cb613061565b5b8152505080600f600085815260200190815260200160002060008201518160000155602082015181600101556040820151816002015560608201518160030160006101000a81548173ffffffffffffffffffffffffffffffffffffffff021916908373ffffffffffffffffffffffffffffffffffffffff16021790555060808201518160040160006101000a81548173ffffffffffffffffffffffffffffffffffffffff021916908373ffffffffffffffffffffffffffffffffffffffff16021790555060a08201518160050160006101000a81548173ffffffffffffffffffffffffffffffffffffffff021916908373ffffffffffffffffffffffffffffffffffffffff16021790555060c08201518160060160006101000a81548173ffffffffffffffffffffffffffffffffffffffff021916908373ffffffffffffffffffffffffffffffffffffffff16021790555060e08201518160070160006101000a81548173ffffffffffffffffffffffffffffffffffffffff021916908373ffffffffffffffffffffffffffffffffffffffff1602179055506101008201518160070160146101000a81548160ff0219169083600781111561169157611690613061565b5b02179055506101208201518160080190805190602001906116b3929190612bea565b5090505060016010600085815260200190815260200160002060006101000a81548160ff021916908315150217905550505050565b60006116f56000836125f0565b9050919050565b81600115156010600083815260200190815260200160002060009054906101000a900460ff16151514611764576040517f08c379a000000000000000000000000000000000000000000000000000000000815260040161175b9061324f565b60405180910390fd5b826001600781111561177957611778613061565b5b600f600083815260200190815260200160002060070160149054906101000a900460ff1660078111156117af576117ae613061565b5b146117ef576040517f08c379a00000000000000000000000000000000000000000000000000000000081526004016117e6906137e7565b60405180910390fd5b833373ffffffffffffffffffffffffffffffffffffffff16600f600083815260200190815260200160002060030160009054906101000a900473ffffffffffffffffffffffffffffffffffffffff1673ffffffffffffffffffffffffffffffffffffffff1614611894576040517f08c379a000000000000000000000000000000000000000000000000000000000815260040161188b906133b9565b60405180910390fd5b83600f600087815260200190815260200160002060080190805190602001906118be929190612bea565b506002600f600087815260200190815260200160002060070160146101000a81548160ff021916908360078111156118f9576118f8613061565b5b02179055505050505050565b60005b600680549050811015611979576001600960006006848154811061192f5761192e61376c565b5b906000526020600020906003020160000154815260200190815260200160002060006101000a81548160ff021916908315150217905550808061197190613431565b915050611908565b50600060078054905090505b600081146119c857600780548061199f5761199e613807565b5b6001900381819060005260206000200160009055905580806119c090613408565b915050611985565b60088054905090505b60008114611a145760088054806119eb576119ea613807565b5b600190038181906000526020600020016000905590558080611a0c90613408565b9150506119d1565b50565b611a226000826123c3565b50565b600f6020528060005260406000206000915090508060000154908060010154908060020154908060030160009054906101000a900473ffffffffffffffffffffffffffffffffffffffff16908060040160009054906101000a900473ffffffffffffffffffffffffffffffffffffffff16908060050160009054906101000a900473ffffffffffffffffffffffffffffffffffffffff16908060060160009054906101000a900473ffffffffffffffffffffffffffffffffffffffff16908060070160009054906101000a900473ffffffffffffffffffffffffffffffffffffffff16908060070160149054906101000a900460ff1690806008018054611b2b90613865565b80601f0160208091040260200160405190810160405280929190818152602001828054611b5790613865565b8015611ba45780601f10611b7957610100808354040283529160200191611ba4565b820191906000526020600020905b815481529060010190602001808311611b8757829003601f168201915b505050505090508a565b60055481565b80600115156010600083815260200190815260200160002060009054906101000a900460ff16151514611c1c576040517f08c379a0000000000000000000000000000000000000000000000000000000008152600401611c139061324f565b60405180910390fd5b8160046007811115611c3157611c30613061565b5b600f600083815260200190815260200160002060070160149054906101000a900460ff166007811115611c6757611c66613061565b5b14611ca7576040517f08c379a0000000000000000000000000000000000000000000000000000000008152600401611c9e906132bb565b60405180910390fd5b33611cb18161105e565b611cf0576040517f08c379a0000000000000000000000000000000000000000000000000000000008152600401611ce7906133b9565b60405180910390fd5b600f60008581526020019081526020016000206002015480341015611d4a576040517f08c379a0000000000000000000000000000000000000000000000000000000008152600401611d419061334d565b60405180910390fd5b600f600086815260200190815260200160002060070160009054906101000a900473ffffffffffffffffffffffffffffffffffffffff1673ffffffffffffffffffffffffffffffffffffffff166108fc600f6000888152602001908152602001600020600201549081150290604051600060405180830381858888f19350505050158015611ddc573d6000803e3d6000fd5b5033600f600087815260200190815260200160002060070160006101000a81548173ffffffffffffffffffffffffffffffffffffffff021916908373ffffffffffffffffffffffffffffffffffffffff16021790555033600f600087815260200190815260200160002060040160006101000a81548173ffffffffffffffffffffffffffffffffffffffff021916908373ffffffffffffffffffffffffffffffffffffffff1602179055506005600f600087815260200190815260200160002060070160146101000a81548160ff02191690836007811115611ec157611ec0613061565b5b02179055505050505050565b80600115156010600083815260200190815260200160002060009054906101000a900460ff16151514611f35576040517f08c379a0000000000000000000000000000000000000000000000000000000008152600401611f2c9061324f565b60405180910390fd5b600f60008381526020019081526020016000206002015480341015611f8f576040517f08c379a0000000000000000000000000000000000000000000000000000000008152600401611f869061334d565b60405180910390fd5b33611f99816109f4565b611fd8576040517f08c379a0000000000000000000000000000000000000000000000000000000008152600401611fcf906133b9565b60405180910390fd5b8360056007811115611fed57611fec613061565b5b600f600083815260200190815260200160002060070160149054906101000a900460ff16600781111561202357612022613061565b5b14612063576040517f08c379a000000000000000000000000000000000000000000000000000000000815260040161205a906133b9565b60405180910390fd5b600f600086815260200190815260200160002060070160009054906101000a900473ffffffffffffffffffffffffffffffffffffffff1673ffffffffffffffffffffffffffffffffffffffff166108fc600f6000888152602001908152602001600020600201549081150290604051600060405180830381858888f193505050501580156120f5573d6000803e3d6000fd5b5033600f600087815260200190815260200160002060070160006101000a81548173ffffffffffffffffffffffffffffffffffffffff021916908373ffffffffffffffffffffffffffffffffffffffff16021790555033600f600087815260200190815260200160002060050160006101000a81548173ffffffffffffffffffffffffffffffffffffffff021916908373ffffffffffffffffffffffffffffffffffffffff1602179055506006600f600087815260200190815260200160002060070160146101000a81548160ff021916908360078111156121da576121d9613061565b5b02179055505050505050565b80600115156010600083815260200190815260200160002060009054906101000a900460ff1615151461224e576040517f08c379a00000000000000000000000000000000000000000000000000000000081526004016122459061324f565b60405180910390fd5b816003600781111561226357612262613061565b5b600f600083815260200190815260200160002060070160149054906101000a900460ff16600781111561229957612298613061565b5b146122d9576040517f08c379a00000000000000000000000000000000000000000000000000000000081526004016122d0906138e2565b60405180910390fd5b823373ffffffffffffffffffffffffffffffffffffffff16600f600083815260200190815260200160002060030160009054906101000a900473ffffffffffffffffffffffffffffffffffffffff1673ffffffffffffffffffffffffffffffffffffffff161461237e576040517f08c379a0000000000000000000000000000000000000000000000000000000008152600401612375906133b9565b60405180910390fd5b6004600f600086815260200190815260200160002060070160146101000a81548160ff021916908360078111156123b8576123b7613061565b5b021790555050505050565b600073ffffffffffffffffffffffffffffffffffffffff168173ffffffffffffffffffffffffffffffffffffffff1603612432576040517f08c379a00000000000000000000000000000000000000000000000000000000081526004016124299061394e565b60405180910390fd5b61243c82826125f0565b61247b576040517f08c379a0000000000000000000000000000000000000000000000000000000008152600401612472906139ba565b60405180910390fd5b60008260000160008373ffffffffffffffffffffffffffffffffffffffff1673ffffffffffffffffffffffffffffffffffffffff16815260200190815260200160002060006101000a81548160ff0219169083151502179055505050565b600073ffffffffffffffffffffffffffffffffffffffff168173ffffffffffffffffffffffffffffffffffffffff1603612548576040517f08c379a000000000000000000000000000000000000000000000000000000000815260040161253f9061394e565b60405180910390fd5b61255282826125f0565b15612592576040517f08c379a000000000000000000000000000000000000000000000000000000000815260040161258990613a26565b60405180910390fd5b60018260000160008373ffffffffffffffffffffffffffffffffffffffff1673ffffffffffffffffffffffffffffffffffffffff16815260200190815260200160002060006101000a81548160ff0219169083151502179055505050565b60008073ffffffffffffffffffffffffffffffffffffffff168273ffffffffffffffffffffffffffffffffffffffff1603612660576040517f08c379a000000000000000000000000000000000000000000000000000000000815260040161265790613a92565b60405180910390fd5b8260000160008373ffffffffffffffffffffffffffffffffffffffff1673ffffffffffffffffffffffffffffffffffffffff16815260200190815260200160002060009054906101000a900460ff16905092915050565b600560068054905010156126ca57600080fd5b6000600590505b600081146127245760086126e3612845565b9080600181540180825580915050600190039060005260206000200160009091909190915055808061271490613408565b91505061271f6129ed565b6126d1565b50565b600080612732612a3e565b905060005b60088054905081101561283d57600c60006008838154811061275c5761275b61376c565b5b9060005260206000200154815260200190815260200160002060020160009054906101000a900460ff161515821515036127df57600c6000600883815481106127a8576127a761376c565b5b9060005260206000200154815260200190815260200160002060010160008154809291906127d590613431565b919050555061282a565b600c6000600883815481106127f7576127f661376c565b5b90600052602060002001548152602001908152602001600020600101600081548092919061282490613408565b91905055505b808061283590613431565b915050612737565b508091505090565b60008060005b60068054905081101561295c576001151560096000600684815481106128745761287361376c565b5b906000526020600020906003020160000154815260200190815260200160002060009054906101000a900460ff1615150361294357600681815481106128bd576128bc61376c565b5b906000526020600020906003020160010154915060005b8281101561293d576007600683815481106128f2576128f161376c565b5b9060005260206000209060030201600001549080600181540180825580915050600190039060005260206000200160009091909190915055808061293590613431565b9150506128d4565b50612948565b612949565b5b808061295490613431565b91505061284b565b50600061297b600160078054905061297491906135eb565b6000610fa4565b9050600060096000600784815481106129975761299661376c565b5b9060005260206000200154815260200190815260200160002060006101000a81548160ff021916908315150217905550600781815481106129db576129da61376c565b5b90600052602060002001549250505090565b600060078054905090505b60008114612a3b576007805480612a1257612a11613807565b5b600190038181906000526020600020016000905590558080612a3390613408565b9150506129f8565b50565b600060056008805490501015612a5357600080fd5b60008060005b600880549050811015612ae85760011515600c600060088481548110612a8257612a8161376c565b5b9060005260206000200154815260200190815260200160002060020160009054906101000a900460ff16151503612ac6578280612abe90613431565b935050612ad5565b8180612ad190613431565b9250505b8080612ae090613431565b915050612a59565b50808210159250505090565b604051806060016040528060008152602001600081526020016000151581525090565b604051806101400160405280600081526020016000815260200160008152602001600073ffffffffffffffffffffffffffffffffffffffff168152602001600073ffffffffffffffffffffffffffffffffffffffff168152602001600073ffffffffffffffffffffffffffffffffffffffff168152602001600073ffffffffffffffffffffffffffffffffffffffff168152602001600073ffffffffffffffffffffffffffffffffffffffff16815260200160006007811115612bdd57612bdc613061565b5b8152602001606081525090565b828054612bf690613865565b90600052602060002090601f016020900481019282612c185760008555612c5f565b82601f10612c3157805160ff1916838001178555612c5f565b82800160010185558215612c5f579182015b82811115612c5e578251825591602001919060010190612c43565b5b509050612c6c9190612c70565b5090565b5b80821115612c89576000816000905550600101612c71565b5090565b6000604051905090565b600080fd5b600080fd5b6000819050919050565b612cb481612ca1565b8114612cbf57600080fd5b50565b600081359050612cd181612cab565b92915050565b600060208284031215612ced57612cec612c97565b5b6000612cfb84828501612cc2565b91505092915050565b600073ffffffffffffffffffffffffffffffffffffffff82169050919050565b6000612d2f82612d04565b9050919050565b612d3f81612d24565b8114612d4a57600080fd5b50565b600081359050612d5c81612d36565b92915050565b600060208284031215612d7857612d77612c97565b5b6000612d8684828501612d4d565b91505092915050565b600080fd5b600080fd5b6000601f19601f8301169050919050565b7f4e487b7100000000000000000000000000000000000000000000000000000000600052604160045260246000fd5b612de282612d99565b810181811067ffffffffffffffff82111715612e0157612e00612daa565b5b80604052505050565b6000612e14612c8d565b9050612e208282612dd9565b919050565b600067ffffffffffffffff821115612e4057612e3f612daa565b5b612e4982612d99565b9050602081019050919050565b82818337600083830152505050565b6000612e78612e7384612e25565b612e0a565b905082815260208101848484011115612e9457612e93612d94565b5b612e9f848285612e56565b509392505050565b600082601f830112612ebc57612ebb612d8f565b5b8135612ecc848260208601612e65565b91505092915050565b600080600060608486031215612eee57612eed612c97565b5b6000612efc86828701612cc2565b9350506020612f0d86828701612cc2565b925050604084013567ffffffffffffffff811115612f2e57612f2d612c9c565b5b612f3a86828701612ea7565b9150509250925092565b60008115159050919050565b612f5981612f44565b82525050565b6000602082019050612f746000830184612f50565b92915050565b60008060408385031215612f9157612f90612c97565b5b6000612f9f85828601612cc2565b9250506020612fb085828601612cc2565b9150509250929050565b612fc381612ca1565b82525050565b6000602082019050612fde6000830184612fba565b92915050565b60008060408385031215612ffb57612ffa612c97565b5b600061300985828601612cc2565b925050602083013567ffffffffffffffff81111561302a57613029612c9c565b5b61303685828601612ea7565b9150509250929050565b600061304b82612d04565b9050919050565b61305b81613040565b82525050565b7f4e487b7100000000000000000000000000000000000000000000000000000000600052602160045260246000fd5b600881106130a1576130a0613061565b5b50565b60008190506130b282613090565b919050565b60006130c2826130a4565b9050919050565b6130d2816130b7565b82525050565b600081519050919050565b600082825260208201905092915050565b60005b838110156131125780820151818401526020810190506130f7565b83811115613121576000848401525b50505050565b6000613132826130d8565b61313c81856130e3565b935061314c8185602086016130f4565b61315581612d99565b840191505092915050565b600061014082019050613176600083018d612fba565b613183602083018c612fba565b613190604083018b612fba565b61319d606083018a613052565b6131aa6080830189613052565b6131b760a0830188613052565b6131c460c0830187613052565b6131d160e0830186613052565b6131df6101008301856130c9565b8181036101208301526131f28184613127565b90509b9a5050505050505050505050565b7f50726f6475637420646f65736e27742065786973740000000000000000000000600082015250565b60006132396015836130e3565b915061324482613203565b602082019050919050565b600060208201905081810360008301526132688161322c565b9050919050565b7f4e6f7420666f722073616c650000000000000000000000000000000000000000600082015250565b60006132a5600c836130e3565b91506132b08261326f565b602082019050919050565b600060208201905081810360008301526132d481613298565b9050919050565b7f54686520616d6f756e74206973206e6f742073756666696369656e7420746f2060008201527f627579207468652070726f647563740000000000000000000000000000000000602082015250565b6000613337602f836130e3565b9150613342826132db565b604082019050919050565b600060208201905081810360008301526133668161332a565b9050919050565b7f4e6f7420617574686f72697a6564000000000000000000000000000000000000600082015250565b60006133a3600e836130e3565b91506133ae8261336d565b602082019050919050565b600060208201905081810360008301526133d281613396565b9050919050565b7f4e487b7100000000000000000000000000000000000000000000000000000000600052601160045260246000fd5b600061341382612ca1565b915060008203613426576134256133d9565b5b600182039050919050565b600061343c82612ca1565b91507fffffffffffffffffffffffffffffffffffffffffffffffffffffffffffffffff820361346e5761346d6133d9565b5b600182019050919050565b7f53616666726f6e206973206e6f74206861727665737465640000000000000000600082015250565b60006134af6018836130e3565b91506134ba82613479565b602082019050919050565b600060208201905081810360008301526134de816134a2565b9050919050565b6000819050919050565b6135006134fb82612ca1565b6134e5565b82525050565b60008160601b9050919050565b600061351e82613506565b9050919050565b600061353082613513565b9050919050565b61354861354382612d24565b613525565b82525050565b600061355a82866134ef565b60208201915061356a8285613537565b60148201915061357a82846134ef565b602082019150819050949350505050565b7f4e487b7100000000000000000000000000000000000000000000000000000000600052601260045260246000fd5b60006135c582612ca1565b91506135d083612ca1565b9250826135e0576135df61358b565b5b828206905092915050565b60006135f682612ca1565b915061360183612ca1565b925082821015613614576136136133d9565b5b828203905092915050565b600061362a82612ca1565b915061363583612ca1565b9250817fffffffffffffffffffffffffffffffffffffffffffffffffffffffffffffffff048311821515161561366e5761366d6133d9565b5b828202905092915050565b600061368482612ca1565b915061368f83612ca1565b92508261369f5761369e61358b565b5b828204905092915050565b60006136b582612ca1565b91506136c083612ca1565b9250827fffffffffffffffffffffffffffffffffffffffffffffffffffffffffffffffff038211156136f5576136f46133d9565b5b828201905092915050565b7f53616666726f6e206973206e6f74206772616465640000000000000000000000600082015250565b60006137366015836130e3565b915061374182613700565b602082019050919050565b6000602082019050818103600083015261376581613729565b9050919050565b7f4e487b7100000000000000000000000000000000000000000000000000000000600052603260045260246000fd5b7f53616666726f6e206973206e6f74206472696564000000000000000000000000600082015250565b60006137d16014836130e3565b91506137dc8261379b565b602082019050919050565b60006020820190508181036000830152613800816137c4565b9050919050565b7f4e487b7100000000000000000000000000000000000000000000000000000000600052603160045260246000fd5b7f4e487b7100000000000000000000000000000000000000000000000000000000600052602260045260246000fd5b6000600282049050600182168061387d57607f821691505b6020821081036138905761388f613836565b5b50919050565b7f53616666726f6e206973206e6f74207061636b65640000000000000000000000600082015250565b60006138cc6015836130e3565b91506138d782613896565b602082019050919050565b600060208201905081810360008301526138fb816138bf565b9050919050565b7f416464726573732063616e6e6f74206265207a65726f00000000000000000000600082015250565b60006139386016836130e3565b915061394382613902565b602082019050919050565b600060208201905081810360008301526139678161392b565b9050919050565b7f4d656d62657220646f6573206e6f742065786973740000000000000000000000600082015250565b60006139a46015836130e3565b91506139af8261396e565b602082019050919050565b600060208201905081810360008301526139d381613997565b9050919050565b7f416c726561647920526567697374657265640000000000000000000000000000600082015250565b6000613a106012836130e3565b9150613a1b826139da565b602082019050919050565b60006020820190508181036000830152613a3f81613a03565b9050919050565b7f416464726573732063616e6e6f74206265207a65726f20616464726573730000600082015250565b6000613a7c601e836130e3565b9150613a8782613a46565b602082019050919050565b60006020820190508181036000830152613aab81613a6f565b905091905056fea26469706673582212206f68058a42f581f681197d56a869c64691054b7f1aae6e62dcafb93ae5cbd31864736f6c634300080e0033",
  "immutableReferences": {},
  "source": "// SPDX-License-Identifier: GPL-3.0\r\npragma solidity >=0.7.0 <0.9.0;\r\n\r\nimport '../Roles/Farmer.sol';\r\nimport '../Roles/Distributor.sol';\r\nimport '../Roles/Retailer.sol';\r\nimport '../Roles/Consumer.sol';\r\nimport '../consensus/verify_random.sol';\r\n\r\ncontract SupplyChain is Farmer, Distributor, Retailer, Consumer, verify_random{\r\n\r\n    mapping(address => uint) rep_score;\r\n\r\n    enum State{\r\n        Harvested,\r\n        Dried,   \r\n        Graded,\r\n        Packed,\r\n        For_Sale,\r\n        with_distributor,\r\n        with_retailer,\r\n        with_consumer\r\n    }\r\n\r\n    struct Product{\r\n        uint id;\r\n        uint safranal_content;\r\n        uint price;\r\n        address payable farmer;\r\n        address payable distributor;\r\n        address payable retailer;\r\n        address payable consumer;\r\n        address payable Current_owner;\r\n        State state;\r\n        string grade;\r\n    }\r\n\r\n    mapping (uint => Product) public product_list;\r\n    mapping (uint => bool) existing;\r\n\r\n\r\n    modifier harvested(uint _id){\r\n        require(product_list[_id].state == State.Harvested, \"Saffron is not harvested\");\r\n        _;\r\n    }\r\n    \r\n    modifier dried(uint _id){\r\n        require(product_list[_id].state == State.Dried, \"Saffron is not dried\");\r\n        _;\r\n    }\r\n    \r\n    modifier graded(uint _id){\r\n        require(product_list[_id].state == State.Graded, \"Saffron is not graded\");\r\n        _;\r\n    }\r\n\r\n    modifier packed(uint _id){\r\n        require(product_list[_id].state == State.Packed, \"Saffron is not packed\");\r\n        _;\r\n    }\r\n\r\n    modifier exist(uint _id){\r\n        require(existing[_id] == true, \"Product doesn't exist\");\r\n        _;\r\n    }\r\n\r\n    modifier confirm_farmer(uint _id){\r\n        require(product_list[_id].farmer == msg.sender, \"Not authorized\");\r\n        _;\r\n    }\r\n\r\n    modifier only_distributor(address _add)\r\n    {\r\n        require(isDistributor(_add), \"Not authorized\");\r\n        _;\r\n    }\r\n\r\n    modifier only_retailer(address _add)\r\n    {\r\n        require(isRetailer(_add), \"Not authorized\");\r\n        _;\r\n    }\r\n\r\n    modifier forSale(uint _id){\r\n        require(product_list[_id].state == State.For_Sale, \"Not for sale\");\r\n        _;\r\n    }\r\n    \r\n    modifier paid_enough(uint _price) {\r\n        require(msg.value >= _price, \"The amount is not sufficient to buy the product\");\r\n        _;\r\n    }\r\n\r\n    modifier withDistributor(uint _id)\r\n    {\r\n        require(product_list[_id].state == State.with_distributor, \"Not authorized\");\r\n        _;\r\n    }\r\n\r\n    modifier only_consumer(address _add)\r\n    {\r\n        require(isConsumer(_add), \"Not authorized\");\r\n        _;\r\n    }\r\n\r\n    modifier canBuy(uint _id)\r\n    {\r\n        require(can_buy(_id), \"Item is not FOR SALE\");\r\n        _;\r\n    }\r\n\r\n    function can_buy(uint _id) internal view returns(bool)\r\n    {\r\n        if(product_list[_id].state == State.Packed || product_list[_id].state == State.with_distributor || product_list[_id].state == State.with_retailer)\r\n        {\r\n            return true;\r\n        }\r\n\r\n        return false; \r\n    }\r\n\r\n    function add_product(uint _id, uint saf_content, string memory _grade) public\r\n    {\r\n        harvest_product(_id, saf_content);\r\n        dry_product(_id);\r\n        grading(_id, _grade);\r\n        packing(_id);\r\n    }\r\n\r\n    function harvest_product(uint _id, uint saf_content) public  {\r\n        require(isFarmer(msg.sender));\r\n        Product memory product;\r\n        product.id = _id;\r\n        product.safranal_content = saf_content;\r\n        product.farmer = payable(msg.sender);\r\n        product.Current_owner = product.farmer;\r\n        product.distributor = payable(address(0));\r\n        product.retailer = product.distributor;\r\n        product.consumer = product.distributor;\r\n        product.state = State.Harvested;\r\n        product_list[_id] = product;\r\n        existing[_id] = true;\r\n    }\r\n\r\n    function dry_product(uint _id) exist(_id) harvested(_id) confirm_farmer(_id) public{\r\n        product_list[_id].state = State.Dried;\r\n    }\r\n\r\n    function grading(uint _id, string memory _grade) exist(_id) dried(_id) confirm_farmer(_id) public{\r\n        product_list[_id].grade = _grade;\r\n        product_list[_id].state = State.Graded; \r\n    }\r\n    \r\n    function packing(uint _id) exist(_id) graded(_id) confirm_farmer(_id) public{\r\n        product_list[_id].state = State.Packed;\r\n    }\r\n    \r\n    function for_sale(uint _id) exist(_id) packed(_id) confirm_farmer(_id) public{\r\n        product_list[_id].state = State.For_Sale;\r\n    }\r\n\r\n    function get_response_from_verifiers (uint _id) public returns (bool)\r\n    {\r\n        bool confirmation = verify_auto();\r\n        if(confirmation == false)\r\n        {\r\n            rep_score[product_list[_id].Current_owner] --;\r\n        }\r\n\r\n        else\r\n        {\r\n            rep_score[product_list[_id].Current_owner] ++;\r\n        }\r\n        return confirmation;\r\n    }\r\n\r\n    function sell_to_distributor(uint _id) exist(_id) forSale(_id) only_distributor(msg.sender) paid_enough(product_list[_id].price) public payable{\r\n        product_list[_id].Current_owner.transfer(product_list[_id].price);\r\n        product_list[_id].Current_owner = payable(msg.sender);\r\n        product_list[_id].distributor = payable(msg.sender);\r\n        product_list[_id].state = State.with_distributor;\r\n    }\r\n\r\n    function sell_to_retialer(uint _id) exist(_id) paid_enough(product_list[_id].price) only_retailer(msg.sender) withDistributor(_id) public payable\r\n    {\r\n        product_list[_id].Current_owner.transfer(product_list[_id].price);\r\n        product_list[_id].Current_owner = payable(msg.sender);\r\n        product_list[_id].retailer = payable(msg.sender);\r\n        product_list[_id].state = State.with_retailer;\r\n    }\r\n\r\n    function sell_to_consumer(uint _id) exist(_id) forSale(_id) paid_enough(product_list[_id].price) only_consumer(msg.sender)  public payable\r\n    {\r\n        product_list[_id].Current_owner.transfer(product_list[_id].price);\r\n        product_list[_id].Current_owner = payable(msg.sender);\r\n        product_list[_id].consumer = payable(msg.sender);\r\n        product_list[_id].state = State.with_consumer;\r\n    }\r\n\r\n}",
  "sourcePath": "F:/project/SS_Project (2)/SS_Project/contracts/SupplyChain/SupplyChain.sol",
  "compiler": {
    "name": "solc",
    "version": "0.8.14+commit.80d49f37.Emscripten.clang"
  },
  "schemaVersion": "3.3.4",
  "updatedAt": "2022-06-02T16:37:16.503Z",
  "networkType": "ethereum",
  "devdoc": {
    "kind": "dev",
    "methods": {},
    "version": 1
  },
  "userdoc": {
    "kind": "user",
    "methods": {},
    "version": 1
  }
}