{
  "contractName": "SupplyChain",
  "abi": [
    {
      "inputs": [
        {
          "internalType": "address",
          "name": "_add",
          "type": "address"
        }
      ],
      "name": "addConsumer",
      "outputs": [],
      "stateMutability": "nonpayable",
      "type": "function"
    },
    {
      "inputs": [
        {
          "internalType": "address",
          "name": "_add",
          "type": "address"
        }
      ],
      "name": "addDistributor",
      "outputs": [],
      "stateMutability": "nonpayable",
      "type": "function"
    },
    {
      "inputs": [
        {
          "internalType": "address",
          "name": "_add",
          "type": "address"
        }
      ],
      "name": "addFarmer",
      "outputs": [],
      "stateMutability": "nonpayable",
      "type": "function"
    },
    {
      "inputs": [
        {
          "internalType": "address",
          "name": "_add",
          "type": "address"
        }
      ],
      "name": "addRetailer",
      "outputs": [],
      "stateMutability": "nonpayable",
      "type": "function"
    },
    {
      "inputs": [],
      "name": "approve",
      "outputs": [],
      "stateMutability": "nonpayable",
      "type": "function"
    },
    {
      "inputs": [],
      "name": "choose_final_verdict",
      "outputs": [
        {
          "internalType": "bool",
          "name": "",
          "type": "bool"
        }
      ],
      "stateMutability": "view",
      "type": "function",
      "constant": true
    },
    {
      "inputs": [],
      "name": "clear_pred_arr",
      "outputs": [],
      "stateMutability": "nonpayable",
      "type": "function"
    },
    {
      "inputs": [],
      "name": "fill_pred_arr",
      "outputs": [
        {
          "internalType": "uint256",
          "name": "",
          "type": "uint256"
        }
      ],
      "stateMutability": "nonpayable",
      "type": "function"
    },
    {
      "inputs": [],
      "name": "flag",
      "outputs": [
        {
          "internalType": "bool",
          "name": "",
          "type": "bool"
        }
      ],
      "stateMutability": "view",
      "type": "function",
      "constant": true
    },
    {
      "inputs": [
        {
          "internalType": "uint256",
          "name": "num_max",
          "type": "uint256"
        },
        {
          "internalType": "uint256",
          "name": "num_min",
          "type": "uint256"
        }
      ],
      "name": "generate_random",
      "outputs": [
        {
          "internalType": "uint256",
          "name": "",
          "type": "uint256"
        }
      ],
      "stateMutability": "nonpayable",
      "type": "function"
    },
    {
      "inputs": [
        {
          "internalType": "address",
          "name": "_add",
          "type": "address"
        }
      ],
      "name": "isConsumer",
      "outputs": [
        {
          "internalType": "bool",
          "name": "",
          "type": "bool"
        }
      ],
      "stateMutability": "view",
      "type": "function",
      "constant": true
    },
    {
      "inputs": [
        {
          "internalType": "address",
          "name": "_add",
          "type": "address"
        }
      ],
      "name": "isDistributor",
      "outputs": [
        {
          "internalType": "bool",
          "name": "",
          "type": "bool"
        }
      ],
      "stateMutability": "view",
      "type": "function",
      "constant": true
    },
    {
      "inputs": [
        {
          "internalType": "address",
          "name": "_add",
          "type": "address"
        }
      ],
      "name": "isFarmer",
      "outputs": [
        {
          "internalType": "bool",
          "name": "",
          "type": "bool"
        }
      ],
      "stateMutability": "view",
      "type": "function",
      "constant": true
    },
    {
      "inputs": [
        {
          "internalType": "address",
          "name": "_add",
          "type": "address"
        }
      ],
      "name": "isRetailer",
      "outputs": [
        {
          "internalType": "bool",
          "name": "",
          "type": "bool"
        }
      ],
      "stateMutability": "view",
      "type": "function",
      "constant": true
    },
    {
      "inputs": [
        {
          "internalType": "uint256",
          "name": "",
          "type": "uint256"
        }
      ],
      "name": "product_list",
      "outputs": [
        {
          "internalType": "uint256",
          "name": "id",
          "type": "uint256"
        },
        {
          "internalType": "uint256",
          "name": "safranal_content",
          "type": "uint256"
        },
        {
          "internalType": "uint256",
          "name": "price",
          "type": "uint256"
        },
        {
          "internalType": "address payable",
          "name": "farmer",
          "type": "address"
        },
        {
          "internalType": "address payable",
          "name": "distributor",
          "type": "address"
        },
        {
          "internalType": "address payable",
          "name": "retailer",
          "type": "address"
        },
        {
          "internalType": "address payable",
          "name": "consumer",
          "type": "address"
        },
        {
          "internalType": "address payable",
          "name": "Current_owner",
          "type": "address"
        },
        {
          "internalType": "enum SupplyChain.State",
          "name": "state",
          "type": "uint8"
        },
        {
          "internalType": "string",
          "name": "grade",
          "type": "string"
        }
      ],
      "stateMutability": "view",
      "type": "function",
      "constant": true
    },
    {
      "inputs": [],
      "name": "random_num",
      "outputs": [
        {
          "internalType": "uint256",
          "name": "",
          "type": "uint256"
        }
      ],
      "stateMutability": "view",
      "type": "function",
      "constant": true
    },
    {
      "inputs": [
        {
          "internalType": "uint256",
          "name": "",
          "type": "uint256"
        }
      ],
      "name": "registered",
      "outputs": [
        {
          "internalType": "uint256",
          "name": "id",
          "type": "uint256"
        },
        {
          "internalType": "uint256",
          "name": "rep_score",
          "type": "uint256"
        },
        {
          "internalType": "bool",
          "name": "verdict",
          "type": "bool"
        }
      ],
      "stateMutability": "view",
      "type": "function",
      "constant": true
    },
    {
      "inputs": [],
      "name": "reject",
      "outputs": [],
      "stateMutability": "nonpayable",
      "type": "function"
    },
    {
      "inputs": [
        {
          "internalType": "address",
          "name": "_add",
          "type": "address"
        }
      ],
      "name": "removeConsumer",
      "outputs": [],
      "stateMutability": "nonpayable",
      "type": "function"
    },
    {
      "inputs": [
        {
          "internalType": "address",
          "name": "_add",
          "type": "address"
        }
      ],
      "name": "removeDistributor",
      "outputs": [],
      "stateMutability": "nonpayable",
      "type": "function"
    },
    {
      "inputs": [
        {
          "internalType": "address",
          "name": "_add",
          "type": "address"
        }
      ],
      "name": "removeFarmer",
      "outputs": [],
      "stateMutability": "nonpayable",
      "type": "function"
    },
    {
      "inputs": [
        {
          "internalType": "address",
          "name": "_add",
          "type": "address"
        }
      ],
      "name": "removeRetailer",
      "outputs": [],
      "stateMutability": "nonpayable",
      "type": "function"
    },
    {
      "inputs": [],
      "name": "reset",
      "outputs": [],
      "stateMutability": "nonpayable",
      "type": "function"
    },
    {
      "inputs": [],
      "name": "select_5_people",
      "outputs": [],
      "stateMutability": "nonpayable",
      "type": "function"
    },
    {
      "inputs": [],
      "name": "update_score",
      "outputs": [
        {
          "internalType": "bool",
          "name": "",
          "type": "bool"
        }
      ],
      "stateMutability": "nonpayable",
      "type": "function"
    },
    {
      "inputs": [],
      "name": "ver_register",
      "outputs": [],
      "stateMutability": "nonpayable",
      "type": "function"
    },
    {
      "inputs": [],
      "name": "verify",
      "outputs": [
        {
          "internalType": "bool",
          "name": "",
          "type": "bool"
        }
      ],
      "stateMutability": "nonpayable",
      "type": "function"
    },
    {
      "inputs": [
        {
          "internalType": "uint256",
          "name": "_id",
          "type": "uint256"
        },
        {
          "internalType": "uint256",
          "name": "saf_content",
          "type": "uint256"
        },
        {
          "internalType": "string",
          "name": "_grade",
          "type": "string"
        },
        {
          "internalType": "uint256",
          "name": "_price",
          "type": "uint256"
        }
      ],
      "name": "add_product",
      "outputs": [],
      "stateMutability": "nonpayable",
      "type": "function"
    },
    {
      "inputs": [
        {
          "internalType": "uint256",
          "name": "_id",
          "type": "uint256"
        },
        {
          "internalType": "uint256",
          "name": "saf_content",
          "type": "uint256"
        }
      ],
      "name": "harvest_product",
      "outputs": [],
      "stateMutability": "nonpayable",
      "type": "function"
    },
    {
      "inputs": [
        {
          "internalType": "uint256",
          "name": "_id",
          "type": "uint256"
        }
      ],
      "name": "dry_product",
      "outputs": [],
      "stateMutability": "nonpayable",
      "type": "function"
    },
    {
      "inputs": [
        {
          "internalType": "uint256",
          "name": "_id",
          "type": "uint256"
        },
        {
          "internalType": "string",
          "name": "_grade",
          "type": "string"
        }
      ],
      "name": "grading",
      "outputs": [],
      "stateMutability": "nonpayable",
      "type": "function"
    },
    {
      "inputs": [
        {
          "internalType": "uint256",
          "name": "_id",
          "type": "uint256"
        }
      ],
      "name": "packing",
      "outputs": [],
      "stateMutability": "nonpayable",
      "type": "function"
    },
    {
      "inputs": [
        {
          "internalType": "uint256",
          "name": "_id",
          "type": "uint256"
        },
        {
          "internalType": "uint256",
          "name": "_price",
          "type": "uint256"
        }
      ],
      "name": "for_sale",
      "outputs": [],
      "stateMutability": "nonpayable",
      "type": "function"
    },
    {
      "inputs": [
        {
          "internalType": "uint256",
          "name": "_id",
          "type": "uint256"
        },
        {
          "internalType": "uint256",
          "name": "safranal_content",
          "type": "uint256"
        }
      ],
      "name": "get_response_from_verifiers",
      "outputs": [
        {
          "internalType": "bool",
          "name": "",
          "type": "bool"
        }
      ],
      "stateMutability": "nonpayable",
      "type": "function"
    },
    {
      "inputs": [
        {
          "internalType": "uint256",
          "name": "_id",
          "type": "uint256"
        },
        {
          "internalType": "uint256",
          "name": "new_price",
          "type": "uint256"
        }
      ],
      "name": "sell_to_distributor",
      "outputs": [],
      "stateMutability": "payable",
      "type": "function",
      "payable": true
    },
    {
      "inputs": [
        {
          "internalType": "uint256",
          "name": "_id",
          "type": "uint256"
        },
        {
          "internalType": "uint256",
          "name": "new_price",
          "type": "uint256"
        }
      ],
      "name": "sell_to_retailer",
      "outputs": [],
      "stateMutability": "payable",
      "type": "function",
      "payable": true
    },
    {
      "inputs": [
        {
          "internalType": "uint256",
          "name": "_id",
          "type": "uint256"
        }
      ],
      "name": "sell_to_consumer",
      "outputs": [],
      "stateMutability": "payable",
      "type": "function",
      "payable": true
    },
    {
      "inputs": [
        {
          "internalType": "string",
          "name": "a",
          "type": "string"
        },
        {
          "internalType": "string",
          "name": "b",
          "type": "string"
        }
      ],
      "name": "compareStrings",
      "outputs": [
        {
          "internalType": "bool",
          "name": "",
          "type": "bool"
        }
      ],
      "stateMutability": "pure",
      "type": "function",
      "constant": true
    },
    {
      "inputs": [
        {
          "internalType": "uint256",
          "name": "_id",
          "type": "uint256"
        },
        {
          "internalType": "uint256",
          "name": "safranal_content",
          "type": "uint256"
        }
      ],
      "name": "verify_auto",
      "outputs": [
        {
          "internalType": "bool",
          "name": "",
          "type": "bool"
        }
      ],
      "stateMutability": "nonpayable",
      "type": "function"
    },
    {
      "inputs": [
        {
          "internalType": "address",
          "name": "_add",
          "type": "address"
        }
      ],
      "name": "get_rep_score",
      "outputs": [
        {
          "internalType": "uint256",
          "name": "",
          "type": "uint256"
        }
      ],
      "stateMutability": "view",
      "type": "function",
      "constant": true
    },
    {
      "inputs": [
        {
          "internalType": "address",
          "name": "_add",
          "type": "address"
        }
      ],
      "name": "decrement_rep_score",
      "outputs": [],
      "stateMutability": "nonpayable",
      "type": "function"
    },
    {
      "inputs": [
        {
          "internalType": "address",
          "name": "_add",
          "type": "address"
        }
      ],
      "name": "increment_rep_score",
      "outputs": [],
      "stateMutability": "nonpayable",
      "type": "function"
    }
  ],
  "bytecode": "0x608060405260006004556000600660006101000a81548160ff0219169083151502179055506000600b5534801561003557600080fd5b50614ced806100456000396000f3fe6080604052600436106102515760003560e01c80638708835511610139578063cf9168fc116100b6578063e6cf13461161007a578063e6cf13461461085d578063eb5ba90f1461089c578063edde8349146108e2578063efb605d01461090d578063fc735e9914610929578063ff0d50bb1461095457610251565b8063cf9168fc146107a2578063d74b40fd146107cb578063d7f57250146107f4578063d826f88f1461081d578063e6bf3fdc1461083457610251565b8063ac5da0b3116100fd578063ac5da0b3146106bf578063b9429069146106e8578063bed34bba14610725578063c186589314610762578063caca77461461077957610251565b806387088355146105c8578063890eba68146106055780638ec4f505146106305780638f0c86fa146106595780639a5c1ef11461069657610251565b80635ef5dd5a116101d25780637250e224116101965780637250e224146104ce57806377f2d472146104f7578063793a8866146105225780637d0703f41461053957806380c3f96d14610562578063834ff7391461058b57610251565b80635ef5dd5a146103c3578063687084db146104005780636ba1be561461043d57806370099ec81461046857806370953fdf1461049157610251565b80631fed106f116102195780631fed106f146103045780634dc415de1461032f57806356cebd061461034657806357c1f9e21461035d5780635da09b881461038657610251565b80630652bebf146102565780630e27e3df1461027257806310c43a171461029b578063112940f9146102c457806312424e3f146102ed575b600080fd5b610270600480360381019061026b9190613d34565b610970565b005b34801561027e57600080fd5b5061029960048036038101906102949190613dbf565b610c03565b005b3480156102a757600080fd5b506102c260048036038101906102bd9190613f32565b610c11565b005b3480156102d057600080fd5b506102eb60048036038101906102e69190613dbf565b610c47565b005b3480156102f957600080fd5b50610302610c55565b005b34801561031057600080fd5b50610319610cb2565b6040516103269190613fd0565b60405180910390f35b34801561033b57600080fd5b50610344610d68565b005b34801561035257600080fd5b5061035b610dc5565b005b34801561036957600080fd5b50610384600480360381019061037f9190613dbf565b610e16565b005b34801561039257600080fd5b506103ad60048036038101906103a89190613dbf565b610e24565b6040516103ba9190613fd0565b60405180910390f35b3480156103cf57600080fd5b506103ea60048036038101906103e59190613dbf565b610e38565b6040516103f79190613ffa565b60405180910390f35b34801561040c57600080fd5b5061042760048036038101906104229190614015565b610e81565b6040516104349190613fd0565b60405180910390f35b34801561044957600080fd5b506104526119c4565b60405161045f9190613fd0565b60405180910390f35b34801561047457600080fd5b5061048f600480360381019061048a9190613dbf565b611ae2565b005b34801561049d57600080fd5b506104b860048036038101906104b39190614015565b611af0565b6040516104c59190613fd0565b60405180910390f35b3480156104da57600080fd5b506104f560048036038101906104f09190613dbf565b611cca565b005b34801561050357600080fd5b5061050c611cd8565b6040516105199190613ffa565b60405180910390f35b34801561052e57600080fd5b50610537611e80565b005b34801561054557600080fd5b50610560600480360381019061055b9190613d34565b6120c3565b005b34801561056e57600080fd5b5061058960048036038101906105849190613dbf565b6122a0565b005b34801561059757600080fd5b506105b260048036038101906105ad9190613dbf565b6122ae565b6040516105bf9190613fd0565b60405180910390f35b3480156105d457600080fd5b506105ef60048036038101906105ea9190614015565b6122c2565b6040516105fc9190613ffa565b60405180910390f35b34801561061157600080fd5b5061061a61236e565b6040516106279190613fd0565b60405180910390f35b34801561063c57600080fd5b5061065760048036038101906106529190613dbf565b612381565b005b34801561066557600080fd5b50610680600480360381019061067b9190613dbf565b61238f565b60405161068d9190613fd0565b60405180910390f35b3480156106a257600080fd5b506106bd60048036038101906106b89190613d34565b6123a3565b005b3480156106cb57600080fd5b506106e660048036038101906106e19190614015565b612580565b005b3480156106f457600080fd5b5061070f600480360381019061070a9190613dbf565b612953565b60405161071c9190613fd0565b60405180910390f35b34801561073157600080fd5b5061074c60048036038101906107479190614055565b612967565b6040516107599190613fd0565b60405180910390f35b34801561076e57600080fd5b506107776129c0565b005b34801561078557600080fd5b506107a0600480360381019061079b91906140cd565b612a30565b005b3480156107ae57600080fd5b506107c960048036038101906107c49190614015565b612c39565b005b3480156107d757600080fd5b506107f260048036038101906107ed9190613dbf565b612e32565b005b34801561080057600080fd5b5061081b60048036038101906108169190613dbf565b612e8a565b005b34801561082957600080fd5b50610832612ee2565b005b34801561084057600080fd5b5061085b60048036038101906108569190613dbf565b612ff4565b005b34801561086957600080fd5b50610884600480360381019061087f9190613d34565b613002565b60405161089393929190614129565b60405180910390f35b3480156108a857600080fd5b506108c360048036038101906108be9190613d34565b613039565b6040516108d99a99989796959493929190614280565b60405180910390f35b3480156108ee57600080fd5b506108f76131c2565b6040516109049190613ffa565b60405180910390f35b61092760048036038101906109229190614015565b6131c8565b005b34801561093557600080fd5b5061093e613503565b60405161094b9190613fd0565b60405180910390f35b61096e60048036038101906109699190614015565b613522565b005b80600115156011600083815260200190815260200160002060009054906101000a900460ff161515146109d8576040517f08c379a00000000000000000000000000000000000000000000000000000000081526004016109cf9061436f565b60405180910390fd5b601060008381526020019081526020016000206002015480341015610a32576040517f08c379a0000000000000000000000000000000000000000000000000000000008152600401610a2990614401565b60405180910390fd5b33610a3c816122ae565b610a7b576040517f08c379a0000000000000000000000000000000000000000000000000000000008152600401610a729061446d565b60405180910390fd5b60006010600086815260200190815260200160002060070160009054906101000a900473ffffffffffffffffffffffffffffffffffffffff169050336010600087815260200190815260200160002060070160006101000a81548173ffffffffffffffffffffffffffffffffffffffff021916908373ffffffffffffffffffffffffffffffffffffffff160217905550336010600087815260200190815260200160002060060160006101000a81548173ffffffffffffffffffffffffffffffffffffffff021916908373ffffffffffffffffffffffffffffffffffffffff1602179055508073ffffffffffffffffffffffffffffffffffffffff166108fc60106000888152602001908152602001600020600201549081150290604051600060405180830381858888f19350505050158015610bbc573d6000803e3d6000fd5b5060076010600087815260200190815260200160002060070160146101000a81548160ff02191690836007811115610bf757610bf6614181565b5b02179055505050505050565b610c0e60038261385d565b50565b610c1b8484612580565b610c24846120c3565b610c2e8483612a30565b610c37846123a3565b610c418482612c39565b50505050565b610c52600382613973565b50565b6001600e60003373ffffffffffffffffffffffffffffffffffffffff1673ffffffffffffffffffffffffffffffffffffffff16815260200190815260200160002060020160006101000a81548160ff021916908315150217905550565b600060056009805490501015610cc757600080fd5b60008060005b600980549050811015610d5c5760011515600d600060098481548110610cf657610cf561448d565b5b9060005260206000200154815260200190815260200160002060020160009054906101000a900460ff16151503610d3a578280610d32906144eb565b935050610d49565b8180610d45906144eb565b9250505b8080610d54906144eb565b915050610ccd565b50808210159250505090565b6000600e60003373ffffffffffffffffffffffffffffffffffffffff1673ffffffffffffffffffffffffffffffffffffffff16815260200190815260200160002060020160006101000a81548160ff021916908315150217905550565b600060088054905090505b60008114610e13576008805480610dea57610de9614533565b5b600190038181906000526020600020016000905590558080610e0b90614562565b915050610dd0565b50565b610e2160018261385d565b50565b6000610e31600283613a8a565b9050919050565b6000600f60008373ffffffffffffffffffffffffffffffffffffffff1673ffffffffffffffffffffffffffffffffffffffff168152602001908152602001600020549050919050565b6000610e8b612ee2565b610e936129c0565b60005b6009805490508110156119b3576000610eb1606460016122c2565b9050601481106114315760558410158015610fac575060011515610fa8601060008881526020019081526020016000206008018054610eef906145ba565b80601f0160208091040260200160405190810160405280929190818152602001828054610f1b906145ba565b8015610f685780601f10610f3d57610100808354040283529160200191610f68565b820191906000526020600020905b815481529060010190602001808311610f4b57829003601f168201915b50505050506040518060400160405280600181526020017f4100000000000000000000000000000000000000000000000000000000000000815250612967565b1515145b15611003576001600d600060098581548110610fcb57610fca61448d565b5b9060005260206000200154815260200190815260200160002060020160006101000a81548160ff02191690831515021790555061142c565b604684101580156110f45750600115156110f0601060008881526020019081526020016000206008018054611037906145ba565b80601f0160208091040260200160405190810160405280929190818152602001828054611063906145ba565b80156110b05780601f10611085576101008083540402835291602001916110b0565b820191906000526020600020905b81548152906001019060200180831161109357829003601f168201915b50505050506040518060400160405280600181526020017f4200000000000000000000000000000000000000000000000000000000000000815250612967565b1515145b1561114b576001600d6000600985815481106111135761111261448d565b5b9060005260206000200154815260200190815260200160002060020160006101000a81548160ff02191690831515021790555061142b565b603c841015801561123c57506001151561123860106000888152602001908152602001600020600801805461117f906145ba565b80601f01602080910402602001604051908101604052809291908181526020018280546111ab906145ba565b80156111f85780601f106111cd576101008083540402835291602001916111f8565b820191906000526020600020905b8154815290600101906020018083116111db57829003601f168201915b50505050506040518060400160405280600181526020017f4300000000000000000000000000000000000000000000000000000000000000815250612967565b1515145b15611293576001600d60006009858154811061125b5761125a61448d565b5b9060005260206000200154815260200190815260200160002060020160006101000a81548160ff02191690831515021790555061142a565b603284101580156113845750600115156113806010600088815260200190815260200160002060080180546112c7906145ba565b80601f01602080910402602001604051908101604052809291908181526020018280546112f3906145ba565b80156113405780601f1061131557610100808354040283529160200191611340565b820191906000526020600020905b81548152906001019060200180831161132357829003601f168201915b50505050506040518060400160405280600181526020017f4400000000000000000000000000000000000000000000000000000000000000815250612967565b1515145b156113db576001600d6000600985815481106113a3576113a261448d565b5b9060005260206000200154815260200190815260200160002060020160006101000a81548160ff021916908315150217905550611429565b6000600d6000600985815481106113f5576113f461448d565b5b9060005260206000200154815260200190815260200160002060020160006101000a81548160ff0219169083151502179055505b5b5b5b61199f565b60558410801561152157506001151561151d601060008881526020019081526020016000206008018054611464906145ba565b80601f0160208091040260200160405190810160405280929190818152602001828054611490906145ba565b80156114dd5780601f106114b2576101008083540402835291602001916114dd565b820191906000526020600020905b8154815290600101906020018083116114c057829003601f168201915b50505050506040518060400160405280600181526020017f4100000000000000000000000000000000000000000000000000000000000000815250612967565b1515145b15611578576001600d6000600985815481106115405761153f61448d565b5b9060005260206000200154815260200190815260200160002060020160006101000a81548160ff02191690831515021790555061199e565b6046841080156116685750600115156116646010600088815260200190815260200160002060080180546115ab906145ba565b80601f01602080910402602001604051908101604052809291908181526020018280546115d7906145ba565b80156116245780601f106115f957610100808354040283529160200191611624565b820191906000526020600020905b81548152906001019060200180831161160757829003601f168201915b50505050506040518060400160405280600181526020017f4200000000000000000000000000000000000000000000000000000000000000815250612967565b1515145b156116bf576001600d6000600985815481106116875761168661448d565b5b9060005260206000200154815260200190815260200160002060020160006101000a81548160ff02191690831515021790555061199d565b603c841080156117af5750600115156117ab6010600088815260200190815260200160002060080180546116f2906145ba565b80601f016020809104026020016040519081016040528092919081815260200182805461171e906145ba565b801561176b5780601f106117405761010080835404028352916020019161176b565b820191906000526020600020905b81548152906001019060200180831161174e57829003601f168201915b50505050506040518060400160405280600181526020017f4300000000000000000000000000000000000000000000000000000000000000815250612967565b1515145b15611806576001600d6000600985815481106117ce576117cd61448d565b5b9060005260206000200154815260200190815260200160002060020160006101000a81548160ff02191690831515021790555061199c565b6032841080156118f65750600115156118f2601060008881526020019081526020016000206008018054611839906145ba565b80601f0160208091040260200160405190810160405280929190818152602001828054611865906145ba565b80156118b25780601f10611887576101008083540402835291602001916118b2565b820191906000526020600020905b81548152906001019060200180831161189557829003601f168201915b50505050506040518060400160405280600181526020017f4400000000000000000000000000000000000000000000000000000000000000815250612967565b1515145b1561194d576001600d6000600985815481106119155761191461448d565b5b9060005260206000200154815260200190815260200160002060020160006101000a81548160ff02191690831515021790555061199b565b6000600d6000600985815481106119675761196661448d565b5b9060005260206000200154815260200190815260200160002060020160006101000a81548160ff0219169083151502179055505b5b5b5b5b5080806119ab906144eb565b915050610e96565b506119bc6119c4565b905092915050565b6000806119cf610cb2565b905060005b600980549050811015611ada57600d6000600983815481106119f9576119f861448d565b5b9060005260206000200154815260200190815260200160002060020160009054906101000a900460ff16151582151503611a7c57600d600060098381548110611a4557611a4461448d565b5b906000526020600020015481526020019081526020016000206001016000815480929190611a72906144eb565b9190505550611ac7565b600d600060098381548110611a9457611a9361448d565b5b906000526020600020015481526020019081526020016000206001016000815480929190611ac190614562565b91905055505b8080611ad2906144eb565b9150506119d4565b508091505090565b611aed60028261385d565b50565b600080611afd8484610e81565b90506000151581151503611c1a576000600f60006010600088815260200190815260200160002060070160009054906101000a900473ffffffffffffffffffffffffffffffffffffffff1673ffffffffffffffffffffffffffffffffffffffff1673ffffffffffffffffffffffffffffffffffffffff168152602001908152602001600020541115611c1557600f60006010600087815260200190815260200160002060070160009054906101000a900473ffffffffffffffffffffffffffffffffffffffff1673ffffffffffffffffffffffffffffffffffffffff1673ffffffffffffffffffffffffffffffffffffffff1681526020019081526020016000206000815480929190611c0f90614562565b91905055505b611ca6565b600f60006010600087815260200190815260200160002060070160009054906101000a900473ffffffffffffffffffffffffffffffffffffffff1673ffffffffffffffffffffffffffffffffffffffff1673ffffffffffffffffffffffffffffffffffffffff1681526020019081526020016000206000815480929190611ca0906144eb565b91905055505b80600660006101000a81548160ff0219169083151502179055508091505092915050565b611cd5600182613973565b50565b60008060005b600780549050811015611def5760011515600a600060078481548110611d0757611d0661448d565b5b906000526020600020906003020160000154815260200190815260200160002060009054906101000a900460ff16151503611dd65760078181548110611d5057611d4f61448d565b5b906000526020600020906003020160010154915060005b82811015611dd057600860078381548110611d8557611d8461448d565b5b90600052602060002090600302016000015490806001815401808255809150506001900390600052602060002001600090919091909150558080611dc8906144eb565b915050611d67565b50611ddb565b611ddc565b5b8080611de7906144eb565b915050611cde565b506000611e0e6001600880549050611e0791906145eb565b60006122c2565b90506000600a600060088481548110611e2a57611e2961448d565b5b9060005260206000200154815260200190815260200160002060006101000a81548160ff02191690831515021790555060088181548110611e6e57611e6d61448d565b5b90600052602060002001549250505090565b60001515600c60003373ffffffffffffffffffffffffffffffffffffffff1673ffffffffffffffffffffffffffffffffffffffff16815260200190815260200160002060009054906101000a900460ff16151514611edd57600080fd5b6001600c60003373ffffffffffffffffffffffffffffffffffffffff1673ffffffffffffffffffffffffffffffffffffffff16815260200190815260200160002060006101000a81548160ff021916908315150217905550611f3d613b51565b600b6000815480929190611f50906144eb565b91905055816000018181525050600181602001818152505080600d600083600001518152602001908152602001600020600082015181600001556020820151816001015560408201518160020160006101000a81548160ff0219169083151502179055509050506001600a60008360000151815260200190815260200160002060006101000a81548160ff0219169083151502179055506007819080600181540180825580915050600190039060005260206000209060030201600090919091909150600082015181600001556020820151816001015560408201518160020160006101000a81548160ff021916908315150217905550505080600e60003373ffffffffffffffffffffffffffffffffffffffff1673ffffffffffffffffffffffffffffffffffffffff168152602001908152602001600020600082015181600001556020820151816001015560408201518160020160006101000a81548160ff02191690831515021790555090505050565b80600115156011600083815260200190815260200160002060009054906101000a900460ff1615151461212b576040517f08c379a00000000000000000000000000000000000000000000000000000000081526004016121229061436f565b60405180910390fd5b81600060078111156121405761213f614181565b5b6010600083815260200190815260200160002060070160149054906101000a900460ff16600781111561217657612175614181565b5b146121b6576040517f08c379a00000000000000000000000000000000000000000000000000000000081526004016121ad9061466b565b60405180910390fd5b823373ffffffffffffffffffffffffffffffffffffffff166010600083815260200190815260200160002060030160009054906101000a900473ffffffffffffffffffffffffffffffffffffffff1673ffffffffffffffffffffffffffffffffffffffff161461225b576040517f08c379a00000000000000000000000000000000000000000000000000000000081526004016122529061446d565b60405180910390fd5b60016010600086815260200190815260200160002060070160146101000a81548160ff0219169083600781111561229557612294614181565b5b021790555050505050565b6122ab600082613973565b50565b60006122bb600383613a8a565b9050919050565b6000600460008154809291906122d7906144eb565b9190505550606442336004546040516020016122f5939291906146f4565b6040516020818303038152906040528051906020012060001c6123189190614760565b6005819055506000606490506000838561233291906145eb565b9050838282600060055461234691906145eb565b6123509190614791565b61235a91906147eb565b612364919061481c565b9250505092915050565b600660009054906101000a900460ff1681565b61238c600282613973565b50565b600061239c600183613a8a565b9050919050565b80600115156011600083815260200190815260200160002060009054906101000a900460ff1615151461240b576040517f08c379a00000000000000000000000000000000000000000000000000000000081526004016124029061436f565b60405180910390fd5b81600260078111156124205761241f614181565b5b6010600083815260200190815260200160002060070160149054906101000a900460ff16600781111561245657612455614181565b5b14612496576040517f08c379a000000000000000000000000000000000000000000000000000000000815260040161248d906148be565b60405180910390fd5b823373ffffffffffffffffffffffffffffffffffffffff166010600083815260200190815260200160002060030160009054906101000a900473ffffffffffffffffffffffffffffffffffffffff1673ffffffffffffffffffffffffffffffffffffffff161461253b576040517f08c379a00000000000000000000000000000000000000000000000000000000081526004016125329061446d565b60405180910390fd5b60036010600086815260200190815260200160002060070160146101000a81548160ff0219169083600781111561257557612574614181565b5b021790555050505050565b61258933612953565b6125c8576040517f08c379a00000000000000000000000000000000000000000000000000000000081526004016125bf90614950565b60405180910390fd5b6125d0613b74565b828160000181815250508181602001818152505033816060019073ffffffffffffffffffffffffffffffffffffffff16908173ffffffffffffffffffffffffffffffffffffffff168152505080606001518160e0019073ffffffffffffffffffffffffffffffffffffffff16908173ffffffffffffffffffffffffffffffffffffffff16815250506000816080019073ffffffffffffffffffffffffffffffffffffffff16908173ffffffffffffffffffffffffffffffffffffffff168152505080608001518160a0019073ffffffffffffffffffffffffffffffffffffffff16908173ffffffffffffffffffffffffffffffffffffffff168152505080608001518160c0019073ffffffffffffffffffffffffffffffffffffffff16908173ffffffffffffffffffffffffffffffffffffffff16815250506000816101000190600781111561272357612722614181565b5b9081600781111561273757612736614181565b5b81525050806010600085815260200190815260200160002060008201518160000155602082015181600101556040820151816002015560608201518160030160006101000a81548173ffffffffffffffffffffffffffffffffffffffff021916908373ffffffffffffffffffffffffffffffffffffffff16021790555060808201518160040160006101000a81548173ffffffffffffffffffffffffffffffffffffffff021916908373ffffffffffffffffffffffffffffffffffffffff16021790555060a08201518160050160006101000a81548173ffffffffffffffffffffffffffffffffffffffff021916908373ffffffffffffffffffffffffffffffffffffffff16021790555060c08201518160060160006101000a81548173ffffffffffffffffffffffffffffffffffffffff021916908373ffffffffffffffffffffffffffffffffffffffff16021790555060e08201518160070160006101000a81548173ffffffffffffffffffffffffffffffffffffffff021916908373ffffffffffffffffffffffffffffffffffffffff1602179055506101008201518160070160146101000a81548160ff021916908360078111156128fc576128fb614181565b5b021790555061012082015181600801908051906020019061291e929190613c47565b5090505060016011600085815260200190815260200160002060006101000a81548160ff021916908315150217905550505050565b6000612960600083613a8a565b9050919050565b60008160405160200161297a91906149ac565b60405160208183030381529060405280519060200120836040516020016129a191906149ac565b6040516020818303038152906040528051906020012014905092915050565b600560078054905010156129d357600080fd5b6000600590505b60008114612a2d5760096129ec611cd8565b90806001815401808255809150506001900390600052602060002001600090919091909150558080612a1d90614562565b915050612a28610dc5565b6129da565b50565b81600115156011600083815260200190815260200160002060009054906101000a900460ff16151514612a98576040517f08c379a0000000000000000000000000000000000000000000000000000000008152600401612a8f9061436f565b60405180910390fd5b8260016007811115612aad57612aac614181565b5b6010600083815260200190815260200160002060070160149054906101000a900460ff166007811115612ae357612ae2614181565b5b14612b23576040517f08c379a0000000000000000000000000000000000000000000000000000000008152600401612b1a90614a0f565b60405180910390fd5b833373ffffffffffffffffffffffffffffffffffffffff166010600083815260200190815260200160002060030160009054906101000a900473ffffffffffffffffffffffffffffffffffffffff1673ffffffffffffffffffffffffffffffffffffffff1614612bc8576040517f08c379a0000000000000000000000000000000000000000000000000000000008152600401612bbf9061446d565b60405180910390fd5b83601060008781526020019081526020016000206008019080519060200190612bf2929190613c47565b5060026010600087815260200190815260200160002060070160146101000a81548160ff02191690836007811115612c2d57612c2c614181565b5b02179055505050505050565b81600115156011600083815260200190815260200160002060009054906101000a900460ff16151514612ca1576040517f08c379a0000000000000000000000000000000000000000000000000000000008152600401612c989061436f565b60405180910390fd5b8260036007811115612cb657612cb5614181565b5b6010600083815260200190815260200160002060070160149054906101000a900460ff166007811115612cec57612ceb614181565b5b14612d2c576040517f08c379a0000000000000000000000000000000000000000000000000000000008152600401612d2390614a7b565b60405180910390fd5b833373ffffffffffffffffffffffffffffffffffffffff166010600083815260200190815260200160002060030160009054906101000a900473ffffffffffffffffffffffffffffffffffffffff1673ffffffffffffffffffffffffffffffffffffffff1614612dd1576040517f08c379a0000000000000000000000000000000000000000000000000000000008152600401612dc89061446d565b60405180910390fd5b60046010600087815260200190815260200160002060070160146101000a81548160ff02191690836007811115612e0b57612e0a614181565b5b02179055508360106000878152602001908152602001600020600201819055505050505050565b600f60008273ffffffffffffffffffffffffffffffffffffffff1673ffffffffffffffffffffffffffffffffffffffff1681526020019081526020016000206000815480929190612e8290614562565b919050555050565b600f60008273ffffffffffffffffffffffffffffffffffffffff1673ffffffffffffffffffffffffffffffffffffffff1681526020019081526020016000206000815480929190612eda906144eb565b919050555050565b60005b600780549050811015612f56576001600a600060078481548110612f0c57612f0b61448d565b5b906000526020600020906003020160000154815260200190815260200160002060006101000a81548160ff0219169083151502179055508080612f4e906144eb565b915050612ee5565b50600060088054905090505b60008114612fa5576008805480612f7c57612f7b614533565b5b600190038181906000526020600020016000905590558080612f9d90614562565b915050612f62565b60098054905090505b60008114612ff1576009805480612fc857612fc7614533565b5b600190038181906000526020600020016000905590558080612fe990614562565b915050612fae565b50565b612fff60008261385d565b50565b600d6020528060005260406000206000915090508060000154908060010154908060020160009054906101000a900460ff16905083565b60106020528060005260406000206000915090508060000154908060010154908060020154908060030160009054906101000a900473ffffffffffffffffffffffffffffffffffffffff16908060040160009054906101000a900473ffffffffffffffffffffffffffffffffffffffff16908060050160009054906101000a900473ffffffffffffffffffffffffffffffffffffffff16908060060160009054906101000a900473ffffffffffffffffffffffffffffffffffffffff16908060070160009054906101000a900473ffffffffffffffffffffffffffffffffffffffff16908060070160149054906101000a900460ff169080600801805461313f906145ba565b80601f016020809104026020016040519081016040528092919081815260200182805461316b906145ba565b80156131b85780601f1061318d576101008083540402835291602001916131b8565b820191906000526020600020905b81548152906001019060200180831161319b57829003601f168201915b505050505090508a565b60055481565b81600115156011600083815260200190815260200160002060009054906101000a900460ff16151514613230576040517f08c379a00000000000000000000000000000000000000000000000000000000081526004016132279061436f565b60405180910390fd5b826004600781111561324557613244614181565b5b6010600083815260200190815260200160002060070160149054906101000a900460ff16600781111561327b5761327a614181565b5b146132bb576040517f08c379a00000000000000000000000000000000000000000000000000000000081526004016132b290614ae7565b60405180910390fd5b336132c58161238f565b613304576040517f08c379a00000000000000000000000000000000000000000000000000000000081526004016132fb9061446d565b60405180910390fd5b60106000868152602001908152602001600020600201548034101561335e576040517f08c379a000000000000000000000000000000000000000000000000000000000815260040161335590614401565b60405180910390fd5b60006010600088815260200190815260200160002060070160009054906101000a900473ffffffffffffffffffffffffffffffffffffffff169050336010600089815260200190815260200160002060070160006101000a81548173ffffffffffffffffffffffffffffffffffffffff021916908373ffffffffffffffffffffffffffffffffffffffff160217905550336010600089815260200190815260200160002060040160006101000a81548173ffffffffffffffffffffffffffffffffffffffff021916908373ffffffffffffffffffffffffffffffffffffffff16021790555060056010600089815260200190815260200160002060070160146101000a81548160ff0219169083600781111561347d5761347c614181565b5b02179055508073ffffffffffffffffffffffffffffffffffffffff166108fc601060008a8152602001908152602001600020600201549081150290604051600060405180830381858888f193505050501580156134de573d6000803e3d6000fd5b5085601060008981526020019081526020016000206002018190555050505050505050565b600061350d612ee2565b6135156129c0565b61351d6119c4565b905090565b81600115156011600083815260200190815260200160002060009054906101000a900460ff1615151461358a576040517f08c379a00000000000000000000000000000000000000000000000000000000081526004016135819061436f565b60405180910390fd5b6010600084815260200190815260200160002060020154803410156135e4576040517f08c379a00000000000000000000000000000000000000000000000000000000081526004016135db90614401565b60405180910390fd5b336135ee81610e24565b61362d576040517f08c379a00000000000000000000000000000000000000000000000000000000081526004016136249061446d565b60405180910390fd5b846005600781111561364257613641614181565b5b6010600083815260200190815260200160002060070160149054906101000a900460ff16600781111561367857613677614181565b5b146136b8576040517f08c379a00000000000000000000000000000000000000000000000000000000081526004016136af9061446d565b60405180910390fd5b60006010600088815260200190815260200160002060070160009054906101000a900473ffffffffffffffffffffffffffffffffffffffff169050336010600089815260200190815260200160002060070160006101000a81548173ffffffffffffffffffffffffffffffffffffffff021916908373ffffffffffffffffffffffffffffffffffffffff160217905550336010600089815260200190815260200160002060050160006101000a81548173ffffffffffffffffffffffffffffffffffffffff021916908373ffffffffffffffffffffffffffffffffffffffff16021790555060066010600089815260200190815260200160002060070160146101000a81548160ff021916908360078111156137d7576137d6614181565b5b02179055508073ffffffffffffffffffffffffffffffffffffffff166108fc601060008a8152602001908152602001600020600201549081150290604051600060405180830381858888f19350505050158015613838573d6000803e3d6000fd5b5085601060008981526020019081526020016000206002018190555050505050505050565b600073ffffffffffffffffffffffffffffffffffffffff168173ffffffffffffffffffffffffffffffffffffffff16036138cc576040517f08c379a00000000000000000000000000000000000000000000000000000000081526004016138c390614b53565b60405180910390fd5b6138d68282613a8a565b613915576040517f08c379a000000000000000000000000000000000000000000000000000000000815260040161390c90614bbf565b60405180910390fd5b60008260000160008373ffffffffffffffffffffffffffffffffffffffff1673ffffffffffffffffffffffffffffffffffffffff16815260200190815260200160002060006101000a81548160ff0219169083151502179055505050565b600073ffffffffffffffffffffffffffffffffffffffff168173ffffffffffffffffffffffffffffffffffffffff16036139e2576040517f08c379a00000000000000000000000000000000000000000000000000000000081526004016139d990614b53565b60405180910390fd5b6139ec8282613a8a565b15613a2c576040517f08c379a0000000000000000000000000000000000000000000000000000000008152600401613a2390614c2b565b60405180910390fd5b60018260000160008373ffffffffffffffffffffffffffffffffffffffff1673ffffffffffffffffffffffffffffffffffffffff16815260200190815260200160002060006101000a81548160ff0219169083151502179055505050565b60008073ffffffffffffffffffffffffffffffffffffffff168273ffffffffffffffffffffffffffffffffffffffff1603613afa576040517f08c379a0000000000000000000000000000000000000000000000000000000008152600401613af190614c97565b60405180910390fd5b8260000160008373ffffffffffffffffffffffffffffffffffffffff1673ffffffffffffffffffffffffffffffffffffffff16815260200190815260200160002060009054906101000a900460ff16905092915050565b604051806060016040528060008152602001600081526020016000151581525090565b604051806101400160405280600081526020016000815260200160008152602001600073ffffffffffffffffffffffffffffffffffffffff168152602001600073ffffffffffffffffffffffffffffffffffffffff168152602001600073ffffffffffffffffffffffffffffffffffffffff168152602001600073ffffffffffffffffffffffffffffffffffffffff168152602001600073ffffffffffffffffffffffffffffffffffffffff16815260200160006007811115613c3a57613c39614181565b5b8152602001606081525090565b828054613c53906145ba565b90600052602060002090601f016020900481019282613c755760008555613cbc565b82601f10613c8e57805160ff1916838001178555613cbc565b82800160010185558215613cbc579182015b82811115613cbb578251825591602001919060010190613ca0565b5b509050613cc99190613ccd565b5090565b5b80821115613ce6576000816000905550600101613cce565b5090565b6000604051905090565b600080fd5b600080fd5b6000819050919050565b613d1181613cfe565b8114613d1c57600080fd5b50565b600081359050613d2e81613d08565b92915050565b600060208284031215613d4a57613d49613cf4565b5b6000613d5884828501613d1f565b91505092915050565b600073ffffffffffffffffffffffffffffffffffffffff82169050919050565b6000613d8c82613d61565b9050919050565b613d9c81613d81565b8114613da757600080fd5b50565b600081359050613db981613d93565b92915050565b600060208284031215613dd557613dd4613cf4565b5b6000613de384828501613daa565b91505092915050565b600080fd5b600080fd5b6000601f19601f8301169050919050565b7f4e487b7100000000000000000000000000000000000000000000000000000000600052604160045260246000fd5b613e3f82613df6565b810181811067ffffffffffffffff82111715613e5e57613e5d613e07565b5b80604052505050565b6000613e71613cea565b9050613e7d8282613e36565b919050565b600067ffffffffffffffff821115613e9d57613e9c613e07565b5b613ea682613df6565b9050602081019050919050565b82818337600083830152505050565b6000613ed5613ed084613e82565b613e67565b905082815260208101848484011115613ef157613ef0613df1565b5b613efc848285613eb3565b509392505050565b600082601f830112613f1957613f18613dec565b5b8135613f29848260208601613ec2565b91505092915050565b60008060008060808587031215613f4c57613f4b613cf4565b5b6000613f5a87828801613d1f565b9450506020613f6b87828801613d1f565b935050604085013567ffffffffffffffff811115613f8c57613f8b613cf9565b5b613f9887828801613f04565b9250506060613fa987828801613d1f565b91505092959194509250565b60008115159050919050565b613fca81613fb5565b82525050565b6000602082019050613fe56000830184613fc1565b92915050565b613ff481613cfe565b82525050565b600060208201905061400f6000830184613feb565b92915050565b6000806040838503121561402c5761402b613cf4565b5b600061403a85828601613d1f565b925050602061404b85828601613d1f565b9150509250929050565b6000806040838503121561406c5761406b613cf4565b5b600083013567ffffffffffffffff81111561408a57614089613cf9565b5b61409685828601613f04565b925050602083013567ffffffffffffffff8111156140b7576140b6613cf9565b5b6140c385828601613f04565b9150509250929050565b600080604083850312156140e4576140e3613cf4565b5b60006140f285828601613d1f565b925050602083013567ffffffffffffffff81111561411357614112613cf9565b5b61411f85828601613f04565b9150509250929050565b600060608201905061413e6000830186613feb565b61414b6020830185613feb565b6141586040830184613fc1565b949350505050565b600061416b82613d61565b9050919050565b61417b81614160565b82525050565b7f4e487b7100000000000000000000000000000000000000000000000000000000600052602160045260246000fd5b600881106141c1576141c0614181565b5b50565b60008190506141d2826141b0565b919050565b60006141e2826141c4565b9050919050565b6141f2816141d7565b82525050565b600081519050919050565b600082825260208201905092915050565b60005b83811015614232578082015181840152602081019050614217565b83811115614241576000848401525b50505050565b6000614252826141f8565b61425c8185614203565b935061426c818560208601614214565b61427581613df6565b840191505092915050565b600061014082019050614296600083018d613feb565b6142a3602083018c613feb565b6142b0604083018b613feb565b6142bd606083018a614172565b6142ca6080830189614172565b6142d760a0830188614172565b6142e460c0830187614172565b6142f160e0830186614172565b6142ff6101008301856141e9565b8181036101208301526143128184614247565b90509b9a5050505050505050505050565b7f50726f6475637420646f65736e27742065786973740000000000000000000000600082015250565b6000614359601583614203565b915061436482614323565b602082019050919050565b600060208201905081810360008301526143888161434c565b9050919050565b7f54686520616d6f756e74206973206e6f742073756666696369656e7420746f2060008201527f627579207468652070726f647563740000000000000000000000000000000000602082015250565b60006143eb602f83614203565b91506143f68261438f565b604082019050919050565b6000602082019050818103600083015261441a816143de565b9050919050565b7f4e6f7420617574686f72697a6564000000000000000000000000000000000000600082015250565b6000614457600e83614203565b915061446282614421565b602082019050919050565b600060208201905081810360008301526144868161444a565b9050919050565b7f4e487b7100000000000000000000000000000000000000000000000000000000600052603260045260246000fd5b7f4e487b7100000000000000000000000000000000000000000000000000000000600052601160045260246000fd5b60006144f682613cfe565b91507fffffffffffffffffffffffffffffffffffffffffffffffffffffffffffffffff8203614528576145276144bc565b5b600182019050919050565b7f4e487b7100000000000000000000000000000000000000000000000000000000600052603160045260246000fd5b600061456d82613cfe565b9150600082036145805761457f6144bc565b5b600182039050919050565b7f4e487b7100000000000000000000000000000000000000000000000000000000600052602260045260246000fd5b600060028204905060018216806145d257607f821691505b6020821081036145e5576145e461458b565b5b50919050565b60006145f682613cfe565b915061460183613cfe565b925082821015614614576146136144bc565b5b828203905092915050565b7f53616666726f6e206973206e6f74206861727665737465640000000000000000600082015250565b6000614655601883614203565b91506146608261461f565b602082019050919050565b6000602082019050818103600083015261468481614648565b9050919050565b6000819050919050565b6146a66146a182613cfe565b61468b565b82525050565b60008160601b9050919050565b60006146c4826146ac565b9050919050565b60006146d6826146b9565b9050919050565b6146ee6146e982613d81565b6146cb565b82525050565b60006147008286614695565b60208201915061471082856146dd565b6014820191506147208284614695565b602082019150819050949350505050565b7f4e487b7100000000000000000000000000000000000000000000000000000000600052601260045260246000fd5b600061476b82613cfe565b915061477683613cfe565b92508261478657614785614731565b5b828206905092915050565b600061479c82613cfe565b91506147a783613cfe565b9250817fffffffffffffffffffffffffffffffffffffffffffffffffffffffffffffffff04831182151516156147e0576147df6144bc565b5b828202905092915050565b60006147f682613cfe565b915061480183613cfe565b92508261481157614810614731565b5b828204905092915050565b600061482782613cfe565b915061483283613cfe565b9250827fffffffffffffffffffffffffffffffffffffffffffffffffffffffffffffffff03821115614867576148666144bc565b5b828201905092915050565b7f53616666726f6e206973206e6f74206772616465640000000000000000000000600082015250565b60006148a8601583614203565b91506148b382614872565b602082019050919050565b600060208201905081810360008301526148d78161489b565b9050919050565b7f596f7520617265206e6f7420617574686f72697a656420746f20706572666f7260008201527f6d2074686973206f7065726174696f6e00000000000000000000000000000000602082015250565b600061493a603083614203565b9150614945826148de565b604082019050919050565b600060208201905081810360008301526149698161492d565b9050919050565b600081905092915050565b6000614986826141f8565b6149908185614970565b93506149a0818560208601614214565b80840191505092915050565b60006149b8828461497b565b915081905092915050565b7f53616666726f6e206973206e6f74206472696564000000000000000000000000600082015250565b60006149f9601483614203565b9150614a04826149c3565b602082019050919050565b60006020820190508181036000830152614a28816149ec565b9050919050565b7f53616666726f6e206973206e6f74207061636b65640000000000000000000000600082015250565b6000614a65601583614203565b9150614a7082614a2f565b602082019050919050565b60006020820190508181036000830152614a9481614a58565b9050919050565b7f4e6f7420666f722073616c650000000000000000000000000000000000000000600082015250565b6000614ad1600c83614203565b9150614adc82614a9b565b602082019050919050565b60006020820190508181036000830152614b0081614ac4565b9050919050565b7f416464726573732063616e6e6f74206265207a65726f00000000000000000000600082015250565b6000614b3d601683614203565b9150614b4882614b07565b602082019050919050565b60006020820190508181036000830152614b6c81614b30565b9050919050565b7f4d656d62657220646f6573206e6f742065786973740000000000000000000000600082015250565b6000614ba9601583614203565b9150614bb482614b73565b602082019050919050565b60006020820190508181036000830152614bd881614b9c565b9050919050565b7f416c726561647920526567697374657265640000000000000000000000000000600082015250565b6000614c15601283614203565b9150614c2082614bdf565b602082019050919050565b60006020820190508181036000830152614c4481614c08565b9050919050565b7f416464726573732063616e6e6f74206265207a65726f20616464726573730000600082015250565b6000614c81601e83614203565b9150614c8c82614c4b565b602082019050919050565b60006020820190508181036000830152614cb081614c74565b905091905056fea2646970667358221220487a65e4005c8a90f8ecec0b9505f80f0a90d207ab25fff376a8a42d0100617164736f6c634300080e0033",
  "immutableReferences": {},
  "source": "// SPDX-License-Identifier: GPL-3.0\r\npragma solidity >=0.7.0 <0.9.0;\r\n\r\nimport '../Roles/Farmer.sol';\r\nimport '../Roles/Distributor.sol';\r\nimport '../Roles/Retailer.sol';\r\nimport '../Roles/Consumer.sol';\r\nimport '../consensus/verify_random.sol';\r\n\r\ncontract SupplyChain is Farmer, Distributor, Retailer, Consumer, verify_random{\r\n\r\n    mapping(address => uint) rep_score;\r\n\r\n    enum State{\r\n        Harvested,\r\n        Dried,   \r\n        Graded,\r\n        Packed,\r\n        For_Sale,\r\n        with_distributor,\r\n        with_retailer,\r\n        with_consumer\r\n    }\r\n\r\n    struct Product{\r\n        uint id;\r\n        uint safranal_content;\r\n        uint price;\r\n        address payable farmer;\r\n        address payable distributor;\r\n        address payable retailer;\r\n        address payable consumer;\r\n        address payable Current_owner;\r\n        State state;\r\n        string grade;\r\n    }\r\n\r\n    mapping (uint => Product) public product_list;\r\n    mapping (uint => bool) existing;\r\n\r\n\r\n    modifier harvested(uint _id){\r\n        require(product_list[_id].state == State.Harvested, \"Saffron is not harvested\");\r\n        _;\r\n    }\r\n    \r\n    modifier dried(uint _id){\r\n        require(product_list[_id].state == State.Dried, \"Saffron is not dried\");\r\n        _;\r\n    }\r\n    \r\n    modifier graded(uint _id){\r\n        require(product_list[_id].state == State.Graded, \"Saffron is not graded\");\r\n        _;\r\n    }\r\n\r\n    modifier packed(uint _id){\r\n        require(product_list[_id].state == State.Packed, \"Saffron is not packed\");\r\n        _;\r\n    }\r\n\r\n    modifier exist(uint _id){\r\n        require(existing[_id] == true, \"Product doesn't exist\");\r\n        _;\r\n    }\r\n\r\n    modifier confirm_farmer(uint _id){\r\n        require(product_list[_id].farmer == msg.sender, \"Not authorized\");\r\n        _;\r\n    }\r\n\r\n    modifier only_distributor(address _add)\r\n    {\r\n        require(isDistributor(_add), \"Not authorized\");\r\n        _;\r\n    }\r\n\r\n    modifier only_retailer(address _add)\r\n    {\r\n        require(isRetailer(_add), \"Not authorized\");\r\n        _;\r\n    }\r\n\r\n    modifier forSale(uint _id){\r\n        require(product_list[_id].state == State.For_Sale, \"Not for sale\");\r\n        _;\r\n    }\r\n    \r\n    modifier paid_enough(uint _price) {\r\n        require(msg.value >= _price, \"The amount is not sufficient to buy the product\");\r\n        _;\r\n    }\r\n\r\n    modifier withDistributor(uint _id)\r\n    {\r\n        require(product_list[_id].state == State.with_distributor, \"Not authorized\");\r\n        _;\r\n    }\r\n\r\n    modifier only_consumer(address _add)\r\n    {\r\n        require(isConsumer(_add), \"Not authorized\");\r\n        _;\r\n    }\r\n\r\n    modifier canBuy(uint _id)\r\n    {\r\n        require(can_buy(_id), \"Item is not FOR SALE\");\r\n        _;\r\n    }\r\n\r\n    function can_buy(uint _id) internal view returns(bool)\r\n    {\r\n        if(product_list[_id].state == State.Packed || product_list[_id].state == State.with_distributor || product_list[_id].state == State.with_retailer)\r\n        {\r\n            return true;\r\n        }\r\n\r\n        return false; \r\n    }\r\n\r\n    function add_product(uint _id, uint saf_content, string memory _grade,uint _price) public\r\n    {\r\n        harvest_product(_id, saf_content);\r\n        dry_product(_id);\r\n        grading(_id, _grade);\r\n        packing(_id);\r\n        for_sale(_id, _price);\r\n    }\r\n\r\n    function harvest_product(uint _id, uint saf_content) public  {\r\n        require(isFarmer(msg.sender), \"You are not authorized to perform this operation\");\r\n        Product memory product;\r\n        product.id = _id;\r\n        product.safranal_content = saf_content;\r\n        product.farmer = payable(msg.sender);\r\n        product.Current_owner = product.farmer;\r\n        product.distributor = payable(address(0));\r\n        product.retailer = product.distributor;\r\n        product.consumer = product.distributor;\r\n        product.state = State.Harvested;\r\n        product_list[_id] = product;\r\n        existing[_id] = true;\r\n    }\r\n\r\n    function dry_product(uint _id) exist(_id) harvested(_id) confirm_farmer(_id) public{\r\n        product_list[_id].state = State.Dried;\r\n    }\r\n\r\n    function grading(uint _id, string memory _grade) exist(_id) dried(_id) confirm_farmer(_id) public{\r\n        product_list[_id].grade = _grade;\r\n        product_list[_id].state = State.Graded; \r\n    }\r\n    \r\n    function packing(uint _id) exist(_id) graded(_id) confirm_farmer(_id) public{\r\n        product_list[_id].state = State.Packed;\r\n    }\r\n    \r\n    function for_sale(uint _id, uint _price) exist(_id) packed(_id) confirm_farmer(_id) public{\r\n        product_list[_id].state = State.For_Sale;\r\n        product_list[_id].price = _price;\r\n    }\r\n\r\n    function get_response_from_verifiers (uint _id, uint safranal_content) public returns (bool)\r\n    {\r\n        bool confirmation = verify_auto(_id, safranal_content);\r\n        if(confirmation == false)\r\n        {\r\n            if(rep_score[product_list[_id].Current_owner] > 0)\r\n                rep_score[product_list[_id].Current_owner] --;\r\n        }\r\n\r\n        else\r\n        {\r\n            rep_score[product_list[_id].Current_owner] ++;\r\n        }\r\n        flag = confirmation;\r\n        return confirmation;\r\n    }\r\n\r\n    function sell_to_distributor(uint _id, uint new_price) exist(_id) forSale(_id) only_distributor(msg.sender) paid_enough(product_list[_id].price) public payable{\r\n        address payable myAddress = product_list[_id].Current_owner;\r\n        product_list[_id].Current_owner = payable(msg.sender);\r\n        product_list[_id].distributor = payable(msg.sender);\r\n        product_list[_id].state = State.with_distributor;\r\n        myAddress.transfer(product_list[_id].price);\r\n        product_list[_id].price = new_price; \r\n    }\r\n\r\n    function sell_to_retailer(uint _id, uint new_price) exist(_id) paid_enough(product_list[_id].price) only_retailer(msg.sender) withDistributor(_id) public payable\r\n    {\r\n        address payable myAddress = product_list[_id].Current_owner;\r\n        product_list[_id].Current_owner = payable(msg.sender);\r\n        product_list[_id].retailer = payable(msg.sender);\r\n        product_list[_id].state = State.with_retailer;\r\n        myAddress.transfer(product_list[_id].price);\r\n        product_list[_id].price = new_price;\r\n    }\r\n\r\n    function sell_to_consumer(uint _id) exist(_id) paid_enough(product_list[_id].price)  only_consumer(msg.sender)  public payable\r\n    {\r\n        address payable myAddress = product_list[_id].Current_owner;\r\n        product_list[_id].Current_owner = payable(msg.sender);\r\n        product_list[_id].consumer = payable(msg.sender);\r\n        myAddress.transfer(product_list[_id].price);\r\n        product_list[_id].state = State.with_consumer;\r\n    }\r\n\r\n    function compareStrings(string memory a, string memory b) public pure returns (bool) {\r\n    return (keccak256(abi.encodePacked((a))) == keccak256(abi.encodePacked((b))));\r\n}\r\n\r\n    function verify_auto(uint _id, uint safranal_content) public returns(bool){\r\n        reset();\r\n        select_5_people();\r\n        for(uint i = 0; i < selected_5_verifiers.length; i++)\r\n        {\r\n            uint random_number = generate_random(100, 1);\r\n            if(random_number >= 20)\r\n            {\r\n                if(safranal_content >= 85 && compareStrings(product_list[_id].grade, 'A') == true)\r\n                {\r\n                    registered[selected_5_verifiers[i]].verdict = true;\r\n                }\r\n\r\n                else if(safranal_content >= 70 && compareStrings(product_list[_id].grade, 'B') == true)\r\n                {\r\n                    registered[selected_5_verifiers[i]].verdict = true;\r\n                }\r\n\r\n                else if(safranal_content >= 60 && compareStrings(product_list[_id].grade, 'C') == true)\r\n                {\r\n                    registered[selected_5_verifiers[i]].verdict = true;\r\n                }\r\n\r\n                else if(safranal_content >= 50 && compareStrings(product_list[_id].grade, 'D') == true)\r\n                {\r\n                    registered[selected_5_verifiers[i]].verdict = true;\r\n                }\r\n\r\n                else\r\n                {\r\n                    registered[selected_5_verifiers[i]].verdict = false;\r\n                } \r\n            }\r\n\r\n            else\r\n            {\r\n                if(safranal_content < 85 && compareStrings(product_list[_id].grade, 'A') == true)\r\n                {\r\n                    registered[selected_5_verifiers[i]].verdict = true;\r\n                }\r\n\r\n                else if(safranal_content < 70 && compareStrings(product_list[_id].grade, 'B') == true)\r\n                {\r\n                    registered[selected_5_verifiers[i]].verdict = true;\r\n                }\r\n\r\n                else if(safranal_content < 60 && compareStrings(product_list[_id].grade, 'C') == true)\r\n                {\r\n                    registered[selected_5_verifiers[i]].verdict = true;\r\n                }\r\n\r\n                else if(safranal_content < 50 && compareStrings(product_list[_id].grade, 'D') == true)\r\n                {\r\n                    registered[selected_5_verifiers[i]].verdict = true;\r\n                }\r\n\r\n                else\r\n                {\r\n                    registered[selected_5_verifiers[i]].verdict = false;\r\n                } \r\n            }\r\n        }\r\n        return update_score();\r\n    }\r\n\r\n    function get_rep_score(address _add) public view returns (uint)\r\n    {\r\n        return rep_score[_add];\r\n    }\r\n\r\n    function decrement_rep_score(address _add) public\r\n    {\r\n        rep_score[_add] --;\r\n    }\r\n\r\n    function increment_rep_score(address _add) public\r\n    {\r\n        rep_score[_add] ++;\r\n    }\r\n\r\n}",
  "sourcePath": "C:\\Users\\Mhaseeb\\Desktop\\SS_Project\\contracts\\SupplyChain\\SupplyChain.sol",
  "compiler": {
    "name": "solc",
    "version": "0.8.14+commit.80d49f37.Emscripten.clang"
  },
  "schemaVersion": "3.4.7",
  "updatedAt": "2022-06-26T02:18:35.943Z",
  "networkType": "ethereum",
  "devdoc": {
    "kind": "dev",
    "methods": {},
    "version": 1
  },
  "userdoc": {
    "kind": "user",
    "methods": {},
    "version": 1
  }
}