{
  "contractName": "verify_random",
  "abi": [
    {
      "inputs": [],
      "name": "random_num",
      "outputs": [
        {
          "internalType": "uint256",
          "name": "",
          "type": "uint256"
        }
      ],
      "stateMutability": "view",
      "type": "function"
    },
    {
      "inputs": [
        {
          "internalType": "uint256",
          "name": "",
          "type": "uint256"
        }
      ],
      "name": "registered",
      "outputs": [
        {
          "internalType": "uint256",
          "name": "id",
          "type": "uint256"
        },
        {
          "internalType": "uint256",
          "name": "rep_score",
          "type": "uint256"
        },
        {
          "internalType": "bool",
          "name": "verdict",
          "type": "bool"
        }
      ],
      "stateMutability": "view",
      "type": "function"
    },
    {
      "inputs": [],
      "name": "verify",
      "outputs": [
        {
          "internalType": "bool",
          "name": "",
          "type": "bool"
        }
      ],
      "stateMutability": "nonpayable",
      "type": "function"
    },
    {
      "inputs": [],
      "name": "reset",
      "outputs": [],
      "stateMutability": "nonpayable",
      "type": "function"
    },
    {
      "inputs": [],
      "name": "ver_register",
      "outputs": [],
      "stateMutability": "nonpayable",
      "type": "function"
    },
    {
      "inputs": [
        {
          "internalType": "uint256",
          "name": "num_max",
          "type": "uint256"
        },
        {
          "internalType": "uint256",
          "name": "num_min",
          "type": "uint256"
        }
      ],
      "name": "generate_random",
      "outputs": [
        {
          "internalType": "uint256",
          "name": "",
          "type": "uint256"
        }
      ],
      "stateMutability": "nonpayable",
      "type": "function"
    },
    {
      "inputs": [],
      "name": "clear_pred_arr",
      "outputs": [],
      "stateMutability": "nonpayable",
      "type": "function"
    },
    {
      "inputs": [],
      "name": "fill_pred_arr",
      "outputs": [
        {
          "internalType": "uint256",
          "name": "",
          "type": "uint256"
        }
      ],
      "stateMutability": "nonpayable",
      "type": "function"
    },
    {
      "inputs": [],
      "name": "select_5_people",
      "outputs": [],
      "stateMutability": "nonpayable",
      "type": "function"
    },
    {
      "inputs": [],
      "name": "choose_final_verdict",
      "outputs": [
        {
          "internalType": "bool",
          "name": "",
          "type": "bool"
        }
      ],
      "stateMutability": "view",
      "type": "function"
    },
    {
      "inputs": [],
      "name": "approve",
      "outputs": [],
      "stateMutability": "nonpayable",
      "type": "function"
    },
    {
      "inputs": [],
      "name": "reject",
      "outputs": [],
      "stateMutability": "nonpayable",
      "type": "function"
    },
    {
      "inputs": [],
      "name": "update_score",
      "outputs": [
        {
          "internalType": "bool",
          "name": "",
          "type": "bool"
        }
      ],
      "stateMutability": "nonpayable",
      "type": "function"
    }
  ],
  "bytecode": "0x608060405260008055600060065534801561001957600080fd5b5061103e806100296000396000f3fe608060405234801561001057600080fd5b50600436106100cf5760003560e01c8063793a88661161008c578063d826f88f11610066578063d826f88f14610190578063e6cf13461461019a578063edde8349146101cc578063fc735e99146101ea576100cf565b8063793a88661461014c5780638708835514610156578063c186589314610186576100cf565b806312424e3f146100d45780631fed106f146100de5780634dc415de146100fc57806356cebd06146101065780636ba1be561461011057806377f2d4721461012e575b600080fd5b6100dc610208565b005b6100e6610265565b6040516100f39190610b99565b60405180910390f35b61010461031b565b005b61010e610378565b005b6101186103c9565b6040516101259190610b99565b60405180910390f35b6101366104e7565b6040516101439190610bcd565b60405180910390f35b61015461068f565b005b610170600480360381019061016b9190610c19565b6108d2565b60405161017d9190610bcd565b60405180910390f35b61018e61097d565b005b6101986109ed565b005b6101b460048036038101906101af9190610c59565b610aff565b6040516101c393929190610c86565b60405180910390f35b6101d4610b36565b6040516101e19190610bcd565b60405180910390f35b6101f2610b3c565b6040516101ff9190610b99565b60405180910390f35b6001600960003373ffffffffffffffffffffffffffffffffffffffff1673ffffffffffffffffffffffffffffffffffffffff16815260200190815260200160002060020160006101000a81548160ff021916908315150217905550565b60006005600480549050101561027a57600080fd5b60008060005b60048054905081101561030f576001151560086000600484815481106102a9576102a8610cbd565b5b9060005260206000200154815260200190815260200160002060020160009054906101000a900460ff161515036102ed5782806102e590610d1b565b9350506102fc565b81806102f890610d1b565b9250505b808061030790610d1b565b915050610280565b50808210159250505090565b6000600960003373ffffffffffffffffffffffffffffffffffffffff1673ffffffffffffffffffffffffffffffffffffffff16815260200190815260200160002060020160006101000a81548160ff021916908315150217905550565b600060038054905090505b600081146103c657600380548061039d5761039c610d63565b5b6001900381819060005260206000200160009055905580806103be90610d92565b915050610383565b50565b6000806103d4610265565b905060005b6004805490508110156104df5760086000600483815481106103fe576103fd610cbd565b5b9060005260206000200154815260200190815260200160002060020160009054906101000a900460ff1615158215150361048157600860006004838154811061044a57610449610cbd565b5b90600052602060002001548152602001908152602001600020600101600081548092919061047790610d1b565b91905055506104cc565b600860006004838154811061049957610498610cbd565b5b9060005260206000200154815260200190815260200160002060010160008154809291906104c690610d92565b91905055505b80806104d790610d1b565b9150506103d9565b508091505090565b60008060005b6002805490508110156105fe5760011515600560006002848154811061051657610515610cbd565b5b906000526020600020906003020160000154815260200190815260200160002060009054906101000a900460ff161515036105e5576002818154811061055f5761055e610cbd565b5b906000526020600020906003020160010154915060005b828110156105df5760036002838154811061059457610593610cbd565b5b906000526020600020906003020160000154908060018154018082558091505060019003906000526020600020016000909190919091505580806105d790610d1b565b915050610576565b506105ea565b6105eb565b5b80806105f690610d1b565b9150506104ed565b50600061061d60016003805490506106169190610dbb565b60006108d2565b90506000600560006003848154811061063957610638610cbd565b5b9060005260206000200154815260200190815260200160002060006101000a81548160ff0219169083151502179055506003818154811061067d5761067c610cbd565b5b90600052602060002001549250505090565b60001515600760003373ffffffffffffffffffffffffffffffffffffffff1673ffffffffffffffffffffffffffffffffffffffff16815260200190815260200160002060009054906101000a900460ff161515146106ec57600080fd5b6001600760003373ffffffffffffffffffffffffffffffffffffffff1673ffffffffffffffffffffffffffffffffffffffff16815260200190815260200160002060006101000a81548160ff02191690831515021790555061074c610b5b565b6006600081548092919061075f90610d1b565b919050558160000181815250506001816020018181525050806008600083600001518152602001908152602001600020600082015181600001556020820151816001015560408201518160020160006101000a81548160ff0219169083151502179055509050506001600560008360000151815260200190815260200160002060006101000a81548160ff0219169083151502179055506002819080600181540180825580915050600190039060005260206000209060030201600090919091909150600082015181600001556020820151816001015560408201518160020160006101000a81548160ff021916908315150217905550505080600960003373ffffffffffffffffffffffffffffffffffffffff1673ffffffffffffffffffffffffffffffffffffffff168152602001908152602001600020600082015181600001556020820151816001015560408201518160020160006101000a81548160ff02191690831515021790555090505050565b60008060008154809291906108e690610d1b565b91905055506064423360005460405160200161090493929190610e8a565b6040516020818303038152906040528051906020012060001c6109279190610ef6565b600181905550600060649050600083856109419190610dbb565b905083828260006001546109559190610dbb565b61095f9190610f27565b6109699190610f81565b6109739190610fb2565b9250505092915050565b6005600280549050101561099057600080fd5b6000600590505b600081146109ea5760046109a96104e7565b908060018154018082558091505060019003906000526020600020016000909190919091505580806109da90610d92565b9150506109e5610378565b610997565b50565b60005b600280549050811015610a615760016005600060028481548110610a1757610a16610cbd565b5b906000526020600020906003020160000154815260200190815260200160002060006101000a81548160ff0219169083151502179055508080610a5990610d1b565b9150506109f0565b50600060038054905090505b60008114610ab0576003805480610a8757610a86610d63565b5b600190038181906000526020600020016000905590558080610aa890610d92565b915050610a6d565b60048054905090505b60008114610afc576004805480610ad357610ad2610d63565b5b600190038181906000526020600020016000905590558080610af490610d92565b915050610ab9565b50565b60086020528060005260406000206000915090508060000154908060010154908060020160009054906101000a900460ff16905083565b60015481565b6000610b466109ed565b610b4e61097d565b610b566103c9565b905090565b604051806060016040528060008152602001600081526020016000151581525090565b60008115159050919050565b610b9381610b7e565b82525050565b6000602082019050610bae6000830184610b8a565b92915050565b6000819050919050565b610bc781610bb4565b82525050565b6000602082019050610be26000830184610bbe565b92915050565b600080fd5b610bf681610bb4565b8114610c0157600080fd5b50565b600081359050610c1381610bed565b92915050565b60008060408385031215610c3057610c2f610be8565b5b6000610c3e85828601610c04565b9250506020610c4f85828601610c04565b9150509250929050565b600060208284031215610c6f57610c6e610be8565b5b6000610c7d84828501610c04565b91505092915050565b6000606082019050610c9b6000830186610bbe565b610ca86020830185610bbe565b610cb56040830184610b8a565b949350505050565b7f4e487b7100000000000000000000000000000000000000000000000000000000600052603260045260246000fd5b7f4e487b7100000000000000000000000000000000000000000000000000000000600052601160045260246000fd5b6000610d2682610bb4565b91507fffffffffffffffffffffffffffffffffffffffffffffffffffffffffffffffff8203610d5857610d57610cec565b5b600182019050919050565b7f4e487b7100000000000000000000000000000000000000000000000000000000600052603160045260246000fd5b6000610d9d82610bb4565b915060008203610db057610daf610cec565b5b600182039050919050565b6000610dc682610bb4565b9150610dd183610bb4565b925082821015610de457610de3610cec565b5b828203905092915050565b6000819050919050565b610e0a610e0582610bb4565b610def565b82525050565b600073ffffffffffffffffffffffffffffffffffffffff82169050919050565b6000610e3b82610e10565b9050919050565b60008160601b9050919050565b6000610e5a82610e42565b9050919050565b6000610e6c82610e4f565b9050919050565b610e84610e7f82610e30565b610e61565b82525050565b6000610e968286610df9565b602082019150610ea68285610e73565b601482019150610eb68284610df9565b602082019150819050949350505050565b7f4e487b7100000000000000000000000000000000000000000000000000000000600052601260045260246000fd5b6000610f0182610bb4565b9150610f0c83610bb4565b925082610f1c57610f1b610ec7565b5b828206905092915050565b6000610f3282610bb4565b9150610f3d83610bb4565b9250817fffffffffffffffffffffffffffffffffffffffffffffffffffffffffffffffff0483118215151615610f7657610f75610cec565b5b828202905092915050565b6000610f8c82610bb4565b9150610f9783610bb4565b925082610fa757610fa6610ec7565b5b828204905092915050565b6000610fbd82610bb4565b9150610fc883610bb4565b9250827fffffffffffffffffffffffffffffffffffffffffffffffffffffffffffffffff03821115610ffd57610ffc610cec565b5b82820190509291505056fea26469706673582212208b103fb44d81096467c677acec819903f5ce592b16a9457fa64601250d098fc164736f6c634300080e0033",
  "immutableReferences": {},
  "source": "// SPDX-License-Identifier: GPL-3.0\r\npragma solidity >= 0.6.0;\r\npragma experimental ABIEncoderV2;\r\n\r\ncontract verify_random\r\n{\r\n    \r\n    uint random_temp = 0;\r\n    uint public random_num;\r\n    struct person{\r\n        uint id;\r\n        uint rep_score;\r\n        bool verdict;\r\n    }\r\n\r\n    person [] private v_members;\r\n    uint [] pred_arr;\r\n    uint [] selected_5_verifiers;\r\n    mapping(uint => bool) Hsh;\r\n    uint global_id = 0;\r\n\r\n    mapping (address => bool) private verifiers;\r\n    mapping (uint => person) public registered;\r\n    mapping (address => person) private add_to_person;\r\n\r\n    \r\n    function verify() public returns(bool){\r\n        reset();\r\n        select_5_people();\r\n        // send notification to 5 verifiers and update the verdict of the particular person.\r\n        return update_score();\r\n    }\r\n\r\n    function reset() public\r\n    {\r\n        for(uint i=0;i<v_members.length;i++)\r\n        {\r\n            Hsh[v_members[i].id] = true; \r\n        }\r\n        uint len = pred_arr.length;\r\n        while(len != 0)\r\n        {\r\n            pred_arr.pop();\r\n            len--;\r\n        }\r\n        len = selected_5_verifiers.length;\r\n        while(len != 0)\r\n        {\r\n            selected_5_verifiers.pop();\r\n            len--;\r\n        }\r\n    }\r\n\r\n    function ver_register() public \r\n    {\r\n        require(verifiers[msg.sender] == false);\r\n        verifiers[msg.sender] = true;\r\n        person memory p;\r\n        p.id = global_id ++;\r\n        p.rep_score = 1;\r\n        registered[p.id] = p;\r\n        Hsh[p.id] = true;\r\n        v_members.push(p);\r\n        add_to_person[msg.sender] = p;\r\n    }\r\n\r\n    function generate_random(uint num_max, uint num_min) public returns (uint)\r\n    {\r\n        random_temp++;\r\n        random_num =  uint(keccak256(abi.encodePacked(block.timestamp,msg.sender,random_temp))) % 100;\r\n        uint old_range = 100;  \r\n        uint new_range = num_max - num_min;\r\n        return (((random_num - 0) * new_range) / old_range) + num_min;\r\n    }\r\n    function clear_pred_arr() public \r\n    {\r\n        uint len = pred_arr.length;\r\n        while(len != 0)\r\n        {\r\n            pred_arr.pop();\r\n            len--;\r\n        }\r\n    }\r\n    function fill_pred_arr () public returns(uint)\r\n    {\r\n        uint track;\r\n        for(uint i = 0; i < v_members.length; i++)\r\n        {\r\n            if(Hsh[v_members[i].id] == true)\r\n            {\r\n                track = v_members[i].rep_score;\r\n                for(uint j = 0; j < track ; j++)\r\n                {\r\n                    pred_arr.push(v_members[i].id);\r\n                }\r\n            }\r\n            else\r\n            {\r\n                continue;\r\n            }\r\n        }\r\n        uint ran = generate_random(pred_arr.length-1, 0);\r\n        Hsh[pred_arr[ran]] = false;\r\n        return pred_arr[ran];\r\n    }\r\n    \r\n    function select_5_people() public\r\n    {\r\n        require(v_members.length >= 5);\r\n        uint T = 5;\r\n        while(T != 0)\r\n        {\r\n            selected_5_verifiers.push(fill_pred_arr());\r\n            T--;\r\n            clear_pred_arr();\r\n        }\r\n    }\r\n\r\n    function choose_final_verdict() public view returns(bool)\r\n    {\r\n        require(selected_5_verifiers.length >= 5);\r\n        uint yes;\r\n        uint no;\r\n\r\n        for(uint i = 0; i < selected_5_verifiers.length; i++)\r\n        {\r\n            if(registered[selected_5_verifiers[i]].verdict == true)\r\n            {\r\n                yes ++;\r\n            }\r\n\r\n            else\r\n            {\r\n                no ++;\r\n            }\r\n        }\r\n\r\n        return yes >= no;\r\n    }\r\n\r\n    function approve() public\r\n    {\r\n        add_to_person[msg.sender].verdict = true;\r\n    }\r\n\r\n    function reject() public\r\n    {\r\n        add_to_person[msg.sender].verdict = false;\r\n    } \r\n\r\n    function update_score() public returns(bool)\r\n    {\r\n        bool review = choose_final_verdict();\r\n        for(uint i = 0; i < selected_5_verifiers.length; i ++)\r\n        {\r\n            if(review == registered[selected_5_verifiers[i]].verdict)\r\n            {\r\n                registered[selected_5_verifiers[i]].rep_score ++;\r\n            }\r\n\r\n            else\r\n            {\r\n                registered[selected_5_verifiers[i]].rep_score --;\r\n            }\r\n        }\r\n        return review;\r\n    }  \r\n}",
  "sourcePath": "F:/project/SS_Project (2)/SS_Project/contracts/consensus/verify_random.sol",
  "compiler": {
    "name": "solc",
    "version": "0.8.14+commit.80d49f37.Emscripten.clang"
  },
  "schemaVersion": "3.3.4",
  "updatedAt": "2022-06-05T14:49:54.804Z",
  "devdoc": {
    "kind": "dev",
    "methods": {},
    "version": 1
  },
  "userdoc": {
    "kind": "user",
    "methods": {},
    "version": 1
  }
}