{
  "contractName": "verify_random",
  "abi": [
    {
      "inputs": [],
      "name": "random_num",
      "outputs": [
        {
          "internalType": "uint256",
          "name": "",
          "type": "uint256"
        }
      ],
      "stateMutability": "view",
      "type": "function"
    },
    {
      "inputs": [],
      "name": "verify_auto",
      "outputs": [
        {
          "internalType": "bool",
          "name": "",
          "type": "bool"
        }
      ],
      "stateMutability": "nonpayable",
      "type": "function"
    },
    {
      "inputs": [],
      "name": "reset",
      "outputs": [],
      "stateMutability": "nonpayable",
      "type": "function"
    },
    {
      "inputs": [],
      "name": "ver_register",
      "outputs": [],
      "stateMutability": "nonpayable",
      "type": "function"
    },
    {
      "inputs": [
        {
          "internalType": "uint256",
          "name": "num_max",
          "type": "uint256"
        },
        {
          "internalType": "uint256",
          "name": "num_min",
          "type": "uint256"
        }
      ],
      "name": "generate_random",
      "outputs": [
        {
          "internalType": "uint256",
          "name": "",
          "type": "uint256"
        }
      ],
      "stateMutability": "nonpayable",
      "type": "function"
    }
  ],
  "bytecode": "0x608060405260008055600060065534801561001957600080fd5b50610e9a806100296000396000f3fe608060405234801561001057600080fd5b50600436106100575760003560e01c8063793a88661461005c5780638708835514610066578063a1c93ca814610096578063d826f88f146100b4578063edde8349146100be575b600080fd5b6100646100dc565b005b610080600480360381019061007b9190610a79565b61031f565b60405161008d9190610ac8565b60405180910390f35b61009e6103ca565b6040516100ab9190610afe565b60405180910390f35b6100bc6104c6565b005b6100c66105d8565b6040516100d39190610ac8565b60405180910390f35b60001515600760003373ffffffffffffffffffffffffffffffffffffffff1673ffffffffffffffffffffffffffffffffffffffff16815260200190815260200160002060009054906101000a900460ff1615151461013957600080fd5b6001600760003373ffffffffffffffffffffffffffffffffffffffff1673ffffffffffffffffffffffffffffffffffffffff16815260200190815260200160002060006101000a81548160ff021916908315150217905550610199610a1b565b600660008154809291906101ac90610b48565b919050558160000181815250506001816020018181525050806008600083600001518152602001908152602001600020600082015181600001556020820151816001015560408201518160020160006101000a81548160ff0219169083151502179055509050506001600560008360000151815260200190815260200160002060006101000a81548160ff0219169083151502179055506002819080600181540180825580915050600190039060005260206000209060030201600090919091909150600082015181600001556020820151816001015560408201518160020160006101000a81548160ff021916908315150217905550505080600960003373ffffffffffffffffffffffffffffffffffffffff1673ffffffffffffffffffffffffffffffffffffffff168152602001908152602001600020600082015181600001556020820151816001015560408201518160020160006101000a81548160ff02191690831515021790555090505050565b600080600081548092919061033390610b48565b91905055506064423360005460405160200161035193929190610c2b565b6040516020818303038152906040528051906020012060001c6103749190610c97565b6001819055506000606490506000838561038e9190610cc8565b905083828260006001546103a29190610cc8565b6103ac9190610cfc565b6103b69190610d56565b6103c09190610d87565b9250505092915050565b60006103d46104c6565b6103dc6105de565b60005b6004805490508110156104b85760006103fa6064600161031f565b9050601e8110610456576001600860006004858154811061041e5761041d610ddd565b5b9060005260206000200154815260200190815260200160002060020160006101000a81548160ff0219169083151502179055506104a4565b600060086000600485815481106104705761046f610ddd565b5b9060005260206000200154815260200190815260200160002060020160006101000a81548160ff0219169083151502179055505b5080806104b090610b48565b9150506103df565b506104c161064e565b905090565b60005b60028054905081101561053a57600160056000600284815481106104f0576104ef610ddd565b5b906000526020600020906003020160000154815260200190815260200160002060006101000a81548160ff021916908315150217905550808061053290610b48565b9150506104c9565b50600060038054905090505b600081146105895760038054806105605761055f610e0c565b5b60019003818190600052602060002001600090559055808061058190610e3b565b915050610546565b60048054905090505b600081146105d55760048054806105ac576105ab610e0c565b5b6001900381819060005260206000200160009055905580806105cd90610e3b565b915050610592565b50565b60015481565b600560028054905010156105f157600080fd5b6000600590505b6000811461064b57600461060a61076c565b9080600181540180825580915050600190039060005260206000200160009091909190915055808061063b90610e3b565b915050610646610914565b6105f8565b50565b600080610659610965565b905060005b60048054905081101561076457600860006004838154811061068357610682610ddd565b5b9060005260206000200154815260200190815260200160002060020160009054906101000a900460ff161515821515036107065760086000600483815481106106cf576106ce610ddd565b5b9060005260206000200154815260200190815260200160002060010160008154809291906106fc90610b48565b9190505550610751565b600860006004838154811061071e5761071d610ddd565b5b90600052602060002001548152602001908152602001600020600101600081548092919061074b90610e3b565b91905055505b808061075c90610b48565b91505061065e565b508091505090565b60008060005b6002805490508110156108835760011515600560006002848154811061079b5761079a610ddd565b5b906000526020600020906003020160000154815260200190815260200160002060009054906101000a900460ff1615150361086a57600281815481106107e4576107e3610ddd565b5b906000526020600020906003020160010154915060005b828110156108645760036002838154811061081957610818610ddd565b5b9060005260206000209060030201600001549080600181540180825580915050600190039060005260206000200160009091909190915055808061085c90610b48565b9150506107fb565b5061086f565b610870565b5b808061087b90610b48565b915050610772565b5060006108a2600160038054905061089b9190610cc8565b600061031f565b9050600060056000600384815481106108be576108bd610ddd565b5b9060005260206000200154815260200190815260200160002060006101000a81548160ff0219169083151502179055506003818154811061090257610901610ddd565b5b90600052602060002001549250505090565b600060038054905090505b6000811461096257600380548061093957610938610e0c565b5b60019003818190600052602060002001600090559055808061095a90610e3b565b91505061091f565b50565b60006005600480549050101561097a57600080fd5b60008060005b600480549050811015610a0f576001151560086000600484815481106109a9576109a8610ddd565b5b9060005260206000200154815260200190815260200160002060020160009054906101000a900460ff161515036109ed5782806109e590610b48565b9350506109fc565b81806109f890610b48565b9250505b8080610a0790610b48565b915050610980565b50808210159250505090565b604051806060016040528060008152602001600081526020016000151581525090565b600080fd5b6000819050919050565b610a5681610a43565b8114610a6157600080fd5b50565b600081359050610a7381610a4d565b92915050565b60008060408385031215610a9057610a8f610a3e565b5b6000610a9e85828601610a64565b9250506020610aaf85828601610a64565b9150509250929050565b610ac281610a43565b82525050565b6000602082019050610add6000830184610ab9565b92915050565b60008115159050919050565b610af881610ae3565b82525050565b6000602082019050610b136000830184610aef565b92915050565b7f4e487b7100000000000000000000000000000000000000000000000000000000600052601160045260246000fd5b6000610b5382610a43565b91507fffffffffffffffffffffffffffffffffffffffffffffffffffffffffffffffff8203610b8557610b84610b19565b5b600182019050919050565b6000819050919050565b610bab610ba682610a43565b610b90565b82525050565b600073ffffffffffffffffffffffffffffffffffffffff82169050919050565b6000610bdc82610bb1565b9050919050565b60008160601b9050919050565b6000610bfb82610be3565b9050919050565b6000610c0d82610bf0565b9050919050565b610c25610c2082610bd1565b610c02565b82525050565b6000610c378286610b9a565b602082019150610c478285610c14565b601482019150610c578284610b9a565b602082019150819050949350505050565b7f4e487b7100000000000000000000000000000000000000000000000000000000600052601260045260246000fd5b6000610ca282610a43565b9150610cad83610a43565b925082610cbd57610cbc610c68565b5b828206905092915050565b6000610cd382610a43565b9150610cde83610a43565b925082821015610cf157610cf0610b19565b5b828203905092915050565b6000610d0782610a43565b9150610d1283610a43565b9250817fffffffffffffffffffffffffffffffffffffffffffffffffffffffffffffffff0483118215151615610d4b57610d4a610b19565b5b828202905092915050565b6000610d6182610a43565b9150610d6c83610a43565b925082610d7c57610d7b610c68565b5b828204905092915050565b6000610d9282610a43565b9150610d9d83610a43565b9250827fffffffffffffffffffffffffffffffffffffffffffffffffffffffffffffffff03821115610dd257610dd1610b19565b5b828201905092915050565b7f4e487b7100000000000000000000000000000000000000000000000000000000600052603260045260246000fd5b7f4e487b7100000000000000000000000000000000000000000000000000000000600052603160045260246000fd5b6000610e4682610a43565b915060008203610e5957610e58610b19565b5b60018203905091905056fea2646970667358221220a54733ff85e780bdefd5cd83525d47b7d7a34c032a768f6562280c378dde8f9164736f6c634300080e0033",
  "immutableReferences": {},
  "source": "// SPDX-License-Identifier: GPL-3.0\r\npragma solidity >= 0.6.0;\r\n\r\ncontract verify_random\r\n{\r\n    uint random_temp = 0;\r\n    uint public random_num;\r\n    struct person{\r\n        uint id;\r\n        uint rep_score;\r\n        bool verdict;\r\n    }\r\n\r\n    person [] private v_members;\r\n    uint [] pred_arr;\r\n    uint [] selected_5_verifiers;\r\n    mapping(uint => bool) Hsh;\r\n    uint global_id = 0;\r\n\r\n    mapping (address => bool) private verifiers;\r\n    mapping (uint => person) private registered;\r\n    mapping (address => person) private add_to_person;\r\n\r\n    function verify_auto() public returns(bool){\r\n        reset();\r\n        select_5_people();\r\n        for(uint i = 0; i < selected_5_verifiers.length; i++)\r\n        {\r\n            uint random_number = generate_random(100, 1);\r\n            if(random_number >= 30)\r\n            {\r\n                registered[selected_5_verifiers[i]].verdict = true; \r\n            }\r\n\r\n            else\r\n            {\r\n                registered[selected_5_verifiers[i]].verdict = false; \r\n            }\r\n        }\r\n        return update_score();\r\n    }\r\n\r\n    function verify() internal returns(bool){\r\n        reset();\r\n        select_5_people();\r\n        // send notification to 5 verifiers and update the verdict of the particular person.\r\n        return update_score();\r\n    }\r\n\r\n    function reset() public\r\n    {\r\n        for(uint i=0;i<v_members.length;i++)\r\n        {\r\n            Hsh[v_members[i].id] = true; \r\n        }\r\n        uint len = pred_arr.length;\r\n        while(len != 0)\r\n        {\r\n            pred_arr.pop();\r\n            len--;\r\n        }\r\n        len = selected_5_verifiers.length;\r\n        while(len != 0)\r\n        {\r\n            selected_5_verifiers.pop();\r\n            len--;\r\n        }\r\n    }\r\n\r\n    function ver_register() public \r\n    {\r\n        require(verifiers[msg.sender] == false);\r\n        verifiers[msg.sender] = true;\r\n        person memory p;\r\n        p.id = global_id ++;\r\n        p.rep_score = 1;\r\n        registered[p.id] = p;\r\n        Hsh[p.id] = true;\r\n        v_members.push(p);\r\n        add_to_person[msg.sender] = p;\r\n    }\r\n\r\n    function generate_random(uint num_max, uint num_min) public returns (uint)\r\n    {\r\n        random_temp++;\r\n        random_num =  uint(keccak256(abi.encodePacked(block.timestamp,msg.sender,random_temp))) % 100;\r\n        uint old_range = 100;  \r\n        uint new_range = num_max - num_min;\r\n        return (((random_num - 0) * new_range) / old_range) + num_min;\r\n    }\r\n    function clear_pred_arr() internal \r\n    {\r\n        uint len = pred_arr.length;\r\n        while(len != 0)\r\n        {\r\n            pred_arr.pop();\r\n            len--;\r\n        }\r\n    }\r\n    function fill_pred_arr () internal returns(uint)\r\n    {\r\n        uint track;\r\n        for(uint i = 0; i < v_members.length; i++)\r\n        {\r\n            if(Hsh[v_members[i].id] == true)\r\n            {\r\n                track = v_members[i].rep_score;\r\n                for(uint j = 0; j < track ; j++)\r\n                {\r\n                    pred_arr.push(v_members[i].id);\r\n                }\r\n            }\r\n            else\r\n            {\r\n                continue;\r\n            }\r\n        }\r\n        uint ran = generate_random(pred_arr.length-1, 0);\r\n        Hsh[pred_arr[ran]] = false;\r\n        return pred_arr[ran];\r\n    }\r\n    \r\n    function select_5_people() internal\r\n    {\r\n        require(v_members.length >= 5);\r\n        uint T = 5;\r\n        while(T != 0)\r\n        {\r\n            selected_5_verifiers.push(fill_pred_arr());\r\n            T--;\r\n            clear_pred_arr();\r\n        }\r\n    }\r\n\r\n    function choose_final_verdict() internal view returns(bool)\r\n    {\r\n        require(selected_5_verifiers.length >= 5);\r\n        uint yes;\r\n        uint no;\r\n\r\n        for(uint i = 0; i < selected_5_verifiers.length; i++)\r\n        {\r\n            if(registered[selected_5_verifiers[i]].verdict == true)\r\n            {\r\n                yes ++;\r\n            }\r\n\r\n            else\r\n            {\r\n                no ++;\r\n            }\r\n        }\r\n\r\n        return yes >= no;\r\n    }\r\n\r\n    function approve() internal\r\n    {\r\n        add_to_person[msg.sender].verdict = true;\r\n    }\r\n\r\n    function reject() internal\r\n    {\r\n        add_to_person[msg.sender].verdict = false;\r\n    } \r\n\r\n    function update_score() internal returns(bool)\r\n    {\r\n        bool review = choose_final_verdict();\r\n        for(uint i = 0; i < selected_5_verifiers.length; i ++)\r\n        {\r\n            if(review == registered[selected_5_verifiers[i]].verdict)\r\n            {\r\n                registered[selected_5_verifiers[i]].rep_score ++;\r\n            }\r\n\r\n            else\r\n            {\r\n                registered[selected_5_verifiers[i]].rep_score --;\r\n            }\r\n        }\r\n        return review;\r\n    }  \r\n}",
  "sourcePath": "C:\\Users\\Mhaseeb\\Desktop\\Acha_Name\\contracts\\consensus\\verify_random.sol",
  "compiler": {
    "name": "solc",
    "version": "0.8.14+commit.80d49f37.Emscripten.clang"
  },
  "schemaVersion": "3.4.7",
  "updatedAt": "2022-05-23T11:48:00.097Z",
  "devdoc": {
    "kind": "dev",
    "methods": {},
    "version": 1
  },
  "userdoc": {
    "kind": "user",
    "methods": {},
    "version": 1
  }
}