{
  "contractName": "verify_random",
  "abi": [
    {
      "inputs": [],
      "name": "flag",
      "outputs": [
        {
          "internalType": "bool",
          "name": "",
          "type": "bool"
        }
      ],
      "stateMutability": "view",
      "type": "function"
    },
    {
      "inputs": [],
      "name": "random_num",
      "outputs": [
        {
          "internalType": "uint256",
          "name": "",
          "type": "uint256"
        }
      ],
      "stateMutability": "view",
      "type": "function"
    },
    {
      "inputs": [
        {
          "internalType": "uint256",
          "name": "",
          "type": "uint256"
        }
      ],
      "name": "registered",
      "outputs": [
        {
          "internalType": "uint256",
          "name": "id",
          "type": "uint256"
        },
        {
          "internalType": "uint256",
          "name": "rep_score",
          "type": "uint256"
        },
        {
          "internalType": "bool",
          "name": "verdict",
          "type": "bool"
        }
      ],
      "stateMutability": "view",
      "type": "function"
    },
    {
      "inputs": [],
      "name": "verify",
      "outputs": [
        {
          "internalType": "bool",
          "name": "",
          "type": "bool"
        }
      ],
      "stateMutability": "nonpayable",
      "type": "function"
    },
    {
      "inputs": [],
      "name": "reset",
      "outputs": [],
      "stateMutability": "nonpayable",
      "type": "function"
    },
    {
      "inputs": [],
      "name": "ver_register",
      "outputs": [],
      "stateMutability": "nonpayable",
      "type": "function"
    },
    {
      "inputs": [
        {
          "internalType": "uint256",
          "name": "num_max",
          "type": "uint256"
        },
        {
          "internalType": "uint256",
          "name": "num_min",
          "type": "uint256"
        }
      ],
      "name": "generate_random",
      "outputs": [
        {
          "internalType": "uint256",
          "name": "",
          "type": "uint256"
        }
      ],
      "stateMutability": "nonpayable",
      "type": "function"
    },
    {
      "inputs": [],
      "name": "clear_pred_arr",
      "outputs": [],
      "stateMutability": "nonpayable",
      "type": "function"
    },
    {
      "inputs": [],
      "name": "fill_pred_arr",
      "outputs": [
        {
          "internalType": "uint256",
          "name": "",
          "type": "uint256"
        }
      ],
      "stateMutability": "nonpayable",
      "type": "function"
    },
    {
      "inputs": [],
      "name": "select_5_people",
      "outputs": [],
      "stateMutability": "nonpayable",
      "type": "function"
    },
    {
      "inputs": [],
      "name": "choose_final_verdict",
      "outputs": [
        {
          "internalType": "bool",
          "name": "",
          "type": "bool"
        }
      ],
      "stateMutability": "view",
      "type": "function"
    },
    {
      "inputs": [],
      "name": "approve",
      "outputs": [],
      "stateMutability": "nonpayable",
      "type": "function"
    },
    {
      "inputs": [],
      "name": "reject",
      "outputs": [],
      "stateMutability": "nonpayable",
      "type": "function"
    },
    {
      "inputs": [],
      "name": "update_score",
      "outputs": [
        {
          "internalType": "bool",
          "name": "",
          "type": "bool"
        }
      ],
      "stateMutability": "nonpayable",
      "type": "function"
    }
  ],
  "bytecode": "0x6080604052600080556000600260006101000a81548160ff021916908315150217905550600060075534801561003457600080fd5b50611089806100446000396000f3fe608060405234801561001057600080fd5b50600436106100ea5760003560e01c8063870883551161008c578063d826f88f11610066578063d826f88f146101c9578063e6cf1346146101d3578063edde834914610205578063fc735e9914610223576100ea565b80638708835514610171578063890eba68146101a1578063c1865893146101bf576100ea565b806356cebd06116100c857806356cebd06146101215780636ba1be561461012b57806377f2d47214610149578063793a886614610167576100ea565b806312424e3f146100ef5780631fed106f146100f95780634dc415de14610117575b600080fd5b6100f7610241565b005b61010161029e565b60405161010e9190610be4565b60405180910390f35b61011f610353565b005b6101296103b0565b005b610133610401565b6040516101409190610be4565b60405180910390f35b61015161051f565b60405161015e9190610c18565b60405180910390f35b61016f6106c7565b005b61018b60048036038101906101869190610c64565b61090a565b6040516101989190610c18565b60405180910390f35b6101a96109b5565b6040516101b69190610be4565b60405180910390f35b6101c76109c8565b005b6101d1610a38565b005b6101ed60048036038101906101e89190610ca4565b610b4a565b6040516101fc93929190610cd1565b60405180910390f35b61020d610b81565b60405161021a9190610c18565b60405180910390f35b61022b610b87565b6040516102389190610be4565b60405180910390f35b6001600a60003373ffffffffffffffffffffffffffffffffffffffff1673ffffffffffffffffffffffffffffffffffffffff16815260200190815260200160002060020160006101000a81548160ff021916908315150217905550565b60006005808054905010156102b257600080fd5b60008060005b600580549050811015610347576001151560096000600584815481106102e1576102e0610d08565b5b9060005260206000200154815260200190815260200160002060020160009054906101000a900460ff1615150361032557828061031d90610d66565b935050610334565b818061033090610d66565b9250505b808061033f90610d66565b9150506102b8565b50808210159250505090565b6000600a60003373ffffffffffffffffffffffffffffffffffffffff1673ffffffffffffffffffffffffffffffffffffffff16815260200190815260200160002060020160006101000a81548160ff021916908315150217905550565b600060048054905090505b600081146103fe5760048054806103d5576103d4610dae565b5b6001900381819060005260206000200160009055905580806103f690610ddd565b9150506103bb565b50565b60008061040c61029e565b905060005b60058054905081101561051757600960006005838154811061043657610435610d08565b5b9060005260206000200154815260200190815260200160002060020160009054906101000a900460ff161515821515036104b957600960006005838154811061048257610481610d08565b5b9060005260206000200154815260200190815260200160002060010160008154809291906104af90610d66565b9190505550610504565b60096000600583815481106104d1576104d0610d08565b5b9060005260206000200154815260200190815260200160002060010160008154809291906104fe90610ddd565b91905055505b808061050f90610d66565b915050610411565b508091505090565b60008060005b6003805490508110156106365760011515600660006003848154811061054e5761054d610d08565b5b906000526020600020906003020160000154815260200190815260200160002060009054906101000a900460ff1615150361061d576003818154811061059757610596610d08565b5b906000526020600020906003020160010154915060005b82811015610617576004600383815481106105cc576105cb610d08565b5b9060005260206000209060030201600001549080600181540180825580915050600190039060005260206000200160009091909190915055808061060f90610d66565b9150506105ae565b50610622565b610623565b5b808061062e90610d66565b915050610525565b506000610655600160048054905061064e9190610e06565b600061090a565b90506000600660006004848154811061067157610670610d08565b5b9060005260206000200154815260200190815260200160002060006101000a81548160ff021916908315150217905550600481815481106106b5576106b4610d08565b5b90600052602060002001549250505090565b60001515600860003373ffffffffffffffffffffffffffffffffffffffff1673ffffffffffffffffffffffffffffffffffffffff16815260200190815260200160002060009054906101000a900460ff1615151461072457600080fd5b6001600860003373ffffffffffffffffffffffffffffffffffffffff1673ffffffffffffffffffffffffffffffffffffffff16815260200190815260200160002060006101000a81548160ff021916908315150217905550610784610ba6565b6007600081548092919061079790610d66565b919050558160000181815250506001816020018181525050806009600083600001518152602001908152602001600020600082015181600001556020820151816001015560408201518160020160006101000a81548160ff0219169083151502179055509050506001600660008360000151815260200190815260200160002060006101000a81548160ff0219169083151502179055506003819080600181540180825580915050600190039060005260206000209060030201600090919091909150600082015181600001556020820151816001015560408201518160020160006101000a81548160ff021916908315150217905550505080600a60003373ffffffffffffffffffffffffffffffffffffffff1673ffffffffffffffffffffffffffffffffffffffff168152602001908152602001600020600082015181600001556020820151816001015560408201518160020160006101000a81548160ff02191690831515021790555090505050565b600080600081548092919061091e90610d66565b91905055506064423360005460405160200161093c93929190610ed5565b6040516020818303038152906040528051906020012060001c61095f9190610f41565b600181905550600060649050600083856109799190610e06565b9050838282600060015461098d9190610e06565b6109979190610f72565b6109a19190610fcc565b6109ab9190610ffd565b9250505092915050565b600260009054906101000a900460ff1681565b600560038054905010156109db57600080fd5b6000600590505b60008114610a355760056109f461051f565b90806001815401808255809150506001900390600052602060002001600090919091909150558080610a2590610ddd565b915050610a306103b0565b6109e2565b50565b60005b600380549050811015610aac5760016006600060038481548110610a6257610a61610d08565b5b906000526020600020906003020160000154815260200190815260200160002060006101000a81548160ff0219169083151502179055508080610aa490610d66565b915050610a3b565b50600060048054905090505b60008114610afb576004805480610ad257610ad1610dae565b5b600190038181906000526020600020016000905590558080610af390610ddd565b915050610ab8565b60058054905090505b60008114610b47576005805480610b1e57610b1d610dae565b5b600190038181906000526020600020016000905590558080610b3f90610ddd565b915050610b04565b50565b60096020528060005260406000206000915090508060000154908060010154908060020160009054906101000a900460ff16905083565b60015481565b6000610b91610a38565b610b996109c8565b610ba1610401565b905090565b604051806060016040528060008152602001600081526020016000151581525090565b60008115159050919050565b610bde81610bc9565b82525050565b6000602082019050610bf96000830184610bd5565b92915050565b6000819050919050565b610c1281610bff565b82525050565b6000602082019050610c2d6000830184610c09565b92915050565b600080fd5b610c4181610bff565b8114610c4c57600080fd5b50565b600081359050610c5e81610c38565b92915050565b60008060408385031215610c7b57610c7a610c33565b5b6000610c8985828601610c4f565b9250506020610c9a85828601610c4f565b9150509250929050565b600060208284031215610cba57610cb9610c33565b5b6000610cc884828501610c4f565b91505092915050565b6000606082019050610ce66000830186610c09565b610cf36020830185610c09565b610d006040830184610bd5565b949350505050565b7f4e487b7100000000000000000000000000000000000000000000000000000000600052603260045260246000fd5b7f4e487b7100000000000000000000000000000000000000000000000000000000600052601160045260246000fd5b6000610d7182610bff565b91507fffffffffffffffffffffffffffffffffffffffffffffffffffffffffffffffff8203610da357610da2610d37565b5b600182019050919050565b7f4e487b7100000000000000000000000000000000000000000000000000000000600052603160045260246000fd5b6000610de882610bff565b915060008203610dfb57610dfa610d37565b5b600182039050919050565b6000610e1182610bff565b9150610e1c83610bff565b925082821015610e2f57610e2e610d37565b5b828203905092915050565b6000819050919050565b610e55610e5082610bff565b610e3a565b82525050565b600073ffffffffffffffffffffffffffffffffffffffff82169050919050565b6000610e8682610e5b565b9050919050565b60008160601b9050919050565b6000610ea582610e8d565b9050919050565b6000610eb782610e9a565b9050919050565b610ecf610eca82610e7b565b610eac565b82525050565b6000610ee18286610e44565b602082019150610ef18285610ebe565b601482019150610f018284610e44565b602082019150819050949350505050565b7f4e487b7100000000000000000000000000000000000000000000000000000000600052601260045260246000fd5b6000610f4c82610bff565b9150610f5783610bff565b925082610f6757610f66610f12565b5b828206905092915050565b6000610f7d82610bff565b9150610f8883610bff565b9250817fffffffffffffffffffffffffffffffffffffffffffffffffffffffffffffffff0483118215151615610fc157610fc0610d37565b5b828202905092915050565b6000610fd782610bff565b9150610fe283610bff565b925082610ff257610ff1610f12565b5b828204905092915050565b600061100882610bff565b915061101383610bff565b9250827fffffffffffffffffffffffffffffffffffffffffffffffffffffffffffffffff0382111561104857611047610d37565b5b82820190509291505056fea264697066735822122069d901c2ac7088539bfaee0b06b97835868bbf98a40f4f39c570c2a6dc32b02064736f6c634300080e0033",
  "immutableReferences": {},
  "source": "// SPDX-License-Identifier: GPL-3.0\r\npragma solidity >= 0.6.0;\r\npragma experimental ABIEncoderV2;\r\n\r\ncontract verify_random\r\n{\r\n    \r\n    uint random_temp = 0;\r\n    uint public random_num;\r\n    bool public flag = false;\r\n    struct person{\r\n        uint id;\r\n        uint rep_score;\r\n        bool verdict;\r\n    }\r\n\r\n    person [] private v_members;\r\n    uint [] pred_arr;\r\n    uint [] selected_5_verifiers;\r\n    mapping(uint => bool) Hsh;\r\n    uint global_id = 0;\r\n\r\n    mapping (address => bool) private verifiers;\r\n    mapping (uint => person) public registered;\r\n    mapping (address => person) private add_to_person;\r\n\r\n    \r\n    function verify() public returns(bool){\r\n        reset();\r\n        select_5_people();\r\n        // send notification to 5 verifiers and update the verdict of the particular person.\r\n        return update_score();\r\n    }\r\n\r\n    function reset() public\r\n    {\r\n        for(uint i=0;i<v_members.length;i++)\r\n        {\r\n            Hsh[v_members[i].id] = true; \r\n        }\r\n        uint len = pred_arr.length;\r\n        while(len != 0)\r\n        {\r\n            pred_arr.pop();\r\n            len--;\r\n        }\r\n        len = selected_5_verifiers.length;\r\n        while(len != 0)\r\n        {\r\n            selected_5_verifiers.pop();\r\n            len--;\r\n        }\r\n    }\r\n\r\n    function ver_register() public \r\n    {\r\n        require(verifiers[msg.sender] == false);\r\n        verifiers[msg.sender] = true;\r\n        person memory p;\r\n        p.id = global_id ++;\r\n        p.rep_score = 1;\r\n        registered[p.id] = p;\r\n        Hsh[p.id] = true;\r\n        v_members.push(p);\r\n        add_to_person[msg.sender] = p;\r\n    }\r\n\r\n    function generate_random(uint num_max, uint num_min) public returns (uint)\r\n    {\r\n        random_temp++;\r\n        random_num =  uint(keccak256(abi.encodePacked(block.timestamp,msg.sender,random_temp))) % 100;\r\n        uint old_range = 100;  \r\n        uint new_range = num_max - num_min;\r\n        return (((random_num - 0) * new_range) / old_range) + num_min;\r\n    }\r\n    function clear_pred_arr() public \r\n    {\r\n        uint len = pred_arr.length;\r\n        while(len != 0)\r\n        {\r\n            pred_arr.pop();\r\n            len--;\r\n        }\r\n    }\r\n    function fill_pred_arr () public returns(uint)\r\n    {\r\n        uint track;\r\n        for(uint i = 0; i < v_members.length; i++)\r\n        {\r\n            if(Hsh[v_members[i].id] == true)\r\n            {\r\n                track = v_members[i].rep_score;\r\n                for(uint j = 0; j < track ; j++)\r\n                {\r\n                    pred_arr.push(v_members[i].id);\r\n                }\r\n            }\r\n            else\r\n            {\r\n                continue;\r\n            }\r\n        }\r\n        uint ran = generate_random(pred_arr.length-1, 0);\r\n        Hsh[pred_arr[ran]] = false;\r\n        return pred_arr[ran];\r\n    }\r\n    \r\n    function select_5_people() public\r\n    {\r\n        require(v_members.length >= 5);\r\n        \r\n        uint T = 5;\r\n        while(T != 0)\r\n        {\r\n            selected_5_verifiers.push(fill_pred_arr());\r\n            T--;\r\n            clear_pred_arr();\r\n        }\r\n    }\r\n\r\n    function choose_final_verdict() public view returns(bool)\r\n    {\r\n        require(selected_5_verifiers.length >= 5);\r\n        uint yes;\r\n        uint no;\r\n\r\n        for(uint i = 0; i < selected_5_verifiers.length; i++)\r\n        {\r\n            if(registered[selected_5_verifiers[i]].verdict == true)\r\n            {\r\n                yes ++;\r\n            }\r\n\r\n            else\r\n            {\r\n                no ++;\r\n            }\r\n        }\r\n\r\n        return yes >= no;\r\n    }\r\n\r\n    function approve() public\r\n    {\r\n        add_to_person[msg.sender].verdict = true;\r\n    }\r\n\r\n    function reject() public\r\n    {\r\n        add_to_person[msg.sender].verdict = false;\r\n    } \r\n\r\n    function update_score() public returns(bool)\r\n    {\r\n        bool review = choose_final_verdict();\r\n        for(uint i = 0; i < selected_5_verifiers.length; i ++)\r\n        {\r\n            if(review == registered[selected_5_verifiers[i]].verdict)\r\n            {\r\n                registered[selected_5_verifiers[i]].rep_score ++;\r\n            }\r\n\r\n            else\r\n            {\r\n                registered[selected_5_verifiers[i]].rep_score --;\r\n            }\r\n        }\r\n        return review;\r\n    }  \r\n}",
  "sourcePath": "C:\\Users\\Mhaseeb\\Desktop\\SS_Project\\contracts\\consensus\\verify_random.sol",
  "compiler": {
    "name": "solc",
    "version": "0.8.14+commit.80d49f37.Emscripten.clang"
  },
  "schemaVersion": "3.4.7",
  "updatedAt": "2022-06-26T02:18:22.596Z",
  "devdoc": {
    "kind": "dev",
    "methods": {},
    "version": 1
  },
  "userdoc": {
    "kind": "user",
    "methods": {},
    "version": 1
  }
}